{
  "_format": "hh-sol-artifact-1",
  "contractName": "EnsoOracle",
  "sourceName": "contracts/oracles/EnsoOracle.sol",
  "abi": [
    {
      "inputs": [
        {
          "internalType": "address",
          "name": "tokenRegistry_",
          "type": "address"
        },
        {
          "internalType": "address",
          "name": "weth_",
          "type": "address"
        },
        {
          "internalType": "address",
          "name": "susd_",
          "type": "address"
        }
      ],
      "stateMutability": "nonpayable",
      "type": "constructor"
    },
    {
      "anonymous": false,
      "inputs": [
        {
          "indexed": false,
          "internalType": "address",
          "name": "token",
          "type": "address"
        },
        {
          "indexed": false,
          "internalType": "uint256",
          "name": "price",
          "type": "uint256"
        }
      ],
      "name": "NewPrice",
      "type": "event"
    },
    {
      "inputs": [
        {
          "internalType": "uint256",
          "name": "balance",
          "type": "uint256"
        },
        {
          "internalType": "address",
          "name": "token",
          "type": "address"
        }
      ],
      "name": "estimateItem",
      "outputs": [
        {
          "internalType": "int256",
          "name": "",
          "type": "int256"
        }
      ],
      "stateMutability": "view",
      "type": "function"
    },
    {
      "inputs": [
        {
          "internalType": "contract IStrategy[]",
          "name": "strategies",
          "type": "address[]"
        }
      ],
      "name": "estimateStrategies",
      "outputs": [
        {
          "internalType": "uint256[]",
          "name": "",
          "type": "uint256[]"
        }
      ],
      "stateMutability": "view",
      "type": "function"
    },
    {
      "inputs": [
        {
          "internalType": "contract IStrategy",
          "name": "strategy",
          "type": "address"
        }
      ],
      "name": "estimateStrategy",
      "outputs": [
        {
          "internalType": "uint256",
          "name": "",
          "type": "uint256"
        },
        {
          "internalType": "int256[]",
          "name": "",
          "type": "int256[]"
        }
      ],
      "stateMutability": "view",
      "type": "function"
    },
    {
      "inputs": [],
      "name": "susd",
      "outputs": [
        {
          "internalType": "address",
          "name": "",
          "type": "address"
        }
      ],
      "stateMutability": "view",
      "type": "function"
    },
    {
      "inputs": [],
      "name": "tokenRegistry",
      "outputs": [
        {
          "internalType": "contract ITokenRegistry",
          "name": "",
          "type": "address"
        }
      ],
      "stateMutability": "view",
      "type": "function"
    },
    {
      "inputs": [],
      "name": "weth",
      "outputs": [
        {
          "internalType": "address",
          "name": "",
          "type": "address"
        }
      ],
      "stateMutability": "view",
      "type": "function"
    }
  ],
  "bytecode": "0x608060405234801561001057600080fd5b50604051610e70380380610e7083398101604081905261002f91610071565b600280546001600160a01b039485166001600160a01b0319918216179091556000805493851693821693909317909255600180549190931691161790556100d5565b600080600060608486031215610085578283fd5b8351610090816100bd565b60208501519093506100a1816100bd565b60408501519092506100b2816100bd565b809150509250925092565b6001600160a01b03811681146100d257600080fd5b50565b610d8c806100e46000396000f3fe608060405234801561001057600080fd5b50600436106100625760003560e01c80633fc8cef3146100675780639d23c4c714610085578063b44a043b1461008d578063b748752f146100ad578063c9257775146100cd578063ff4a1902146100d5575b600080fd5b61006f6100f6565b60405161007c9190610bf3565b60405180910390f35b61006f610105565b6100a061009b366004610bc4565b610114565b60405161007c9190610c4b565b6100c06100bb366004610ae8565b610219565b60405161007c9190610c07565b61006f6102b5565b6100e86100e3366004610b90565b6102c4565b60405161007c929190610cac565b6000546001600160a01b031681565b6002546001600160a01b031681565b600254604051632aae806560e21b81526000916001600160a01b03169063aaba019490610145908590600401610bf3565b60206040518083038186803b15801561015d57600080fd5b505afa158015610171573d6000803e3d6000fd5b505050506040513d601f19601f820116820180604052508101906101959190610b74565b6001600160a01b031663b44a043b84846040518363ffffffff1660e01b81526004016101c2929190610c95565b60206040518083038186803b1580156101da57600080fd5b505afa1580156101ee573d6000803e3d6000fd5b505050506040513d601f19601f820116820180604052508101906102129190610bac565b9392505050565b60608082516001600160401b038111801561023357600080fd5b5060405190808252806020026020018201604052801561025d578160200160208202803683370190505b50905060005b83518110156102ae57600061028a85838151811061027d57fe5b60200260200101516102c4565b5090508083838151811061029a57fe5b602090810291909101015250600101610263565b5092915050565b6001546001600160a01b031681565b6000606080836001600160a01b031663c06fad066040518163ffffffff1660e01b815260040160006040518083038186803b15801561030257600080fd5b505afa158015610316573d6000803e3d6000fd5b505050506040513d6000823e601f3d908101601f1916820160405261033e9190810190610a4b565b90506060846001600160a01b0316630dca59c16040518163ffffffff1660e01b815260040160006040518083038186803b15801561037b57600080fd5b505afa15801561038f573d6000803e3d6000fd5b505050506040513d6000823e601f3d908101601f191682016040526103b79190810190610a4b565b600080546040516370a0823160e01b815292935090916001600160a01b03909116906370a08231906103ed908990600401610bf3565b60206040518083038186803b15801561040557600080fd5b505afa158015610419573d6000803e3d6000fd5b505050506040513d601f19601f8201168201806040525081019061043d9190610bac565b9050606082518451016001016001600160401b038111801561045e57600080fd5b50604051908082528060200260200182016040528015610488578160200160208202803683370190505b50905060005b84518110156105735760006105448683815181106104a857fe5b60200260200101516001600160a01b03166370a082318b6040518263ffffffff1660e01b81526004016104db9190610bf3565b60206040518083038186803b1580156104f357600080fd5b505afa158015610507573d6000803e3d6000fd5b505050506040513d601f19601f8201168201806040525081019061052b9190610bac565b87848151811061053757fe5b6020026020010151610114565b905061055084826109fc565b93508083838151811061055f57fe5b60209081029190910101525060010161048e565b5060005b835181101561065257600061062085838151811061059157fe5b60200260200101516001600160a01b03166370a082318b6040518263ffffffff1660e01b81526004016105c49190610bf3565b60206040518083038186803b1580156105dc57600080fd5b505afa1580156105f0573d6000803e3d6000fd5b505050506040513d601f19601f820116820180604052508101906106149190610bac565b86848151811061053757fe5b905061062c84826109fc565b93508083875184018151811061063e57fe5b602090810291909101015250600101610577565b506060876001600160a01b031663803c88906040518163ffffffff1660e01b815260040160006040518083038186803b15801561068e57600080fd5b505afa1580156106a2573d6000803e3d6000fd5b505050506040513d6000823e601f3d908101601f191682016040526106ca9190810190610a4b565b8051909150156109ef57600254604051632efa617160e21b81526000916001600160a01b03169063bbe985c49061070690600190600401610c4b565b60206040518083038186803b15801561071e57600080fd5b505afa158015610732573d6000803e3d6000fd5b505050506040513d601f19601f820116820180604052508101906107569190610b74565b90506000805b83518110156108985761088e836001600160a01b031663b44a043b86848151811061078357fe5b60200260200101516001600160a01b03166370a082318f6040518263ffffffff1660e01b81526004016107b69190610bf3565b60206040518083038186803b1580156107ce57600080fd5b505afa1580156107e2573d6000803e3d6000fd5b505050506040513d601f19601f820116820180604052508101906108069190610bac565b87858151811061081257fe5b60200260200101516040518363ffffffff1660e01b8152600401610837929190610c95565b60206040518083038186803b15801561084f57600080fd5b505afa158015610863573d6000803e3d6000fd5b505050506040513d601f19601f820116820180604052508101906108879190610bac565b83906109fc565b915060010161075c565b506109c1826001600160a01b031663b44a043b600160009054906101000a90046001600160a01b03166001600160a01b03166370a082318e6040518263ffffffff1660e01b81526004016108ec9190610bf3565b60206040518083038186803b15801561090457600080fd5b505afa158015610918573d6000803e3d6000fd5b505050506040513d601f19601f8201168201806040525081019061093c9190610bac565b6001546040516001600160e01b031960e085901b16815261096a92916001600160a01b031690600401610c95565b60206040518083038186803b15801561098257600080fd5b505afa158015610996573d6000803e3d6000fd5b505050506040513d601f19601f820116820180604052508101906109ba9190610bac565b82906109fc565b90506109cd85826109fc565b945080846001865103815181106109e057fe5b60200260200101818152505050505b5090945092505050915091565b6000828201818312801590610a115750838112155b80610a265750600083128015610a2657508381125b6102125760405162461bcd60e51b8152600401610a4290610c54565b60405180910390fd5b60006020808385031215610a5d578182fd5b82516001600160401b03811115610a72578283fd5b8301601f81018513610a82578283fd5b8051610a95610a9082610d1f565b610cf9565b8181528381019083850185840285018601891015610ab1578687fd5b8694505b83851015610adc578051610ac881610d3e565b835260019490940193918501918501610ab5565b50979650505050505050565b60006020808385031215610afa578182fd5b82356001600160401b03811115610b0f578283fd5b8301601f81018513610b1f578283fd5b8035610b2d610a9082610d1f565b8181528381019083850185840285018601891015610b49578687fd5b8694505b83851015610adc578035610b6081610d3e565b835260019490940193918501918501610b4d565b600060208284031215610b85578081fd5b815161021281610d3e565b600060208284031215610ba1578081fd5b813561021281610d3e565b600060208284031215610bbd578081fd5b5051919050565b60008060408385031215610bd6578081fd5b823591506020830135610be881610d3e565b809150509250929050565b6001600160a01b0391909116815260200190565b6020808252825182820181905260009190848201906040850190845b81811015610c3f57835183529284019291840191600101610c23565b50909695505050505050565b90815260200190565b60208082526021908201527f5369676e6564536166654d6174683a206164646974696f6e206f766572666c6f6040820152607760f81b606082015260800190565b9182526001600160a01b0316602082015260400190565b60006040820184835260206040818501528185518084526060860191508287019350845b81811015610cec57845183529383019391830191600101610cd0565b5090979650505050505050565b6040518181016001600160401b0381118282101715610d1757600080fd5b604052919050565b60006001600160401b03821115610d34578081fd5b5060209081020190565b6001600160a01b0381168114610d5357600080fd5b5056fea26469706673582212207bb6d040c060bc9cd1146c149be7ca6fbe08f9e046214cc0f1e2cae7c9b972ce64736f6c634300060c0033",
  "linkReferences": {},
  "deployedLinkReferences": {}
}