{
  "_format": "hh-sol-artifact-1",
  "contractName": "StrategyController",
  "sourceName": "contracts/StrategyController.sol",
  "abi": [
    {
      "inputs": [],
      "stateMutability": "nonpayable",
      "type": "constructor"
    },
    {
      "anonymous": false,
      "inputs": [
        {
          "indexed": true,
          "internalType": "address",
          "name": "strategy",
          "type": "address"
        },
        {
          "indexed": false,
          "internalType": "uint256",
          "name": "total",
          "type": "uint256"
        },
        {
          "indexed": false,
          "internalType": "address",
          "name": "caller",
          "type": "address"
        }
      ],
      "name": "Balanced",
      "type": "event"
    },
    {
      "anonymous": false,
      "inputs": [
        {
          "indexed": true,
          "internalType": "address",
          "name": "strategy",
          "type": "address"
        },
        {
          "indexed": false,
          "internalType": "uint256",
          "name": "value",
          "type": "uint256"
        },
        {
          "indexed": false,
          "internalType": "uint256",
          "name": "amount",
          "type": "uint256"
        }
      ],
      "name": "Deposit",
      "type": "event"
    },
    {
      "anonymous": false,
      "inputs": [
        {
          "indexed": true,
          "internalType": "address",
          "name": "strategy",
          "type": "address"
        },
        {
          "components": [
            {
              "internalType": "address",
              "name": "item",
              "type": "address"
            },
            {
              "internalType": "int256",
              "name": "percentage",
              "type": "int256"
            },
            {
              "components": [
                {
                  "internalType": "address[]",
                  "name": "adapters",
                  "type": "address[]"
                },
                {
                  "internalType": "address[]",
                  "name": "path",
                  "type": "address[]"
                },
                {
                  "internalType": "bytes",
                  "name": "cache",
                  "type": "bytes"
                }
              ],
              "internalType": "struct StrategyTypes.TradeData",
              "name": "data",
              "type": "tuple"
            }
          ],
          "indexed": false,
          "internalType": "struct StrategyTypes.StrategyItem[]",
          "name": "items",
          "type": "tuple[]"
        },
        {
          "indexed": true,
          "internalType": "bool",
          "name": "finalized",
          "type": "bool"
        }
      ],
      "name": "NewStructure",
      "type": "event"
    },
    {
      "anonymous": false,
      "inputs": [
        {
          "indexed": true,
          "internalType": "address",
          "name": "strategy",
          "type": "address"
        },
        {
          "indexed": false,
          "internalType": "enum StrategyTypes.TimelockCategory",
          "name": "category",
          "type": "uint8"
        },
        {
          "indexed": false,
          "internalType": "uint256",
          "name": "newValue",
          "type": "uint256"
        },
        {
          "indexed": true,
          "internalType": "bool",
          "name": "finalized",
          "type": "bool"
        }
      ],
      "name": "NewValue",
      "type": "event"
    },
    {
      "anonymous": false,
      "inputs": [
        {
          "indexed": false,
          "internalType": "address",
          "name": "sender",
          "type": "address"
        },
        {
          "indexed": false,
          "internalType": "uint256",
          "name": "value",
          "type": "uint256"
        }
      ],
      "name": "Received",
      "type": "event"
    },
    {
      "anonymous": false,
      "inputs": [
        {
          "indexed": true,
          "internalType": "address",
          "name": "strategy",
          "type": "address"
        },
        {
          "indexed": false,
          "internalType": "uint256",
          "name": "performanceFee",
          "type": "uint256"
        }
      ],
      "name": "StrategyOpen",
      "type": "event"
    },
    {
      "anonymous": false,
      "inputs": [
        {
          "indexed": true,
          "internalType": "address",
          "name": "strategy",
          "type": "address"
        }
      ],
      "name": "StrategySet",
      "type": "event"
    },
    {
      "anonymous": false,
      "inputs": [
        {
          "indexed": true,
          "internalType": "address",
          "name": "strategy",
          "type": "address"
        },
        {
          "indexed": false,
          "internalType": "uint256",
          "name": "value",
          "type": "uint256"
        },
        {
          "indexed": false,
          "internalType": "uint256",
          "name": "amount",
          "type": "uint256"
        }
      ],
      "name": "Withdraw",
      "type": "event"
    },
    {
      "inputs": [
        {
          "internalType": "contract IStrategy",
          "name": "strategy",
          "type": "address"
        },
        {
          "internalType": "contract IStrategyRouter",
          "name": "router",
          "type": "address"
        },
        {
          "internalType": "uint256",
          "name": "amount",
          "type": "uint256"
        },
        {
          "internalType": "bytes",
          "name": "data",
          "type": "bytes"
        }
      ],
      "name": "deposit",
      "outputs": [],
      "stateMutability": "payable",
      "type": "function"
    },
    {
      "inputs": [
        {
          "internalType": "contract IStrategy",
          "name": "strategy",
          "type": "address"
        },
        {
          "internalType": "contract IStrategyRouter",
          "name": "router",
          "type": "address"
        },
        {
          "internalType": "bytes",
          "name": "data",
          "type": "bytes"
        }
      ],
      "name": "finalizeStructure",
      "outputs": [],
      "stateMutability": "nonpayable",
      "type": "function"
    },
    {
      "inputs": [
        {
          "internalType": "address",
          "name": "strategy",
          "type": "address"
        }
      ],
      "name": "finalizeValue",
      "outputs": [],
      "stateMutability": "nonpayable",
      "type": "function"
    },
    {
      "inputs": [
        {
          "internalType": "address",
          "name": "factory",
          "type": "address"
        }
      ],
      "name": "initialize",
      "outputs": [
        {
          "internalType": "bool",
          "name": "",
          "type": "bool"
        }
      ],
      "stateMutability": "nonpayable",
      "type": "function"
    },
    {
      "inputs": [
        {
          "internalType": "address",
          "name": "strategy",
          "type": "address"
        }
      ],
      "name": "initialized",
      "outputs": [
        {
          "internalType": "bool",
          "name": "",
          "type": "bool"
        }
      ],
      "stateMutability": "view",
      "type": "function"
    },
    {
      "inputs": [
        {
          "internalType": "contract IStrategy",
          "name": "strategy",
          "type": "address"
        },
        {
          "internalType": "uint256",
          "name": "fee",
          "type": "uint256"
        }
      ],
      "name": "openStrategy",
      "outputs": [],
      "stateMutability": "nonpayable",
      "type": "function"
    },
    {
      "inputs": [],
      "name": "oracle",
      "outputs": [
        {
          "internalType": "contract IOracle",
          "name": "",
          "type": "address"
        }
      ],
      "stateMutability": "view",
      "type": "function"
    },
    {
      "inputs": [
        {
          "internalType": "address",
          "name": "strategy",
          "type": "address"
        }
      ],
      "name": "performanceFee",
      "outputs": [
        {
          "internalType": "uint256",
          "name": "",
          "type": "uint256"
        }
      ],
      "stateMutability": "view",
      "type": "function"
    },
    {
      "inputs": [
        {
          "internalType": "contract IStrategy",
          "name": "strategy",
          "type": "address"
        },
        {
          "internalType": "contract IStrategyRouter",
          "name": "router",
          "type": "address"
        },
        {
          "internalType": "bytes",
          "name": "data",
          "type": "bytes"
        }
      ],
      "name": "rebalance",
      "outputs": [],
      "stateMutability": "nonpayable",
      "type": "function"
    },
    {
      "inputs": [
        {
          "internalType": "address",
          "name": "strategy",
          "type": "address"
        }
      ],
      "name": "rebalanceThreshold",
      "outputs": [
        {
          "internalType": "uint256",
          "name": "",
          "type": "uint256"
        }
      ],
      "stateMutability": "view",
      "type": "function"
    },
    {
      "inputs": [
        {
          "internalType": "contract IStrategy",
          "name": "strategy",
          "type": "address"
        },
        {
          "internalType": "address",
          "name": "adapter",
          "type": "address"
        },
        {
          "internalType": "address",
          "name": "token",
          "type": "address"
        }
      ],
      "name": "repositionSynths",
      "outputs": [],
      "stateMutability": "nonpayable",
      "type": "function"
    },
    {
      "inputs": [
        {
          "internalType": "contract IStrategy",
          "name": "strategy",
          "type": "address"
        },
        {
          "components": [
            {
              "internalType": "address",
              "name": "item",
              "type": "address"
            },
            {
              "internalType": "int256",
              "name": "percentage",
              "type": "int256"
            },
            {
              "components": [
                {
                  "internalType": "address[]",
                  "name": "adapters",
                  "type": "address[]"
                },
                {
                  "internalType": "address[]",
                  "name": "path",
                  "type": "address[]"
                },
                {
                  "internalType": "bytes",
                  "name": "cache",
                  "type": "bytes"
                }
              ],
              "internalType": "struct StrategyTypes.TradeData",
              "name": "data",
              "type": "tuple"
            }
          ],
          "internalType": "struct StrategyTypes.StrategyItem[]",
          "name": "strategyItems",
          "type": "tuple[]"
        }
      ],
      "name": "restructure",
      "outputs": [],
      "stateMutability": "nonpayable",
      "type": "function"
    },
    {
      "inputs": [
        {
          "internalType": "contract IStrategy",
          "name": "strategy",
          "type": "address"
        }
      ],
      "name": "setStrategy",
      "outputs": [],
      "stateMutability": "nonpayable",
      "type": "function"
    },
    {
      "inputs": [
        {
          "internalType": "address",
          "name": "creator_",
          "type": "address"
        },
        {
          "internalType": "address",
          "name": "strategy_",
          "type": "address"
        },
        {
          "components": [
            {
              "internalType": "uint32",
              "name": "timelock",
              "type": "uint32"
            },
            {
              "internalType": "uint16",
              "name": "rebalanceThreshold",
              "type": "uint16"
            },
            {
              "internalType": "uint16",
              "name": "slippage",
              "type": "uint16"
            },
            {
              "internalType": "uint16",
              "name": "performanceFee",
              "type": "uint16"
            },
            {
              "internalType": "bool",
              "name": "social",
              "type": "bool"
            },
            {
              "internalType": "bool",
              "name": "set",
              "type": "bool"
            }
          ],
          "internalType": "struct StrategyTypes.StrategyState",
          "name": "state_",
          "type": "tuple"
        },
        {
          "internalType": "address",
          "name": "router_",
          "type": "address"
        },
        {
          "internalType": "bytes",
          "name": "data_",
          "type": "bytes"
        }
      ],
      "name": "setupStrategy",
      "outputs": [],
      "stateMutability": "payable",
      "type": "function"
    },
    {
      "inputs": [
        {
          "internalType": "address",
          "name": "strategy",
          "type": "address"
        }
      ],
      "name": "slippage",
      "outputs": [
        {
          "internalType": "uint256",
          "name": "",
          "type": "uint256"
        }
      ],
      "stateMutability": "view",
      "type": "function"
    },
    {
      "inputs": [
        {
          "internalType": "address",
          "name": "strategy",
          "type": "address"
        }
      ],
      "name": "social",
      "outputs": [
        {
          "internalType": "bool",
          "name": "",
          "type": "bool"
        }
      ],
      "stateMutability": "view",
      "type": "function"
    },
    {
      "inputs": [
        {
          "internalType": "address",
          "name": "strategy",
          "type": "address"
        }
      ],
      "name": "timelock",
      "outputs": [
        {
          "internalType": "uint256",
          "name": "",
          "type": "uint256"
        }
      ],
      "stateMutability": "view",
      "type": "function"
    },
    {
      "inputs": [
        {
          "internalType": "contract IStrategy",
          "name": "strategy",
          "type": "address"
        },
        {
          "internalType": "enum StrategyTypes.TimelockCategory",
          "name": "category",
          "type": "uint8"
        },
        {
          "internalType": "uint256",
          "name": "newValue",
          "type": "uint256"
        }
      ],
      "name": "updateValue",
      "outputs": [],
      "stateMutability": "nonpayable",
      "type": "function"
    },
    {
      "inputs": [
        {
          "internalType": "address",
          "name": "strategy",
          "type": "address"
        },
        {
          "components": [
            {
              "internalType": "address",
              "name": "item",
              "type": "address"
            },
            {
              "internalType": "int256",
              "name": "percentage",
              "type": "int256"
            },
            {
              "components": [
                {
                  "internalType": "address[]",
                  "name": "adapters",
                  "type": "address[]"
                },
                {
                  "internalType": "address[]",
                  "name": "path",
                  "type": "address[]"
                },
                {
                  "internalType": "bytes",
                  "name": "cache",
                  "type": "bytes"
                }
              ],
              "internalType": "struct StrategyTypes.TradeData",
              "name": "data",
              "type": "tuple"
            }
          ],
          "internalType": "struct StrategyTypes.StrategyItem[]",
          "name": "newItems",
          "type": "tuple[]"
        }
      ],
      "name": "verifyStructure",
      "outputs": [
        {
          "internalType": "bool",
          "name": "",
          "type": "bool"
        }
      ],
      "stateMutability": "view",
      "type": "function"
    },
    {
      "inputs": [],
      "name": "whitelist",
      "outputs": [
        {
          "internalType": "contract IWhitelist",
          "name": "",
          "type": "address"
        }
      ],
      "stateMutability": "view",
      "type": "function"
    },
    {
      "inputs": [
        {
          "internalType": "contract IStrategy",
          "name": "strategy",
          "type": "address"
        },
        {
          "internalType": "contract IStrategyRouter",
          "name": "router",
          "type": "address"
        },
        {
          "internalType": "uint256",
          "name": "amount",
          "type": "uint256"
        },
        {
          "internalType": "bytes",
          "name": "data",
          "type": "bytes"
        }
      ],
      "name": "withdrawETH",
      "outputs": [],
      "stateMutability": "nonpayable",
      "type": "function"
    },
    {
      "inputs": [
        {
          "internalType": "contract IStrategy",
          "name": "strategy",
          "type": "address"
        },
        {
          "internalType": "contract IStrategyRouter",
          "name": "router",
          "type": "address"
        },
        {
          "internalType": "uint256",
          "name": "amount",
          "type": "uint256"
        },
        {
          "internalType": "bytes",
          "name": "data",
          "type": "bytes"
        }
      ],
      "name": "withdrawWETH",
      "outputs": [],
      "stateMutability": "nonpayable",
      "type": "function"
    },
    {
      "stateMutability": "payable",
      "type": "receive"
    }
  ],
  "bytecode": "0x60806040523480156200001157600080fd5b50600454610100900460ff16806200002e57506200002e620000ab565b806200003d575060045460ff16155b620000655760405162461bcd60e51b81526004016200005c90620000b1565b60405180910390fd5b600454610100900460ff1615801562000091576004805460ff1961ff0019909116610100171660011790555b8015620000a4576004805461ff00191690555b50620000ff565b303b1590565b6020808252602e908201527f496e697469616c697a61626c653a20636f6e747261637420697320616c72656160408201526d191e481a5b9a5d1a585b1a5e995960921b606082015260800190565b615ebe806200010f6000396000f3fe6080604052600436106101095760003560e01c806301680b3e1461014e57806301843e931461017057806312125b1214610190578063145a7f92146101b05780632f5a221b146101e657806333a100ca146102135780633abe49de146102335780634e31a5b4146102535780635933e241146102735780635e0acb62146102865780636870aa57146102a65780636b143bb8146102c65780637534b17c146102e65780637dc0d1d014610306578063805e09b41461032857806393e59dc114610348578063b94713521461035d578063c4d66de81461037d578063cbca47db1461039d578063d5504f02146103bd578063e9c670ad146103dd578063f21f5339146103f057610149565b36610149577f88a5966d370b9919b20f3e2c13ff65706f196a4e32cc2c12bf57088f88525874333460405161013f9291906153ca565b60405180910390a1005b600080fd5b34801561015a57600080fd5b5061016e610169366004615153565b610410565b005b34801561017c57600080fd5b5061016e61018b3660046150f4565b610453565b34801561019c57600080fd5b5061016e6101ab3660046150aa565b61068e565b3480156101bc57600080fd5b506101d06101cb366004614d68565b610c14565b6040516101dd919061552c565b60405180910390f35b3480156101f257600080fd5b50610206610201366004614d68565b610c39565b6040516101dd9190615cea565b34801561021f57600080fd5b5061016e61022e366004614d68565b610c5f565b34801561023f57600080fd5b5061020661024e366004614d68565b610d04565b34801561025f57600080fd5b5061016e61026e366004614d68565b610d2a565b61016e610281366004614da0565b610f83565b34801561029257600080fd5b506102066102a1366004614d68565b610fe2565b3480156102b257600080fd5b5061016e6102c13660046151ff565b611008565b3480156102d257600080fd5b506102066102e1366004614d68565b6110f4565b3480156102f257600080fd5b5061016e610301366004615153565b611115565b34801561031257600080fd5b5061031b6111dc565b6040516101dd91906153b6565b34801561033457600080fd5b5061016e6103433660046150f4565b611268565b34801561035457600080fd5b5061031b6115c3565b34801561036957600080fd5b5061016e610378366004614ea5565b611612565b34801561038957600080fd5b506101d0610398366004614d68565b61175b565b3480156103a957600080fd5b506101d06103b8366004614d68565b6117ff565b3480156103c957600080fd5b506101d06103d8366004614ea5565b61181c565b61016e6103eb366004615153565b611b26565b3480156103fc57600080fd5b5061016e61040b3660046151bc565b611c9d565b61041984611e0a565b60008061042886868686611e60565b90925090506104426001600160a01b0383168733846125ef565b61044b86612647565b505050505050565b61045c83612682565b61046583611e0a565b61046e826126c5565b61047783612764565b826001600160a01b0316634a2f38a56040518163ffffffff1660e01b8152600401600060405180830381600087803b1580156104b257600080fd5b505af11580156104c6573d6000803e3d6000fd5b505050506001600160a01b038316600090815260026020908152604080832060039092529091208154600160501b900460ff16158061051d57508154600182015461051a9163ffffffff9081169061280516565b42115b6105425760405162461bcd60e51b815260040161053990615c87565b60405180910390fd5b6000815460ff16600481111561055457fe5b146105715760405162461bcd60e51b815260040161053990615b21565b600281810180546040805160206001841615610100026000190190931694909404601f810183900483028501830190915280845260609392918301828280156105fb5780601f106105d0576101008083540402835291602001916105fb565b820191906000526020600020905b8154815290600101906020018083116105de57829003601f168201915b50505050508060200190518101906106139190614f24565b905061062186868387612831565b815460ff191682556000600183018190556106409060028401906149d0565b60011515866001600160a01b03167fa98e30a4e169a0e1c0cdf53f9446a31c85cfb3fc6eb004468faf61d487ca196b8360405161067d9190615470565b60405180910390a361044b86612647565b61069783611e0a565b6106a083612764565b826001600160a01b0316634a2f38a56040518163ffffffff1660e01b8152600401600060405180830381600087803b1580156106db57600080fd5b505af11580156106ef573d6000803e3d6000fd5b5050505060006106fd6111dc565b6001600160a01b031663c92577756040518163ffffffff1660e01b815260040160206040518083038186803b15801561073557600080fd5b505afa158015610749573d6000803e3d6000fd5b505050506040513d601f19601f8201168201806040525081019061076d9190614d84565b9050806001600160a01b0316826001600160a01b03161415610926576060846001600160a01b031663803c88906040518163ffffffff1660e01b815260040160006040518083038186803b1580156107c457600080fd5b505afa1580156107d8573d6000803e3d6000fd5b505050506040513d6000823e601f3d908101601f191682016040526108009190810190614ef2565b905060005b815181101561091f57856001600160a01b0316631434ffac8684848151811061082a57fe5b60200260200101516001600160a01b03166370a082318a6040518263ffffffff1660e01b815260040161085d91906153b6565b60206040518083038186803b15801561087557600080fd5b505afa158015610889573d6000803e3d6000fd5b505050506040513d601f19601f820116820180604052508101906108ad9190615249565b8585815181106108b957fe5b6020026020010151876040518563ffffffff1660e01b81526004016108e19493929190615445565b600060405180830381600087803b1580156108fb57600080fd5b505af115801561090f573d6000803e3d6000fd5b5050600190920191506108059050565b5050610c05565b6001600160a01b038281161415610bed576040516370a0823160e01b81526000906001600160a01b038316906370a08231906109669088906004016153b6565b60206040518083038186803b15801561097e57600080fd5b505afa158015610992573d6000803e3d6000fd5b505050506040513d601f19601f820116820180604052508101906109b69190615249565b90506000856001600160a01b0316633ebbc9c46000196040518263ffffffff1660e01b81526004016109e891906153b6565b60206040518083038186803b158015610a0057600080fd5b505afa158015610a14573d6000803e3d6000fd5b505050506040513d601f19601f82011682018060405250810190610a389190615249565b90506060866001600160a01b031663803c88906040518163ffffffff1660e01b815260040160006040518083038186803b158015610a7557600080fd5b505afa158015610a89573d6000803e3d6000fd5b505050506040513d6000823e601f3d908101601f19168201604052610ab19190810190614ef2565b905060005b8151811015610be457876001600160a01b0316631434ffac88610b7286610b6c8d6001600160a01b0316633ebbc9c4898981518110610af157fe5b60200260200101516040518263ffffffff1660e01b8152600401610b1591906153b6565b60206040518083038186803b158015610b2d57600080fd5b505afa158015610b41573d6000803e3d6000fd5b505050506040513d601f19601f82011682018060405250810190610b659190615249565b8a90612cb8565b90612d23565b88868681518110610b7f57fe5b60200260200101516040518563ffffffff1660e01b8152600401610ba69493929190615445565b600060405180830381600087803b158015610bc057600080fd5b505af1158015610bd4573d6000803e3d6000fd5b505060019092019150610ab69050565b50505050610c05565b60405162461bcd60e51b815260040161053990615736565b610c0e84612647565b50505050565b6001600160a01b0316600090815260026020526040902054600160501b900460ff1690565b6001600160a01b0316600090815260026020526040902054600160201b900461ffff1690565b610c6881611e0a565b610c7181612764565b6001600160a01b03811660009081526002602052604090208054600160581b900460ff1615610cb25760405162461bcd60e51b815260040161053990615590565b805460ff60581b1916600160581b1781556040516001600160a01b038316907fe70d79dad95c835bdd87e9cf4665651c9e5abb3b756e4fd2bf45f29c95c3aa4090600090a2610d0082612647565b5050565b6001600160a01b0316600090815260026020526040902054600160401b900461ffff1690565b610d3381611e0a565b6001600160a01b0381166000908152600260209081526040808320600390925282209091815460ff166004811115610d6757fe5b1415610d855760405162461bcd60e51b815260040161053990615b21565b8154600160501b900460ff161580610db5575081546001820154610db29163ffffffff9081169061280516565b42115b610dd15760405162461bcd60e51b815260040161053990615c87565b600281810180546040805160206001841615610100026000190190931694909404601f81018390048302850183019091528084526000939291830182828015610e5b5780601f10610e3057610100808354040283529160200191610e5b565b820191906000526020600020905b815481529060010190602001808311610e3e57829003601f168201915b5050505050806020019051810190610e739190615249565b90506001825460ff166004811115610e8757fe5b1415610eaa57825461ffff60201b1916600160201b61ffff831602178355610f28565b6002825460ff166004811115610ebc57fe5b1415610edf57825461ffff60301b1916600160301b61ffff831602178355610f28565b6003825460ff166004811115610ef157fe5b1415610f0f57825463ffffffff191663ffffffff8216178355610f28565b825461ffff60401b1916600160401b61ffff8316021783555b81546040516001916001600160a01b03871691600080516020615e6983398151915291610f5c9160ff909116908690615537565b60405180910390a3815460ff19168255600060018301819055610c059060028401906149d0565b83610f8d81611e0a565b6000546001600160a01b03163314610fb75760405162461bcd60e51b815260040161053990615c0c565b610fc18585612d87565b3415610fd957610fd981848860008060001988613009565b61044b81612647565b6001600160a01b0316600090815260026020526040902054600160301b900461ffff1690565b61101182611e0a565b61101a82612764565b6103e8811061103b5760405162461bcd60e51b8152600401610539906157a2565b6001600160a01b03821660009081526002602052604090208054600160501b900460ff161561107c5760405162461bcd60e51b8152600401610539906156ae565b8054600160501b60ff60501b199091161761ffff60401b1916600160401b61ffff8416021781556040516001600160a01b038416907f8085ee4e361ef6ec216c527bbf67add21b5f2f696f50c443a8c118ca269d15f6906110de908590615cea565b60405180910390a26110ef83612647565b505050565b6001600160a01b031660009081526002602052604090205463ffffffff1690565b61111e84611e0a565b60008061112d86868686611e60565b90925090506111476001600160a01b0383168730846125ef565b604051632e1a7d4d60e01b81526001600160a01b03831690632e1a7d4d90611173908490600401615cea565b600060405180830381600087803b15801561118d57600080fd5b505af11580156111a1573d6000803e3d6000fd5b505060405133925083156108fc02915083906000818181858888f193505050501580156111d2573d6000803e3d6000fd5b5061044b86612647565b60008060009054906101000a90046001600160a01b03166001600160a01b0316637dc0d1d06040518163ffffffff1660e01b815260040160206040518083038186803b15801561122b57600080fd5b505afa15801561123f573d6000803e3d6000fd5b505050506040513d601f19601f820116820180604052508101906112639190614d84565b905090565b61127183611e0a565b61127a826126c5565b61128383612764565b826001600160a01b0316634a2f38a56040518163ffffffff1660e01b8152600401600060405180830381600087803b1580156112be57600080fd5b505af11580156112d2573d6000803e3d6000fd5b5050505060008060606112e4866136f2565b92509250925082156113085760405162461bcd60e51b81526004016105399061568c565b6000856001600160a01b031663ef430aa66040518163ffffffff1660e01b815260040160206040518083038186803b15801561134357600080fd5b505afa158015611357573d6000803e3d6000fd5b505050506040513d601f19601f8201168201806040525081019061137b919061522a565b600381111561138657fe5b146113b057818160405160200161139e929190615d0a565b60405160208183030381529060405293505b61143286876001600160a01b031663c06fad066040518163ffffffff1660e01b815260040160006040518083038186803b1580156113ed57600080fd5b505afa158015611401573d6000803e3d6000fd5b505050506040513d6000823e601f3d908101601f191682016040526114299190810190614ef2565b87600019613a34565b6114b486876001600160a01b0316630dca59c16040518163ffffffff1660e01b815260040160006040518083038186803b15801561146f57600080fd5b505afa158015611483573d6000803e3d6000fd5b505050506040513d6000823e601f3d908101601f191682016040526114ab9190810190614ef2565b87600019613b9a565b6114c086868487613cfe565b5061154286876001600160a01b031663c06fad066040518163ffffffff1660e01b815260040160006040518083038186803b1580156114fe57600080fd5b505afa158015611512573d6000803e3d6000fd5b505050506040513d6000823e601f3d908101601f1916820160405261153a9190810190614ef2565b876000613a34565b61044286876001600160a01b0316630dca59c16040518163ffffffff1660e01b815260040160006040518083038186803b15801561157f57600080fd5b505afa158015611593573d6000803e3d6000fd5b505050506040513d6000823e601f3d908101601f191682016040526115bb9190810190614ef2565b876000613b9a565b60008060009054906101000a90046001600160a01b03166001600160a01b03166393e59dc16040518163ffffffff1660e01b815260040160206040518083038186803b15801561122b57600080fd5b61161b82612682565b61162482611e0a565b61162d82612764565b6001600160a01b03821660009081526003602052604090206001810154158061168557506001600160a01b03831660009081526002602052604090205460018201546116829163ffffffff9081169061280516565b42115b6116a15760405162461bcd60e51b815260040161053990615c87565b6116ab838361181c565b6116c75760405162461bcd60e51b815260040161053990615a6e565b805460ff191681554260018201556040516116e6908390602001615470565b60405160208183030381529060405281600201908051906020019061170c929190614a14565b5060001515836001600160a01b03167fa98e30a4e169a0e1c0cdf53f9446a31c85cfb3fc6eb004468faf61d487ca196b8460405161174a9190615470565b60405180910390a36110ef83612647565b600454600090610100900460ff16806117775750611777613f02565b80611785575060045460ff16155b6117a15760405162461bcd60e51b8152600401610539906158de565b600454610100900460ff161580156117cc576004805460ff1961ff0019909116610100171660011790555b600080546001600160a01b0319166001600160a01b03851617905580156117f9576004805461ff00191690555b50919050565b6001600160a01b0316600090815260016020526040902054151590565b60008082511161183e5760405162461bcd60e51b815260040161053990615658565b60006001600160a01b03168260008151811061185657fe5b6020026020010151600001516001600160a01b031614156118895760405162461bcd60e51b8152600401610539906157f0565b6000196001600160a01b0316826001845103815181106118a557fe5b6020026020010151600001516001600160a01b031614156118d85760405162461bcd60e51b8152600401610539906157f0565b60006118e26111dc565b6001600160a01b0316639d23c4c76040518163ffffffff1660e01b815260040160206040518083038186803b15801561191a57600080fd5b505afa15801561192e573d6000803e3d6000fd5b505050506040513d601f19601f820116820180604052508101906119529190614d84565b90506000805b8451811015611af757600085828151811061196f57fe5b602002602001015160000151905081600014806119ce575085600183038151811061199657fe5b6020026020010151600001516001600160a01b03168683815181106119b757fe5b6020026020010151600001516001600160a01b0316115b6119ea5760405162461bcd60e51b81526004016105399061560b565b6040516346a7483760e01b81526000906001600160a01b038616906346a7483790611a199085906004016153b6565b60206040518083038186803b158015611a3157600080fd5b505afa158015611a45573d6000803e3d6000fd5b505050506040513d601f19601f82011682018060405250810190611a699190615249565b6011811115611a7457fe5b90506005816011811115611a8457fe5b1415611aa25760405162461bcd60e51b81526004016105399061596d565b6004816011811115611ab057fe5b1415611ac157611ac1888387613f08565b611aeb878481518110611ad057fe5b6020026020010151602001518561412090919063ffffffff16565b93505050600101611958565b506103e88114611b195760405162461bcd60e51b815260040161053990615888565b6001925050505b92915050565b611b2f84611e0a565b611b3884614166565b836001600160a01b0316634a2f38a56040518163ffffffff1660e01b8152600401600060405180830381600087803b158015611b7357600080fd5b505af1158015611b87573d6000803e3d6000fd5b50505050836001600160a01b0316638aac766b6040518163ffffffff1660e01b8152600401600060405180830381600087803b158015611bc657600080fd5b505af1158015611bda573d6000803e3d6000fd5b5050505060006060611bea6111dc565b6001600160a01b031663ff4a1902876040518263ffffffff1660e01b8152600401611c1591906153b6565b60006040518083038186803b158015611c2d57600080fd5b505afa158015611c41573d6000803e3d6000fd5b505050506040513d6000823e601f3d908101601f19168201604052611c699190810190615261565b915091506000611c7a878484614231565b9050611c8b8787338887868a613009565b611c9487612647565b50505050505050565b611ca683611e0a565b611caf83612764565b6001600160a01b038316600090815260036020526040902060018101541580611d0757506001600160a01b0384166000908152600260205260409020546001820154611d049163ffffffff9081169061280516565b42115b611d235760405162461bcd60e51b815260040161053990615c87565b6000836004811115611d3157fe5b1415611d3c57600080fd5b6003836004811115611d4a57fe5b14611d71576103e8821115611d715760405162461bcd60e51b8152600401610539906157c8565b80548390829060ff19166001836004811115611d8957fe5b0217905550426001820155604051611da5908390602001615cea565b604051602081830303815290604052816002019080519060200190611dcb929190614a14565b5060001515846001600160a01b0316600080516020615e698339815191528585604051611df9929190615537565b60405180910390a3610c0e84612647565b806001600160a01b031663f83d08ba6040518163ffffffff1660e01b8152600401600060405180830381600087803b158015611e4557600080fd5b505af1158015611e59573d6000803e3d6000fd5b5050505050565b60008060008411611e835760405162461bcd60e51b815260040161053990615a1c565b856001600160a01b0316634a2f38a56040518163ffffffff1660e01b8152600401600060405180830381600087803b158015611ebe57600080fd5b505af1158015611ed2573d6000803e3d6000fd5b505050506000611ee06111dc565b905060006060826001600160a01b031663ff4a19028a6040518263ffffffff1660e01b8152600401611f1291906153b6565b60006040518083038186803b158015611f2a57600080fd5b505afa158015611f3e573d6000803e3d6000fd5b505050506040513d6000823e601f3d908101601f19168201604052611f669190810190615261565b915091506000611f778a8484614231565b905060008a6001600160a01b03166318160ddd6040518163ffffffff1660e01b815260040160206040518083038186803b158015611fb457600080fd5b505afa158015611fc8573d6000803e3d6000fd5b505050506040513d601f19601f82011682018060405250810190611fec9190615249565b604051632770a7eb60e21b81529091506001600160a01b038c1690639dc29fac9061201d9033908d906004016153ca565b602060405180830381600087803b15801561203757600080fd5b505af115801561204b573d6000803e3d6000fd5b505050506040513d601f19601f8201168201806040525081019061206f9190615249565b985060008a6001600160a01b031663ef430aa66040518163ffffffff1660e01b815260040160206040518083038186803b1580156120ac57600080fd5b505afa1580156120c0573d6000803e3d6000fd5b505050506040513d601f19601f820116820180604052508101906120e4919061522a565b60038111156120ef57fe5b1461213c5760006121128261210c8c670de0b6b3a76400006144d0565b9061450a565b905080858560405160200161212993929190615d70565b6040516020818303038152906040529850505b6121be8b8c6001600160a01b031663c06fad066040518163ffffffff1660e01b815260040160006040518083038186803b15801561217957600080fd5b505afa15801561218d573d6000803e3d6000fd5b505050506040513d6000823e601f3d908101601f191682016040526121b59190810190614ef2565b8c600019613a34565b6122408b8c6001600160a01b0316630dca59c16040518163ffffffff1660e01b815260040160006040518083038186803b1580156121fb57600080fd5b505afa15801561220f573d6000803e3d6000fd5b505050506040513d6000823e601f3d908101601f191682016040526122379190810190614ef2565b8c600019613b9a565b6040516312ede2c560e21b81526001600160a01b038b1690634bb78b149061226e908e908c90600401615421565b600060405180830381600087803b15801561228857600080fd5b505af115801561229c573d6000803e3d6000fd5b505050506123218b8c6001600160a01b031663c06fad066040518163ffffffff1660e01b815260040160006040518083038186803b1580156122dd57600080fd5b505afa1580156122f1573d6000803e3d6000fd5b505050506040513d6000823e601f3d908101601f191682016040526123199190810190614ef2565b8c6000613a34565b6123a28b8c6001600160a01b0316630dca59c16040518163ffffffff1660e01b815260040160006040518083038186803b15801561235e57600080fd5b505afa158015612372573d6000803e3d6000fd5b505050506040513d6000823e601f3d908101601f1916820160405261239a9190810190614ef2565b8c6000613b9a565b60006060866001600160a01b031663ff4a19028e6040518263ffffffff1660e01b81526004016123d291906153b6565b60006040518083038186803b1580156123ea57600080fd5b505afa1580156123fe573d6000803e3d6000fd5b505050506040513d6000823e601f3d908101601f191682016040526124269190810190615261565b6001600160a01b038f166000908152600260205260409020805492945090925090612465906103e89061210c908a90600160301b900461ffff166144d0565b8310156124845760405162461bcd60e51b815260040161053990615af6565b506124af6124928784614549565b6124a98561210c8f8b6144d090919063ffffffff16565b90614549565b97506124c68d856124c0858c614549565b8461458b565b866001600160a01b0316633fc8cef36040518163ffffffff1660e01b815260040160206040518083038186803b1580156124ff57600080fd5b505afa158015612513573d6000803e3d6000fd5b505050506040513d601f19601f820116820180604052508101906125379190614d84565b60405163da3e339760e01b81529099506001600160a01b038e169063da3e33979061256a908c9030908d906004016153fd565b600060405180830381600087803b15801561258457600080fd5b505af1158015612598573d6000803e3d6000fd5b505050508c6001600160a01b03167ff279e6a1f5e320cca91135676d9cb6e44ca8a08c0b88342bcdb1144f6511b568898d6040516125d7929190615d62565b60405180910390a25050505050505094509492505050565b610c0e846323b872dd60e01b858585604051602401612610939291906153fd565b60408051601f198184030181529190526020810180516001600160e01b03166001600160e01b031990931692909217909152614601565b806001600160a01b031663a69df4b56040518163ffffffff1660e01b8152600401600060405180830381600087803b158015611e4557600080fd5b6001600160a01b038116600090815260026020526040902054600160581b900460ff16156126c25760405162461bcd60e51b815260040161053990615a3e565b50565b6126cd6115c3565b6001600160a01b031663d8b964e6826040518263ffffffff1660e01b81526004016126f891906153b6565b60206040518083038186803b15801561271057600080fd5b505afa158015612724573d6000803e3d6000fd5b505050506040513d601f19601f82011682018060405250810190612748919061508e565b6126c25760405162461bcd60e51b8152600401610539906158b8565b806001600160a01b031663481c6a756040518163ffffffff1660e01b815260040160206040518083038186803b15801561279d57600080fd5b505afa1580156127b1573d6000803e3d6000fd5b505050506040513d601f19601f820116820180604052508101906127d59190614d84565b6001600160a01b0316336001600160a01b0316146126c25760405162461bcd60e51b8152600401610539906155be565b60008282018381101561282a5760405162461bcd60e51b8152600401610539906156dd565b9392505050565b600061283b6111dc565b905060006060826001600160a01b031663ff4a1902886040518263ffffffff1660e01b815260040161286d91906153b6565b60006040518083038186803b15801561288557600080fd5b505afa158015612899573d6000803e3d6000fd5b505050506040513d6000823e601f3d908101601f191682016040526128c19190810190615261565b915091506060876001600160a01b031663c06fad066040518163ffffffff1660e01b815260040160006040518083038186803b15801561290057600080fd5b505afa158015612914573d6000803e3d6000fd5b505050506040513d6000823e601f3d908101601f1916820160405261293c9190810190614ef2565b90506060886001600160a01b0316630dca59c16040518163ffffffff1660e01b815260040160006040518083038186803b15801561297957600080fd5b505afa15801561298d573d6000803e3d6000fd5b505050506040513d6000823e601f3d908101601f191682016040526129b59190810190614ef2565b90506000886001600160a01b031663ef430aa66040518163ffffffff1660e01b815260040160206040518083038186803b1580156129f257600080fd5b505afa158015612a06573d6000803e3d6000fd5b505050506040513d601f19601f82011682018060405250810190612a2a919061522a565b6003811115612a3557fe5b14612a635783838383604051602001612a519493929190615d23565b60405160208183030381529060405295505b60405163d81076a360e01b81526001600160a01b038a169063d81076a390612a8f908a90600401615470565b600060405180830381600087803b158015612aa957600080fd5b505af1158015612abd573d6000803e3d6000fd5b50505050612acf89838a600019613a34565b612add89828a600019613b9a565b604051630ba11d5d60e41b81526001600160a01b0389169063ba11d5d090612b0b908c908a90600401615421565b600060405180830381600087803b158015612b2557600080fd5b505af1158015612b39573d6000803e3d6000fd5b50505050612b4a89838a6000613a34565b612b5789828a6000613b9a565b600080612b638b6136f2565b509150915081612b855760405162461bcd60e51b815260040161053990615a99565b6001600160a01b038b16600090815260026020526040902054612bbc906103e89061210c908990600160301b900461ffff166144d0565b811015612bdb5760405162461bcd60e51b815260040161053990615af6565b8a6001600160a01b031663dbbc5aca828d6001600160a01b03166318160ddd6040518163ffffffff1660e01b815260040160206040518083038186803b158015612c2457600080fd5b505afa158015612c38573d6000803e3d6000fd5b505050506040513d601f19601f82011682018060405250810190612c5c9190615249565b6040518363ffffffff1660e01b8152600401612c79929190615d62565b600060405180830381600087803b158015612c9357600080fd5b505af1158015612ca7573d6000803e3d6000fd5b505050505050505050505050505050565b600082612cc757506000611b20565b82600019148015612cdb5750600160ff1b82145b15612cf85760405162461bcd60e51b8152600401610539906159d5565b82820282848281612d0557fe5b051461282a5760405162461bcd60e51b8152600401610539906159d5565b600081612d425760405162461bcd60e51b815260040161053990615bd7565b81600019148015612d565750600160ff1b83145b15612d735760405162461bcd60e51b81526004016105399061592c565b6000828481612d7e57fe5b05949350505050565b6103e8816020015161ffff161115612db15760405162461bcd60e51b8152600401610539906155e3565b6103e8816040015161ffff161115612ddb5760405162461bcd60e51b815260040161053990615861565b6103e8816060015161ffff1610612e045760405162461bcd60e51b8152600401610539906157a2565b6001600160a01b03821660008181526001602081815260408084208390556002825292839020855181549287015187860151606089015160808a015160a08b01511515600160581b0260ff60581b19911515600160501b0260ff60501b1961ffff948516600160401b0261ffff60401b19968616600160301b0261ffff60301b1996909816600160201b810261ffff60201b1963ffffffff909b1663ffffffff19909d169c909c17999099169a909a17949094169590951793909316969096171691909117939093169290921790559151909291600080516020615e6983398151915291612ef3918591615537565b60405180910390a360011515826001600160a01b0316600080516020615e698339815191526002846040015161ffff16604051612f31929190615537565b60405180910390a380516040516001916001600160a01b03851691600080516020615e6983398151915291612f6f9160039163ffffffff1690615537565b60405180910390a3806080015115612fc757816001600160a01b03167f8085ee4e361ef6ec216c527bbf67add21b5f2f696f50c443a8c118ca269d15f68260600151604051612fbe9190615cdb565b60405180910390a25b8060a0015115610d00576040516001600160a01b038316907fe70d79dad95c835bdd87e9cf4665651c9e5abb3b756e4fd2bf45f29c95c3aa4090600090a25050565b613012866126c5565b61309487886001600160a01b0316630dca59c16040518163ffffffff1660e01b815260040160006040518083038186803b15801561304f57600080fd5b505afa158015613063573d6000803e3d6000fd5b505050506040513d6000823e601f3d908101601f1916820160405261308b9190810190614ef2565b88600019613b9a565b600061309e6111dc565b905034156132ac573494506000816001600160a01b0316633fc8cef36040518163ffffffff1660e01b815260040160206040518083038186803b1580156130e457600080fd5b505afa1580156130f8573d6000803e3d6000fd5b505050506040513d601f19601f8201168201806040525081019061311c9190614d84565b9050806001600160a01b031663d0e30db0876040518263ffffffff1660e01b81526004016000604051808303818588803b15801561315957600080fd5b505af115801561316d573d6000803e3d6000fd5b50613188935050506001600160a01b03831690508988614690565b6000886001600160a01b031663ef430aa66040518163ffffffff1660e01b815260040160206040518083038186803b1580156131c357600080fd5b505afa1580156131d7573d6000803e3d6000fd5b505050506040513d601f19601f820116820180604052508101906131fb919061522a565b600381111561320657fe5b1461323057308660405160200161321e9291906153ca565b60405160208183030381529060405292505b60405163cf2c52cb60e01b81526001600160a01b0389169063cf2c52cb9061325e908c908790600401615421565b600060405180830381600087803b15801561327857600080fd5b505af115801561328c573d6000803e3d6000fd5b506132a6925050506001600160a01b038216896000614690565b506133b5565b6000876001600160a01b031663ef430aa66040518163ffffffff1660e01b815260040160206040518083038186803b1580156132e757600080fd5b505afa1580156132fb573d6000803e3d6000fd5b505050506040513d601f19601f8201168201806040525081019061331f919061522a565b600381111561332a57fe5b146133545785856040516020016133429291906153ca565b60405160208183030381529060405291505b60405163cf2c52cb60e01b81526001600160a01b0388169063cf2c52cb90613382908b908690600401615421565b600060405180830381600087803b15801561339c57600080fd5b505af11580156133b0573d6000803e3d6000fd5b505050505b61343688896001600160a01b0316630dca59c16040518163ffffffff1660e01b815260040160006040518083038186803b1580156133f257600080fd5b505afa158015613406573d6000803e3d6000fd5b505050506040513d6000823e601f3d908101601f1916820160405261342e9190810190614ef2565b896000613b9a565b60006060826001600160a01b031663ff4a19028b6040518263ffffffff1660e01b815260040161346691906153b6565b60006040518083038186803b15801561347e57600080fd5b505afa158015613492573d6000803e3d6000fd5b505050506040513d6000823e601f3d908101601f191682016040526134ba9190810190615261565b915091508582116134dd5760405162461bcd60e51b815260040161053990615712565b6134e98a86848461458b565b6001600160a01b038a1660009081526002602052604090205486830390613524906103e89061210c908b90600160301b900461ffff166144d0565b8110156135435760405162461bcd60e51b815260040161053990615af6565b60008b6001600160a01b03166318160ddd6040518163ffffffff1660e01b815260040160206040518083038186803b15801561357e57600080fd5b505afa158015613592573d6000803e3d6000fd5b505050506040513d601f19601f820116820180604052508101906135b69190615249565b905060008082116135c757846135d5565b6135d58961210c84866144d0565b90506001600160a01b038d1663dbbc5aca866135f18585612805565b6040518363ffffffff1660e01b815260040161360e929190615d62565b600060405180830381600087803b15801561362857600080fd5b505af115801561363c573d6000803e3d6000fd5b505050508c6001600160a01b03166340c10f198c836040518363ffffffff1660e01b815260040161366e9291906153ca565b600060405180830381600087803b15801561368857600080fd5b505af115801561369c573d6000803e3d6000fd5b505050508c6001600160a01b03167f90890809c654f11d6e72a28fa60149770a0d11ec6c92319d6ceb2bb0a4ea1a158b836040516136db929190615d62565b60405180910390a250505050505050505050505050565b6000806060600060606137036111dc565b6001600160a01b031663ff4a1902876040518263ffffffff1660e01b815260040161372e91906153b6565b60006040518083038186803b15801561374657600080fd5b505afa15801561375a573d6000803e3d6000fd5b505050506040513d6000823e601f3d908101601f191682016040526137829190810190615261565b6001600160a01b038816600081815260026020526040808220548151636037d68360e11b81529151959750939550600160201b90930461ffff16936001936060939263c06fad0692600480840193829003018186803b1580156137e457600080fd5b505afa1580156137f8573d6000803e3d6000fd5b505050506040513d6000823e601f3d908101601f191682016040526138209190810190614ef2565b905060005b815181101561390357600061384e878c85858151811061384157fe5b6020026020010151614753565b905060008113156138cb57600061386582876147fc565b90506138718282614120565b87848151811061387d57fe5b6020026020010151131561389657600094505050613903565b6138a0828261481b565b8784815181106138ac57fe5b602002602001015112156138c557600094505050613903565b506138fa565b6138d68760016147fc565b8683815181106138e257fe5b602002602001015113156138fa576000935050613903565b50600101613825565b508115613a25576060896001600160a01b0316630dca59c16040518163ffffffff1660e01b815260040160006040518083038186803b15801561394557600080fd5b505afa158015613959573d6000803e3d6000fd5b505050506040513d6000823e601f3d908101601f191682016040526139819190810190614ef2565b905060005b8151811015613a225760006139a2888d85858151811061384157fe5b905060006139b082886147fc565b855190915083016139c18383614120565b8982815181106139cd57fe5b602002602001015112156139e75760009650505050613a22565b6139f1838361481b565b8982815181106139fd57fe5b60200260200101511315613a175760009650505050613a22565b505050600101613986565b50505b50979296509094509092505050565b836001600160a01b031663da3e3397613a4b6111dc565b6001600160a01b0316633fc8cef36040518163ffffffff1660e01b815260040160206040518083038186803b158015613a8357600080fd5b505afa158015613a97573d6000803e3d6000fd5b505050506040513d601f19601f82011682018060405250810190613abb9190614d84565b84846040518463ffffffff1660e01b8152600401613adb939291906153fd565b600060405180830381600087803b158015613af557600080fd5b505af1158015613b09573d6000803e3d6000fd5b5050505060005b8351811015611e5957846001600160a01b031663da3e3397858381518110613b3457fe5b602002602001015185856040518463ffffffff1660e01b8152600401613b5c939291906153fd565b600060405180830381600087803b158015613b7657600080fd5b505af1158015613b8a573d6000803e3d6000fd5b505060019092019150613b109050565b836001600160a01b031663494089496040518163ffffffff1660e01b815260040160206040518083038186803b158015613bd357600080fd5b505afa158015613be7573d6000803e3d6000fd5b505050506040513d601f19601f82011682018060405250810190613c0b919061508e565b15613c715760405163bfba814160e01b81526001600160a01b0385169063bfba814190613c3e90859085906004016153ca565b600060405180830381600087803b158015613c5857600080fd5b505af1158015613c6c573d6000803e3d6000fd5b505050505b60005b8351811015611e5957846001600160a01b031663d95a24b3858381518110613c9857fe5b602002602001015185856040518463ffffffff1660e01b8152600401613cc0939291906153fd565b600060405180830381600087803b158015613cda57600080fd5b505af1158015613cee573d6000803e3d6000fd5b505060019092019150613c749050565b60405163750f53af60e11b81526000906001600160a01b0385169063ea1ea75e90613d2f9088908690600401615421565b600060405180830381600087803b158015613d4957600080fd5b505af1158015613d5d573d6000803e3d6000fd5b50505050600080613d6d876136f2565b509150915081613d8f5760405162461bcd60e51b815260040161053990615a99565b6001600160a01b038716600090815260026020526040902054613dc6906103e89061210c908890600160301b900461ffff166144d0565b811015613de55760405162461bcd60e51b815260040161053990615af6565b866001600160a01b031663dbbc5aca82896001600160a01b03166318160ddd6040518163ffffffff1660e01b815260040160206040518083038186803b158015613e2e57600080fd5b505afa158015613e42573d6000803e3d6000fd5b505050506040513d601f19601f82011682018060405250810190613e669190615249565b6040518363ffffffff1660e01b8152600401613e83929190615d62565b600060405180830381600087803b158015613e9d57600080fd5b505af1158015613eb1573d6000803e3d6000fd5b50505050866001600160a01b03167f49ea205ace8631ccccc837ba5692ac9a2570ddfe3129bfb36c33fbbcb4fa74d18233604051613ef0929190615cf3565b60405180910390a29695505050505050565b303b1590565b826001600160a01b0316826001600160a01b03161415613f3a5760405162461bcd60e51b815260040161053990615cb0565b816001600160a01b031663494089496040518163ffffffff1660e01b815260040160206040518083038186803b158015613f7357600080fd5b505afa158015613f87573d6000803e3d6000fd5b505050506040513d601f19601f82011682018060405250810190613fab919061508e565b15613fc85760405162461bcd60e51b815260040161053990615562565b6060826001600160a01b031663c06fad066040518163ffffffff1660e01b815260040160006040518083038186803b15801561400357600080fd5b505afa158015614017573d6000803e3d6000fd5b505050506040513d6000823e601f3d908101601f1916820160405261403f9190810190614ef2565b905060005b8151811015611e59576004836001600160a01b03166346a7483784848151811061406a57fe5b60200260200101516040518263ffffffff1660e01b815260040161408e91906153b6565b60206040518083038186803b1580156140a657600080fd5b505afa1580156140ba573d6000803e3d6000fd5b505050506040513d601f19601f820116820180604052508101906140de9190615249565b60118111156140e957fe5b60118111156140f457fe5b1415614118576141188583838151811061410a57fe5b602002602001015185613f08565b600101614044565b60008282018183128015906141355750838112155b8061414a575060008312801561414a57508381125b61282a5760405162461bcd60e51b815260040161053990615761565b806001600160a01b031663481c6a756040518163ffffffff1660e01b815260040160206040518083038186803b15801561419f57600080fd5b505afa1580156141b3573d6000803e3d6000fd5b505050506040513d601f19601f820116820180604052508101906141d79190614d84565b6001600160a01b0316336001600160a01b0316148061421557506001600160a01b038116600090815260026020526040902054600160501b900460ff165b6126c25760405162461bcd60e51b8152600401610539906155be565b6000826142405750600061282a565b60006060856001600160a01b031663c06fad066040518163ffffffff1660e01b815260040160006040518083038186803b15801561427d57600080fd5b505afa158015614291573d6000803e3d6000fd5b505050506040513d6000823e601f3d908101601f191682016040526142b99190810190614ef2565b905060005b815181101561437e5760006142da878985858151811061384157fe5b9050808683815181106142e957fe5b6020026020010151131561432e576143276143208288858151811061430a57fe5b602002602001015161481b90919063ffffffff16565b8590612805565b9350614375565b8086838151811061433b57fe5b602002602001015112156143755761437261432087848151811061435b57fe5b60200260200101518361481b90919063ffffffff16565b93505b506001016142be565b506060866001600160a01b0316630dca59c16040518163ffffffff1660e01b815260040160006040518083038186803b1580156143ba57600080fd5b505afa1580156143ce573d6000803e3d6000fd5b505050506040513d6000823e601f3d908101601f191682016040526143f69190810190614ef2565b905060005b81518110156144ae576000614417888a85858151811061384157fe5b905060008285510190508188828151811061442e57fe5b6020026020010151131561445d5761445661444f838a848151811061430a57fe5b8790612805565b95506144a4565b8188828151811061446a57fe5b602002602001015112156144a4576144a161444f89838151811061448a57fe5b60200260200101518461481b90919063ffffffff16565b95505b50506001016143fb565b506144c58661210c85670de0b6b3a76400006144d0565b979650505050505050565b6000826144df57506000611b20565b828202828482816144ec57fe5b041461282a5760405162461bcd60e51b815260040161053990615994565b600061282a83836040518060400160405280601a815260200179536166654d6174683a206469766973696f6e206279207a65726f60301b815250614861565b600061282a83836040518060400160405280601e81526020017f536166654d6174683a207375627472616374696f6e206f766572666c6f770000815250614898565b6000614598858484614231565b6001600160a01b0386166000908152600260205260409020549091506145da906103e89061210c90670de0b6b3a764000090600160201b900461ffff166144d0565b811115611e595783811115611e595760405162461bcd60e51b815260040161053990615632565b6060614656826040518060400160405280602081526020017f5361666545524332303a206c6f772d6c6576656c2063616c6c206661696c6564815250856001600160a01b03166148c49092919063ffffffff16565b8051909150156110ef5780806020019051810190614674919061508e565b6110ef5760405162461bcd60e51b815260040161053990615b8d565b8015806147185750604051636eb1769f60e11b81526001600160a01b0384169063dd62ed3e906146c690309086906004016153e3565b60206040518083038186803b1580156146de57600080fd5b505afa1580156146f2573d6000803e3d6000fd5b505050506040513d601f19601f820116820180604052508101906147169190615249565b155b6147345760405162461bcd60e51b815260040161053990615c31565b6110ef8363095ea7b360e01b84846040516024016126109291906153ca565b600080836001600160a01b0316633ebbc9c4846040518263ffffffff1660e01b815260040161478291906153b6565b60206040518083038186803b15801561479a57600080fd5b505afa1580156147ae573d6000803e3d6000fd5b505050506040513d601f19601f820116820180604052508101906147d29190615249565b9050806147e357600091505061282a565b6147f36103e8610b6c8784612cb8565b95945050505050565b60008161480b57506000611b20565b61282a6103e8610b6c8585612cb8565b60008183038183128015906148305750838113155b80614845575060008312801561484557508381135b61282a5760405162461bcd60e51b815260040161053990615b49565b600081836148825760405162461bcd60e51b8152600401610539919061554f565b50600083858161488e57fe5b0495945050505050565b600081848411156148bc5760405162461bcd60e51b8152600401610539919061554f565b505050900390565b60606148d384846000856148db565b949350505050565b6060824710156148fd5760405162461bcd60e51b81526004016105399061581b565b61490685614991565b6149225760405162461bcd60e51b815260040161053990615abf565b60006060866001600160a01b0316858760405161493f919061539a565b60006040518083038185875af1925050503d806000811461497c576040519150601f19603f3d011682016040523d82523d6000602084013e614981565b606091505b50915091506144c5828286614997565b3b151590565b606083156149a657508161282a565b8251156149b65782518084602001fd5b8160405162461bcd60e51b8152600401610539919061554f565b50805460018160011615610100020316600290046000825580601f106149f657506126c2565b601f0160209004906000526020600020908101906126c29190614a92565b828054600181600116156101000203166002900490600052602060002090601f016020900481019282601f10614a5557805160ff1916838001178555614a82565b82800160010185558215614a82579182015b82811115614a82578251825591602001919060010190614a67565b50614a8e929150614a92565b5090565b5b80821115614a8e5760008155600101614a93565b8035611b2081615e23565b600082601f830112614ac2578081fd5b8135614ad5614ad082615db5565b615d8f565b818152915060208083019084810181840286018201871015614af657600080fd5b60005b84811015614b1e578135614b0c81615e23565b84529282019290820190600101614af9565b505050505092915050565b600082601f830112614b39578081fd5b8151614b47614ad082615db5565b818152915060208083019084810181840286018201871015614b6857600080fd5b60005b84811015614b1e578151614b7e81615e23565b84529282019290820190600101614b6b565b600082601f830112614ba0578081fd5b8135614bae614ad082615db5565b818152915060208083019084810160005b84811015614b1e5781358701601f196060828b0382011215614be057600080fd5b614bea6060615d8f565b85830135614bf781615e23565b815260408301358682015260608301356001600160401b0380821115614c1c57600080fd5b938101936060858e0385011215614c3257600080fd5b614c3c6060615d8f565b935087850135915080821115614c5157600080fd5b614c5f8d8984880101614ab2565b84526040850135915080821115614c7557600080fd5b614c838d8984880101614ab2565b888501526060850135915080821115614c9b57600080fd5b50614caa8c8883870101614ccd565b604084810191909152820192909252865250509282019290820190600101614bbf565b600082601f830112614cdd578081fd5b8135614ceb614ad082615dd4565b9150808252836020828501011115614d0257600080fd5b8060208401602084013760009082016020015292915050565b600082601f830112614d2b578081fd5b8151614d39614ad082615dd4565b9150808252836020828501011115614d5057600080fd5b614d61816020840160208601615df7565b5092915050565b600060208284031215614d79578081fd5b813561282a81615e23565b600060208284031215614d95578081fd5b815161282a81615e23565b6000806000806000858703610140811215614db9578182fd5b8635614dc481615e23565b95506020870135614dd481615e23565b945060c0603f1982011215614de7578182fd5b50614df260c0615d8f565b6040870135614e0081615e56565b81526060870135614e1081615e46565b60208201526080870135614e2381615e46565b604082015260a0870135614e3681615e46565b606082015260c0870135614e4981615e38565b608082015260e0870135614e5c81615e38565b60a08201529250614e71876101008801614aa7565b91506101208601356001600160401b03811115614e8c578182fd5b614e9888828901614ccd565b9150509295509295909350565b60008060408385031215614eb7578182fd5b8235614ec281615e23565b915060208301356001600160401b03811115614edc578182fd5b614ee885828601614b90565b9150509250929050565b600060208284031215614f03578081fd5b81516001600160401b03811115614f18578182fd5b6148d384828501614b29565b600060208284031215614f35578081fd5b81516001600160401b0380821115614f4b578283fd5b818401915084601f830112614f5e578283fd5b8151614f6c614ad082615db5565b818152602080820191908501865b848110156150805781518701601f196060828d0382011215614f9a57898afd5b614fa46060615d8f565b6020830151614fb281615e23565b815260408301516020820152606083015189811115614fcf578b8cfd5b92909201916060838e0383011215614fe5578a8bfd5b614fef6060615d8f565b9150602083015189811115615002578b8cfd5b6150118e602083870101614b29565b835250604083015189811115615025578b8cfd5b6150348e602083870101614b29565b60208401525060608301518981111561504b578b8cfd5b61505a8e602083870101614d1b565b604084810191909152820192909252865250506020938401939190910190600101614f7a565b509098975050505050505050565b60006020828403121561509f578081fd5b815161282a81615e38565b6000806000606084860312156150be578081fd5b83356150c981615e23565b925060208401356150d981615e23565b915060408401356150e981615e23565b809150509250925092565b600080600060608486031215615108578081fd5b833561511381615e23565b9250602084013561512381615e23565b915060408401356001600160401b0381111561513d578182fd5b61514986828701614ccd565b9150509250925092565b60008060008060808587031215615168578182fd5b843561517381615e23565b9350602085013561518381615e23565b92506040850135915060608501356001600160401b038111156151a4578182fd5b6151b087828801614ccd565b91505092959194509250565b6000806000606084860312156151d0578081fd5b83356151db81615e23565b92506020840135600581106151ee578182fd5b929592945050506040919091013590565b60008060408385031215615211578182fd5b823561521c81615e23565b946020939093013593505050565b60006020828403121561523b578081fd5b81516004811061282a578182fd5b60006020828403121561525a578081fd5b5051919050565b60008060408385031215615273578182fd5b825191506020808401516001600160401b03811115615290578283fd5b8401601f810186136152a0578283fd5b80516152ae614ad082615db5565b81815283810190838501858402850186018a10156152ca578687fd5b8694505b838510156152ec5780518352600194909401939185019185016152ce565b5080955050505050509250929050565b6000815180845260208085019450808401835b838110156153345781516001600160a01b03168752958201959082019060010161530f565b509495945050505050565b6000815180845260208085019450808401835b8381101561533457815187529582019590820190600101615352565b60008151808452615386816020860160208601615df7565b601f01601f19169290920160200192915050565b600082516153ac818460208701615df7565b9190910192915050565b6001600160a01b0391909116815260200190565b6001600160a01b03929092168252602082015260400190565b6001600160a01b0392831681529116602082015260400190565b6001600160a01b039384168152919092166020820152604081019190915260600190565b6001600160a01b03831681526040602082018190526000906148d39083018461536e565b6001600160a01b03948516815260208101939093529083166040830152909116606082015260800190565b60208082528251828201819052600091906040908185019080840286018301878501865b8381101561508057888303603f19018552815180516001600160a01b031684528781015188850152860151606087850181905281518186018290526154dc60c08701826152fc565b91505088820151605f19808784030160808801526154fa83836152fc565b9250898401519350808784030160a08801525050615518818361536e565b968901969450505090860190600101615494565b901515815260200190565b604081016005841061554557fe5b9281526020015290565b60006020825261282a602083018461536e565b60208082526014908201527314de5b9d1a1cc81b9bdd081cdd5c1c1bdc9d195960621b604082015260600190565b60208082526014908201527314dd1c985d1959de48185b1c9958591e481cd95d60621b604082015260600190565b6020808252600b908201526a2737ba1036b0b730b3b2b960a91b604082015260600190565b6020808252600e908201526d0a8d0e4cae6d0ded8c840d0d2ced60931b604082015260600190565b6020808252600d908201526c4974656d206f72646572696e6760981b604082015260600190565b6020808252600c908201526b4c6f73742062616c616e636560a01b604082015260600190565b6020808252601a908201527943616e6e6f742073657420656d7074792073747275637475726560301b604082015260600190565b60208082526008908201526710985b185b98d95960c21b604082015260600190565b60208082526015908201527429ba3930ba32b3bc9030b63932b0b23c9037b832b760591b604082015260600190565b6020808252601b908201527a536166654d6174683a206164646974696f6e206f766572666c6f7760281b604082015260600190565b6020808252600a90820152694c6f73742076616c756560b01b604082015260600190565b6020808252601190820152702ab739bab83837b93a32b2103a37b5b2b760791b604082015260600190565b60208082526021908201527f5369676e6564536166654d6174683a206164646974696f6e206f766572666c6f6040820152607760f81b606082015260800190565b6020808252600c908201526b08ccaca40e8dede40d0d2ced60a31b604082015260600190565b6020808252600e908201526d0acc2d8eaca40e8dede40d0d2ced60931b604082015260600190565b60208082526011908201527024b73b30b634b21034ba32b69030b2323960791b604082015260600190565b60208082526026908201527f416464726573733a20696e73756666696369656e742062616c616e636520666f6040820152651c8818d85b1b60d21b606082015260800190565b6020808252600d908201526c0a6d8d2e0e0c2ceca40d0d2ced609b1b604082015260600190565b602080825260169082015275546f74616c2070657263656e746167652077726f6e6760501b604082015260600190565b6020808252600c908201526b139bdd08185c1c1c9bdd995960a21b604082015260600190565b6020808252602e908201527f496e697469616c697a61626c653a20636f6e747261637420697320616c72656160408201526d191e481a5b9a5d1a585b1a5e995960921b606082015260800190565b60208082526021908201527f5369676e6564536166654d6174683a206469766973696f6e206f766572666c6f6040820152607760f81b606082015260800190565b6020808252600d908201526c151bdad95b88189b1bd8dad959609a1b604082015260600190565b60208082526021908201527f536166654d6174683a206d756c7469706c69636174696f6e206f766572666c6f6040820152607760f81b606082015260800190565b60208082526027908201527f5369676e6564536166654d6174683a206d756c7469706c69636174696f6e206f604082015266766572666c6f7760c81b606082015260800190565b6020808252600890820152670c08185b5bdd5b9d60c21b604082015260600190565b60208082526016908201527553747261746567792063616e6e6f74206368616e676560501b604082015260600190565b602080825260119082015270496e76616c69642073747275637475726560781b604082015260600190565b6020808252600c908201526b139bdd0818985b185b98d95960a21b604082015260600190565b6020808252601d908201527f416464726573733a2063616c6c20746f206e6f6e2d636f6e7472616374000000604082015260600190565b602080825260119082015270546f6f206d75636820736c69707061676560781b604082015260600190565b6020808252600e908201526d57726f6e672063617465676f727960901b604082015260600190565b60208082526024908201527f5369676e6564536166654d6174683a207375627472616374696f6e206f766572604082015263666c6f7760e01b606082015260800190565b6020808252602a908201527f5361666545524332303a204552433230206f7065726174696f6e20646964206e6040820152691bdd081cdd58d8d9595960b21b606082015260800190565b6020808252818101527f5369676e6564536166654d6174683a206469766973696f6e206279207a65726f604082015260600190565b6020808252600b908201526a4e6f7420666163746f727960a81b604082015260600190565b60208082526036908201527f5361666545524332303a20617070726f76652066726f6d206e6f6e2d7a65726f60408201527520746f206e6f6e2d7a65726f20616c6c6f77616e636560501b606082015260800190565b6020808252600f908201526e54696d656c6f636b2061637469766560881b604082015260600190565b6020808252601190820152704379636c696320646570656e64656e637960781b604082015260600190565b61ffff91909116815260200190565b90815260200190565b9182526001600160a01b0316602082015260400190565b6000838252604060208301526148d3604083018461533f565b600085825260806020830152615d3c608083018661533f565b8281036040840152615d4e81866152fc565b905082810360608401526144c581856152fc565b918252602082015260400190565b6000848252836020830152606060408301526147f3606083018461533f565b6040518181016001600160401b0381118282101715615dad57600080fd5b604052919050565b60006001600160401b03821115615dca578081fd5b5060209081020190565b60006001600160401b03821115615de9578081fd5b50601f01601f191660200190565b60005b83811015615e12578181015183820152602001615dfa565b83811115610c0e5750506000910152565b6001600160a01b03811681146126c257600080fd5b80151581146126c257600080fd5b61ffff811681146126c257600080fd5b63ffffffff811681146126c257600080fdfee561303783ad8b123bd33a60f112811cc154edb919a15aa8040c6200c7709d5ba2646970667358221220e4a425673c273ea3706179eff38b083e634931dc1c2cfbe81c45e50fd612e9b264736f6c634300060c0033",
  "linkReferences": {},
  "deployedLinkReferences": {}
}