{
  "_format": "hh-sol-artifact-1",
  "contractName": "StrategyProxyFactory",
  "sourceName": "contracts/StrategyProxyFactory.sol",
  "abi": [
    {
      "inputs": [],
      "stateMutability": "nonpayable",
      "type": "constructor"
    },
    {
      "anonymous": false,
      "inputs": [
        {
          "indexed": false,
          "internalType": "address",
          "name": "newOracle",
          "type": "address"
        }
      ],
      "name": "NewOracle",
      "type": "event"
    },
    {
      "anonymous": false,
      "inputs": [
        {
          "indexed": false,
          "internalType": "address",
          "name": "newPool",
          "type": "address"
        }
      ],
      "name": "NewPool",
      "type": "event"
    },
    {
      "anonymous": false,
      "inputs": [
        {
          "indexed": false,
          "internalType": "address",
          "name": "strategy",
          "type": "address"
        },
        {
          "indexed": false,
          "internalType": "address",
          "name": "manager",
          "type": "address"
        },
        {
          "indexed": false,
          "internalType": "string",
          "name": "name",
          "type": "string"
        },
        {
          "indexed": false,
          "internalType": "string",
          "name": "symbol",
          "type": "string"
        },
        {
          "components": [
            {
              "internalType": "address",
              "name": "item",
              "type": "address"
            },
            {
              "internalType": "int256",
              "name": "percentage",
              "type": "int256"
            },
            {
              "components": [
                {
                  "internalType": "address[]",
                  "name": "adapters",
                  "type": "address[]"
                },
                {
                  "internalType": "address[]",
                  "name": "path",
                  "type": "address[]"
                },
                {
                  "internalType": "bytes",
                  "name": "cache",
                  "type": "bytes"
                }
              ],
              "internalType": "struct StrategyTypes.TradeData",
              "name": "data",
              "type": "tuple"
            }
          ],
          "indexed": false,
          "internalType": "struct StrategyTypes.StrategyItem[]",
          "name": "items",
          "type": "tuple[]"
        }
      ],
      "name": "NewStrategy",
      "type": "event"
    },
    {
      "anonymous": false,
      "inputs": [
        {
          "indexed": false,
          "internalType": "address",
          "name": "newWhitelist",
          "type": "address"
        }
      ],
      "name": "NewWhitelist",
      "type": "event"
    },
    {
      "anonymous": false,
      "inputs": [
        {
          "indexed": true,
          "internalType": "address",
          "name": "previousOwner",
          "type": "address"
        },
        {
          "indexed": true,
          "internalType": "address",
          "name": "newOwner",
          "type": "address"
        }
      ],
      "name": "OwnershipTransferred",
      "type": "event"
    },
    {
      "anonymous": false,
      "inputs": [
        {
          "indexed": false,
          "internalType": "address",
          "name": "newImplementation",
          "type": "address"
        },
        {
          "indexed": false,
          "internalType": "string",
          "name": "version",
          "type": "string"
        }
      ],
      "name": "Update",
      "type": "event"
    },
    {
      "inputs": [],
      "name": "ZERO_ADDRESS",
      "outputs": [
        {
          "internalType": "string",
          "name": "",
          "type": "string"
        }
      ],
      "stateMutability": "view",
      "type": "function"
    },
    {
      "inputs": [
        {
          "internalType": "uint256",
          "name": "estimatorCategoryIndex",
          "type": "uint256"
        },
        {
          "internalType": "address",
          "name": "estimator",
          "type": "address"
        }
      ],
      "name": "addEstimatorToRegistry",
      "outputs": [],
      "stateMutability": "nonpayable",
      "type": "function"
    },
    {
      "inputs": [
        {
          "internalType": "uint256",
          "name": "itemCategoryIndex",
          "type": "uint256"
        },
        {
          "internalType": "uint256",
          "name": "estimatorCategoryIndex",
          "type": "uint256"
        },
        {
          "internalType": "address",
          "name": "token",
          "type": "address"
        }
      ],
      "name": "addItemToRegistry",
      "outputs": [],
      "stateMutability": "nonpayable",
      "type": "function"
    },
    {
      "inputs": [],
      "name": "admin",
      "outputs": [
        {
          "internalType": "address",
          "name": "",
          "type": "address"
        }
      ],
      "stateMutability": "view",
      "type": "function"
    },
    {
      "inputs": [],
      "name": "controller",
      "outputs": [
        {
          "internalType": "address",
          "name": "",
          "type": "address"
        }
      ],
      "stateMutability": "view",
      "type": "function"
    },
    {
      "inputs": [
        {
          "internalType": "address",
          "name": "manager",
          "type": "address"
        },
        {
          "internalType": "string",
          "name": "name",
          "type": "string"
        },
        {
          "internalType": "string",
          "name": "symbol",
          "type": "string"
        },
        {
          "components": [
            {
              "internalType": "address",
              "name": "item",
              "type": "address"
            },
            {
              "internalType": "int256",
              "name": "percentage",
              "type": "int256"
            },
            {
              "components": [
                {
                  "internalType": "address[]",
                  "name": "adapters",
                  "type": "address[]"
                },
                {
                  "internalType": "address[]",
                  "name": "path",
                  "type": "address[]"
                },
                {
                  "internalType": "bytes",
                  "name": "cache",
                  "type": "bytes"
                }
              ],
              "internalType": "struct StrategyTypes.TradeData",
              "name": "data",
              "type": "tuple"
            }
          ],
          "internalType": "struct StrategyTypes.StrategyItem[]",
          "name": "strategyItems",
          "type": "tuple[]"
        },
        {
          "components": [
            {
              "internalType": "uint32",
              "name": "timelock",
              "type": "uint32"
            },
            {
              "internalType": "uint16",
              "name": "rebalanceThreshold",
              "type": "uint16"
            },
            {
              "internalType": "uint16",
              "name": "slippage",
              "type": "uint16"
            },
            {
              "internalType": "uint16",
              "name": "performanceFee",
              "type": "uint16"
            },
            {
              "internalType": "bool",
              "name": "social",
              "type": "bool"
            },
            {
              "internalType": "bool",
              "name": "set",
              "type": "bool"
            }
          ],
          "internalType": "struct StrategyTypes.StrategyState",
          "name": "strategyState",
          "type": "tuple"
        },
        {
          "internalType": "address",
          "name": "router",
          "type": "address"
        },
        {
          "internalType": "bytes",
          "name": "data",
          "type": "bytes"
        }
      ],
      "name": "createStrategy",
      "outputs": [
        {
          "internalType": "address",
          "name": "",
          "type": "address"
        }
      ],
      "stateMutability": "payable",
      "type": "function"
    },
    {
      "inputs": [
        {
          "internalType": "address",
          "name": "proxy",
          "type": "address"
        }
      ],
      "name": "getManager",
      "outputs": [
        {
          "internalType": "address",
          "name": "",
          "type": "address"
        }
      ],
      "stateMutability": "view",
      "type": "function"
    },
    {
      "inputs": [],
      "name": "implementation",
      "outputs": [
        {
          "internalType": "address",
          "name": "",
          "type": "address"
        }
      ],
      "stateMutability": "view",
      "type": "function"
    },
    {
      "inputs": [
        {
          "internalType": "address",
          "name": "owner_",
          "type": "address"
        },
        {
          "internalType": "address",
          "name": "implementation_",
          "type": "address"
        },
        {
          "internalType": "address",
          "name": "oracle_",
          "type": "address"
        },
        {
          "internalType": "address",
          "name": "registry_",
          "type": "address"
        },
        {
          "internalType": "address",
          "name": "whitelist_",
          "type": "address"
        },
        {
          "internalType": "address",
          "name": "pool_",
          "type": "address"
        }
      ],
      "name": "initialize",
      "outputs": [
        {
          "internalType": "bool",
          "name": "",
          "type": "bool"
        }
      ],
      "stateMutability": "nonpayable",
      "type": "function"
    },
    {
      "inputs": [],
      "name": "oracle",
      "outputs": [
        {
          "internalType": "address",
          "name": "",
          "type": "address"
        }
      ],
      "stateMutability": "view",
      "type": "function"
    },
    {
      "inputs": [],
      "name": "owner",
      "outputs": [
        {
          "internalType": "address",
          "name": "",
          "type": "address"
        }
      ],
      "stateMutability": "view",
      "type": "function"
    },
    {
      "inputs": [
        {
          "internalType": "string",
          "name": "_value",
          "type": "string"
        }
      ],
      "name": "parseInt",
      "outputs": [
        {
          "internalType": "uint256",
          "name": "_ret",
          "type": "uint256"
        }
      ],
      "stateMutability": "pure",
      "type": "function"
    },
    {
      "inputs": [],
      "name": "pool",
      "outputs": [
        {
          "internalType": "address",
          "name": "",
          "type": "address"
        }
      ],
      "stateMutability": "view",
      "type": "function"
    },
    {
      "inputs": [],
      "name": "renounceOwnership",
      "outputs": [],
      "stateMutability": "nonpayable",
      "type": "function"
    },
    {
      "inputs": [
        {
          "internalType": "address",
          "name": "manager",
          "type": "address"
        },
        {
          "internalType": "string",
          "name": "name",
          "type": "string"
        },
        {
          "internalType": "string",
          "name": "symbol",
          "type": "string"
        }
      ],
      "name": "salt",
      "outputs": [
        {
          "internalType": "bytes32",
          "name": "",
          "type": "bytes32"
        }
      ],
      "stateMutability": "pure",
      "type": "function"
    },
    {
      "inputs": [
        {
          "internalType": "address",
          "name": "newController",
          "type": "address"
        }
      ],
      "name": "setController",
      "outputs": [],
      "stateMutability": "nonpayable",
      "type": "function"
    },
    {
      "inputs": [
        {
          "internalType": "address",
          "name": "newOwner",
          "type": "address"
        }
      ],
      "name": "transferOwnership",
      "outputs": [],
      "stateMutability": "nonpayable",
      "type": "function"
    },
    {
      "inputs": [
        {
          "internalType": "address",
          "name": "newImplementation",
          "type": "address"
        },
        {
          "internalType": "string",
          "name": "newVersion",
          "type": "string"
        }
      ],
      "name": "updateImplementation",
      "outputs": [],
      "stateMutability": "nonpayable",
      "type": "function"
    },
    {
      "inputs": [
        {
          "internalType": "address",
          "name": "newOracle",
          "type": "address"
        }
      ],
      "name": "updateOracle",
      "outputs": [],
      "stateMutability": "nonpayable",
      "type": "function"
    },
    {
      "inputs": [
        {
          "internalType": "address",
          "name": "newPool",
          "type": "address"
        }
      ],
      "name": "updatePool",
      "outputs": [],
      "stateMutability": "nonpayable",
      "type": "function"
    },
    {
      "inputs": [
        {
          "internalType": "address",
          "name": "proxy",
          "type": "address"
        }
      ],
      "name": "updateProxyVersion",
      "outputs": [],
      "stateMutability": "nonpayable",
      "type": "function"
    },
    {
      "inputs": [
        {
          "internalType": "address",
          "name": "newWhitelist",
          "type": "address"
        }
      ],
      "name": "updateWhitelist",
      "outputs": [],
      "stateMutability": "nonpayable",
      "type": "function"
    },
    {
      "inputs": [],
      "name": "version",
      "outputs": [
        {
          "internalType": "string",
          "name": "",
          "type": "string"
        }
      ],
      "stateMutability": "view",
      "type": "function"
    },
    {
      "inputs": [],
      "name": "whitelist",
      "outputs": [
        {
          "internalType": "address",
          "name": "",
          "type": "address"
        }
      ],
      "stateMutability": "view",
      "type": "function"
    }
  ],
  "bytecode": "0x60806040523480156200001157600080fd5b50600954610100900460ff16806200002e57506200002e620000c0565b806200003d575060095460ff16155b6200007a5760405162461bcd60e51b815260040180806020018281038252602e81526020018062003558602e913960400191505060405180910390fd5b600954610100900460ff16158015620000a6576009805460ff1961ff0019909116610100171660011790555b8015620000b9576009805461ff00191690555b50620000c6565b303b1590565b61348280620000d66000396000f3fe608060405260043610620001345760003560e01c806316f0115b14620001395780631963282d14620001695780631cb44dfc14620001905780632a954d6d14620001b55780633d0f963e14620001e95780633d584063146200020e57806342346c5e1462000233578063538ba4f9146200025857806354fd4d50146200027f5780635c60da1b14620002975780636710951614620002af578063715018a614620002d45780637b46c54f14620002ec5780637dc0d1d014620003115780638da5cb5b146200032957806390a2702c146200034157806392eefe9b146200036657806393e59dc1146200038b578063cc2a9a5b14620003a3578063de2faffe14620003d7578063f03633f514620003ee578063f2fde38b1462000413578063f77c47911462000438578063f851a4401462000450575b600080fd5b3480156200014657600080fd5b506200015162000468565b60405162000160919062002280565b60405180910390f35b3480156200017657600080fd5b506200018e6200018836600462001dd8565b62000477565b005b3480156200019d57600080fd5b506200018e620001af36600462001d05565b620006a3565b348015620001c257600080fd5b50620001da620001d436600462001e2b565b620007a7565b604051620001609190620023e2565b348015620001f657600080fd5b506200018e6200020836600462001d05565b620007df565b3480156200021b57600080fd5b50620001516200022d36600462001d05565b620008d7565b3480156200024057600080fd5b50620001da6200025236600462001fb5565b62000956565b3480156200026557600080fd5b506200027062000a30565b604051620001609190620023eb565b3480156200028c57600080fd5b506200027062000a58565b348015620002a457600080fd5b506200015162000af2565b348015620002bc57600080fd5b506200018e620002ce36600462001ff3565b62000b01565b348015620002e157600080fd5b506200018e62000b9a565b348015620002f957600080fd5b506200018e6200030b36600462001d05565b62000c00565b3480156200031e57600080fd5b506200015162000cf8565b3480156200033657600080fd5b506200015162000d07565b3480156200034e57600080fd5b506200018e6200036036600462002025565b62000d16565b3480156200037357600080fd5b506200018e6200038536600462001d05565b62000d55565b3480156200039857600080fd5b506200015162000e4f565b348015620003b057600080fd5b50620003c8620003c236600462001d4a565b62000e5e565b604051620001609190620023d7565b62000151620003e836600462001ea6565b620014d3565b348015620003fb57600080fd5b506200018e6200040d36600462001d05565b62001542565b3480156200042057600080fd5b506200018e6200043236600462001d05565b620015d5565b3480156200044557600080fd5b5062000151620016cc565b3480156200045d57600080fd5b5062000151620016db565b6005546001600160a01b031690565b60408051808201909152601581526000805160206200342d833981519152602082015282906001600160a01b038216620005325760405162461bcd60e51b81526004018080602001828103825283818151815260200191508051906020019080838360005b83811015620004f6578181015183820152602001620004dc565b50505050905090810190601f168015620005245780820380516001836020036101000a031916815260200191505b509250505060405180910390fd5b506001546001600160a01b03163314620005695760405162461bcd60e51b815260040162000560906200250d565b60405180910390fd5b60088054604080516020601f60026000196101006001881615020190951694909404938401819004810282018101909252828152620006069390929091830182828015620005fb5780601f10620005cf57610100808354040283529160200191620005fb565b820191906000526020600020905b815481529060010190602001808311620005dd57829003601f168201915b505050505062000956565b620006118362000956565b11620006315760405162461bcd60e51b81526004016200056090620024c0565b600780546001600160a01b0319166001600160a01b038516179055815162000661906008906020850190620018fb565b507fc6ee1e1e08307ce2d854c77911cf72b51710027139dd730756959e981480edb783600860405162000696929190620023b1565b60405180910390a1505050565b60408051808201909152601581526000805160206200342d833981519152602082015281906001600160a01b038216620007205760405162461bcd60e51b8152602060048201818152835160248401528351909283926044909101919085019080838360008315620004f6578181015183820152602001620004dc565b506001546001600160a01b031633146200074e5760405162461bcd60e51b815260040162000560906200250d565b600480546001600160a01b0319166001600160a01b0384161790556040517fb3eacd0e351fafdfefdec84e1cd19679b38dbcd63ea7c2c24da17fd2bc3b3c0e906200079b90849062002280565b60405180910390a15050565b6000838383604051602001620007c09392919062002231565b6040516020818303038152906040528051906020012090509392505050565b60408051808201909152601581526000805160206200342d833981519152602082015281906001600160a01b0382166200085c5760405162461bcd60e51b8152602060048201818152835160248401528351909283926044909101919085019080838360008315620004f6578181015183820152602001620004dc565b506001546001600160a01b031633146200088a5760405162461bcd60e51b815260040162000560906200250d565b600380546001600160a01b0319166001600160a01b0384161790556040517f934730203236e0bdf255807d75b091578e1065be48dfcdae28f41ca47e1f58e1906200079b90849062002280565b6000816001600160a01b031663481c6a756040518163ffffffff1660e01b815260040160206040518083038186803b1580156200091357600080fd5b505afa15801562000928573d6000803e3d6000fd5b505050506040513d601f19601f820116820180604052508101906200094e919062001d2b565b90505b919050565b80516000908290600190600019015b825181101562000a285760308382815181106200097e57fe5b016020015160f81c10801590620009aa575060398382815181106200099f57fe5b016020015160f81c11155b620009f5576040805162461bcd60e51b815260206004820152601660248201527524b73b30b634b21039ba3934b7339034b73a32b3b2b960511b604482015290519081900360640190fd5b81603084838151811062000a0557fe5b016020015160f81c0360ff16029390930192600a91909102906000190162000965565b505050919050565b6040518060400160405280601581526020016000805160206200342d83398151915281525081565b60088054604080516020601f600260001961010060018816150201909516949094049384018190048102820181019092528281526060939092909183018282801562000ae85780601f1062000abc5761010080835404028352916020019162000ae8565b820191906000526020600020905b81548152906001019060200180831162000aca57829003601f168201915b5050505050905090565b6007546001600160a01b031690565b6001546001600160a01b0316331462000b2e5760405162461bcd60e51b815260040162000560906200250d565b60065460405163d33a10f760e01b81526001600160a01b039091169063d33a10f79062000b62908590859060040162002530565b600060405180830381600087803b15801562000b7d57600080fd5b505af115801562000b92573d6000803e3d6000fd5b505050505050565b6001546001600160a01b0316331462000bc75760405162461bcd60e51b815260040162000560906200250d565b6001546040516000916001600160a01b0316906000805160206200340d833981519152908390a3600180546001600160a01b0319169055565b60408051808201909152601581526000805160206200342d833981519152602082015281906001600160a01b03821662000c7d5760405162461bcd60e51b8152602060048201818152835160248401528351909283926044909101919085019080838360008315620004f6578181015183820152602001620004dc565b506001546001600160a01b0316331462000cab5760405162461bcd60e51b815260040162000560906200250d565b600580546001600160a01b0319166001600160a01b0384161790556040517fcfb199724e80ef87a82c051c6bcbe15ca80dbd143a1a7ca4f90be72f4fd6bf87906200079b90849062002280565b6004546001600160a01b031690565b6001546001600160a01b031681565b6001546001600160a01b0316331462000d435760405162461bcd60e51b815260040162000560906200250d565b62000d50838383620016ea565b505050565b60408051808201909152601581526000805160206200342d833981519152602082015281906001600160a01b03821662000dd25760405162461bcd60e51b8152602060048201818152835160248401528351909283926044909101919085019080838360008315620004f6578181015183820152602001620004dc565b506001546001600160a01b0316331462000e005760405162461bcd60e51b815260040162000560906200250d565b6002546001600160a01b03161562000e2c5760405162461bcd60e51b815260040162000560906200248e565b50600280546001600160a01b0319166001600160a01b0392909216919091179055565b6003546001600160a01b031690565b600954600090610100900460ff168062000e7d575062000e7d62001759565b8062000e8c575060095460ff16155b62000ec95760405162461bcd60e51b815260040180806020018281038252602e815260200180620033df602e913960400191505060405180910390fd5b600954610100900460ff1615801562000ef5576009805460ff1961ff0019909116610100171660011790555b60408051808201909152601581526000805160206200342d833981519152602082015288906001600160a01b03821662000f725760405162461bcd60e51b8152602060048201818152835160248401528351909283926044909101919085019080838360008315620004f6578181015183820152602001620004dc565b5060408051808201909152601581526000805160206200342d833981519152602082015288906001600160a01b03821662000ff05760405162461bcd60e51b8152602060048201818152835160248401528351909283926044909101919085019080838360008315620004f6578181015183820152602001620004dc565b5060408051808201909152601581526000805160206200342d833981519152602082015288906001600160a01b0382166200106e5760405162461bcd60e51b8152602060048201818152835160248401528351909283926044909101919085019080838360008315620004f6578181015183820152602001620004dc565b5060408051808201909152601581526000805160206200342d833981519152602082015288906001600160a01b038216620010ec5760405162461bcd60e51b8152602060048201818152835160248401528351909283926044909101919085019080838360008315620004f6578181015183820152602001620004dc565b5060408051808201909152601581526000805160206200342d833981519152602082015288906001600160a01b0382166200116a5760405162461bcd60e51b8152602060048201818152835160248401528351909283926044909101919085019080838360008315620004f6578181015183820152602001620004dc565b5060408051808201909152601581526000805160206200342d833981519152602082015288906001600160a01b038216620011e85760405162461bcd60e51b8152602060048201818152835160248401528351909283926044909101919085019080838360008315620004f6578181015183820152602001620004dc565b5030604051620011f89062001990565b62001204919062002280565b604051809103906000f08015801562001221573d6000803e3d6000fd5b506000806101000a8154816001600160a01b0302191690836001600160a01b031602179055508d600160006101000a8154816001600160a01b0302191690836001600160a01b031602179055508c600760006101000a8154816001600160a01b0302191690836001600160a01b031602179055508b600460006101000a8154816001600160a01b0302191690836001600160a01b031602179055508a600660006101000a8154816001600160a01b0302191690836001600160a01b0316021790555089600360006101000a8154816001600160a01b0302191690836001600160a01b0316021790555088600560006101000a8154816001600160a01b0302191690836001600160a01b03160217905550604051806040016040528060018152602001603160f81b8152506008908051906020019062001362929190620018fb565b506007546040517fc6ee1e1e08307ce2d854c77911cf72b51710027139dd730756959e981480edb791620013a5916001600160a01b0390911690600890620023b1565b60405180910390a16004546040517fb3eacd0e351fafdfefdec84e1cd19679b38dbcd63ea7c2c24da17fd2bc3b3c0e91620013ec916001600160a01b039091169062002280565b60405180910390a16003546040517f934730203236e0bdf255807d75b091578e1065be48dfcdae28f41ca47e1f58e19162001433916001600160a01b039091169062002280565b60405180910390a16005546040517fcfb199724e80ef87a82c051c6bcbe15ca80dbd143a1a7ca4f90be72f4fd6bf87916200147a916001600160a01b039091169062002280565b60405180910390a16001546040516001600160a01b03909116906000906000805160206200340d833981519152908290a3600197505050505050508015620014c8576009805461ff00191690555b509695505050505050565b600080620014e4898989896200175f565b90507fede2a7fd12d6667169c5e5c571f43c9ef7ba9423166a58666482541a13d15a5e818a8a8a8a6040516200151f959493929190620022cb565b60405180910390a162001536898287878762001881565b98975050505050505050565b6000546001600160a01b031633146200156f5760405162461bcd60e51b81526004016200056090620024e9565b604051637240f9af60e01b81526001600160a01b03821690637240f9af906200159e9060089060040162002479565b600060405180830381600087803b158015620015b957600080fd5b505af1158015620015ce573d6000803e3d6000fd5b5050505050565b60408051808201909152601581526000805160206200342d833981519152602082015281906001600160a01b038216620016525760405162461bcd60e51b8152602060048201818152835160248401528351909283926044909101919085019080838360008315620004f6578181015183820152602001620004dc565b506001546001600160a01b03163314620016805760405162461bcd60e51b815260040162000560906200250d565b6001546040516001600160a01b038085169216906000805160206200340d83398151915290600090a350600180546001600160a01b0319166001600160a01b0392909216919091179055565b6002546001600160a01b031690565b6000546001600160a01b031681565b6006546040516360335e8d60e11b81526001600160a01b039091169063c066bd1a90620017209086908690869060040162002547565b600060405180830381600087803b1580156200173b57600080fd5b505af115801562001750573d6000803e3d6000fd5b50505050505050565b303b1590565b6000806200176f868686620007a7565b600754600080546040805192835260208301908190526001600160a01b03938416939091169190620017a1906200199e565b620017af9392919062002294565b8190604051809103906000f5905080158015620017d0573d6000803e3d6000fd5b509050620017e26000600483620016ea565b6002546040516316a308af60e21b81526001600160a01b0383811692635a8c22bc9262001821928a928a92600892909116908d908b9060040162002400565b602060405180830381600087803b1580156200183c57600080fd5b505af115801562001851573d6000803e3d6000fd5b505050506040513d601f19601f8201168201806040525081019062001877919062001f96565b5095945050505050565b600254604051635933e24160e01b81526001600160a01b03909116908190635933e241903490620018bf908a908a908a908a908a9060040162002323565b6000604051808303818588803b158015620018d957600080fd5b505af1158015620018ee573d6000803e3d6000fd5b5050505050505050505050565b828054600181600116156101000203166002900490600052602060002090601f0160209004810192826200193357600085556200197e565b82601f106200194e57805160ff19168380011785556200197e565b828001600101855582156200197e579182015b828111156200197e57825182559160200191906001019062001961565b506200198c929150620019ac565b5090565b6104f5806200261083390190565b6108da8062002b0583390190565b5b808211156200198c5760008155600101620019ad565b80356200095181620025e7565b600082601f830112620019e1578081fd5b81356020620019fa620019f4836200258a565b62002566565b828152818101908583018385028701840188101562001a17578586fd5b855b8581101562001a4257813562001a2f81620025e7565b8452928401929084019060010162001a19565b5090979650505050505050565b600082601f83011262001a60578081fd5b602062001a72620019f484356200258a565b8335815281810190828501845b863581101562001bbe5781358701601f196060828b038201121562001aa2578788fd5b604051606081016001600160401b03828210818311171562001ac057fe5b8160405289850135915062001ad582620025e7565b9082526040840135898301526060840135908082111562001af4578a8bfd5b938101936060858e038501121562001b0a578a8bfd5b6040519350606084019150838210818311171562001b2457fe5b816040528985013591508082111562001b3b578a8bfd5b62001b4b8d8b84880101620019d0565b8452604085013591508082111562001b61578a8bfd5b62001b718d8b84880101620019d0565b8a850152606085013591508082111562001b89578a8bfd5b5062001b9a8c8a8387010162001bd7565b60408481019190915282019290925286525050928401929084019060010162001a7f565b50909695505050505050565b8035620009518162002600565b600082601f83011262001be8578081fd5b81356001600160401b0381111562001bfc57fe5b62001c11601f8201601f191660200162002566565b81815284602083860101111562001c26578283fd5b816020850160208301379081016020019190915292915050565b600060c0828403121562001c52578081fd5b60405160c081018181106001600160401b038211171562001c6f57fe5b604052905080823563ffffffff8116811462001c8a57600080fd5b815262001c9a6020840162001cf2565b602082015262001cad6040840162001cf2565b604082015262001cc06060840162001cf2565b606082015262001cd36080840162001bca565b608082015262001ce660a0840162001bca565b60a08201525092915050565b803561ffff811681146200095157600080fd5b60006020828403121562001d17578081fd5b813562001d2481620025e7565b9392505050565b60006020828403121562001d3d578081fd5b815162001d2481620025e7565b60008060008060008060c0878903121562001d63578182fd5b863562001d7081620025e7565b9550602087013562001d8281620025e7565b9450604087013562001d9481620025e7565b9350606087013562001da681620025e7565b9250608087013562001db881620025e7565b915060a087013562001dca81620025e7565b809150509295509295509295565b6000806040838503121562001deb578182fd5b823562001df881620025e7565b915060208301356001600160401b0381111562001e13578182fd5b62001e218582860162001bd7565b9150509250929050565b60008060006060848603121562001e40578081fd5b833562001e4d81620025e7565b925060208401356001600160401b038082111562001e69578283fd5b62001e778783880162001bd7565b9350604086013591508082111562001e8d578283fd5b5062001e9c8682870162001bd7565b9150509250925092565b6000806000806000806000610180888a03121562001ec2578485fd5b62001ecd88620019c3565b965060208801356001600160401b038082111562001ee9578687fd5b62001ef78b838c0162001bd7565b975060408a013591508082111562001f0d578687fd5b62001f1b8b838c0162001bd7565b965060608a013591508082111562001f31578283fd5b62001f3f8b838c0162001a4f565b955062001f508b60808c0162001c40565b945062001f616101408b01620019c3565b93506101608a013591508082111562001f78578283fd5b5062001f878a828b0162001bd7565b91505092959891949750929550565b60006020828403121562001fa8578081fd5b815162001d248162002600565b60006020828403121562001fc7578081fd5b81356001600160401b0381111562001fdd578182fd5b62001feb8482850162001bd7565b949350505050565b6000806040838503121562002006578182fd5b8235915060208301356200201a81620025e7565b809150509250929050565b6000806000606084860312156200203a578081fd5b833592506020840135915060408401356200205581620025e7565b809150509250925092565b6001600160a01b03169052565b6000815180845260208085019450808401835b83811015620020a75781516001600160a01b03168752958201959082019060010162002080565b509495945050505050565b6000815180845260208085018081965082840281019150828601855b858110156200216b5782840389528151606060018060a01b038251168652868201518787015260408083015192508181880152825182838901526200211760c08901826200206d565b92505087830151605f19808985030160808a01526200213784836200206d565b929094015188830390940160a089015250905062002156818362002178565b9a87019a9550505090840190600101620020ce565b5091979650505050505050565b6000815180845262002192816020860160208601620025b4565b601f01601f19169290920160200192915050565b60008154600180821660008114620021c75760018114620021e65762002228565b60028304607f16865260ff198316602087015260408601935062002228565b60028304808752620021f886620025a8565b60005b828110156200221e5781546020828b0101528482019150602081019050620021fb565b8801602001955050505b50505092915050565b606084901b6001600160601b031916815282516000906200225a816014850160208801620025b4565b83519083019062002273816014840160208801620025b4565b0160140195945050505050565b6001600160a01b0391909116815260200190565b6001600160a01b03848116825283166020820152606060408201819052600090620022c29083018462002178565b95945050505050565b6001600160a01b0386811682528516602082015260a060408201819052600090620022f99083018662002178565b82810360608401526200230d818662002178565b90508281036080840152620015368185620020b2565b600061014060018060a01b03808916845280881660208501525063ffffffff8651166040840152602086015161ffff80821660608601528060408901511660808601528060608901511660a086015250506080860151151560c084015260a0860151151560e08401526200239c61010084018662002060565b80610120840152620015368184018562002178565b6001600160a01b038316815260406020820181905260009062001feb90830184620021a6565b901515815260200190565b90815260200190565b60006020825262001d24602083018462002178565b600060c082526200241560c083018962002178565b828103602084015262002429818962002178565b905082810360408401526200243f8188620021a6565b6001600160a01b0387811660608601528616608085015283810360a085015290506200246c8185620020b2565b9998505050505050505050565b60006020825262001d246020830184620021a6565b60208082526018908201527721b0b73737ba1031b430b733b29031b7b73a3937b63632b960411b604082015260600190565b6020808252600f908201526e24b73b30b634b2103b32b939b4b7b760891b604082015260600190565b6020808252600a908201526927b7363c9030b236b4b760b11b604082015260600190565b6020808252600990820152682737ba1037bbb732b960b91b604082015260600190565b9182526001600160a01b0316602082015260400190565b92835260208301919091526001600160a01b0316604082015260600190565b6040518181016001600160401b03811182821017156200258257fe5b604052919050565b60006001600160401b038211156200259e57fe5b5060209081020190565b60009081526020902090565b60005b83811015620025d1578181015183820152602001620025b7565b83811115620025e1576000848401525b50505050565b6001600160a01b0381168114620025fd57600080fd5b50565b8015158114620025fd57600080fdfe60a060405234801561001057600080fd5b506040516104f53803806104f583398101604081905261002f91610044565b60601b6001600160601b031916608052610072565b600060208284031215610055578081fd5b81516001600160a01b038116811461006b578182fd5b9392505050565b60805160601c61045d6100986000398060aa52806101775280610269525061045d6000f3fe608060405234801561001057600080fd5b50600436106100415760003560e01c80630900f01014610046578063204e1c7a1461005b578063f3b7dead14610084575b600080fd5b61005961005436600461039a565b610097565b005b61006e61006936600461039a565b6102d6565b60405161007b91906103d6565b60405180910390f35b61006e61009236600461039a565b61035c565b604051633d58406360e01b8152819033907f00000000000000000000000000000000000000000000000000000000000000006001600160a01b031690633d584063906100e79085906004016103d6565b60206040518083038186803b1580156100ff57600080fd5b505afa158015610113573d6000803e3d6000fd5b505050506040513d601f19601f820116820180604052508101906101379190610377565b6001600160a01b0316146101665760405162461bcd60e51b815260040161015d906103ea565b60405180910390fd5b816001600160a01b0316633659cfe67f00000000000000000000000000000000000000000000000000000000000000006001600160a01b0316635c60da1b6040518163ffffffff1660e01b815260040160206040518083038186803b1580156101ce57600080fd5b505afa1580156101e2573d6000803e3d6000fd5b505050506040513d601f19601f820116820180604052508101906102069190610377565b6040518263ffffffff1660e01b815260040161022291906103d6565b600060405180830381600087803b15801561023c57600080fd5b505af1158015610250573d6000803e3d6000fd5b505060405163f03633f560e01b81526001600160a01b037f000000000000000000000000000000000000000000000000000000000000000016925063f03633f591506102a09085906004016103d6565b600060405180830381600087803b1580156102ba57600080fd5b505af11580156102ce573d6000803e3d6000fd5b505050505050565b6000806000836001600160a01b03166040516102f1906103b6565b600060405180830381855afa9150503d806000811461032c576040519150601f19603f3d011682016040523d82523d6000602084013e610331565b606091505b50915091508161034057600080fd5b808060200190518101906103549190610377565b949350505050565b6000806000836001600160a01b03166040516102f1906103c6565b600060208284031215610388578081fd5b81516103938161040f565b9392505050565b6000602082840312156103ab578081fd5b81356103938161040f565b635c60da1b60e01b815260040190565b6303e1469160e61b815260040190565b6001600160a01b0391909116815260200190565b6020808252600b908201526a2737ba1036b0b730b3b2b960a91b604082015260600190565b6001600160a01b038116811461042457600080fd5b5056fea26469706673582212206ab1fae6fddd93780027e03295173e08c9e2d1a3ac50c390d5c87b9c23eeac6c64736f6c6343000706003360806040526040516108da3803806108da8339818101604052606081101561002657600080fd5b8151602083015160408085018051915193959294830192918464010000000082111561005157600080fd5b90830190602082018581111561006657600080fd5b825164010000000081118282018810171561008057600080fd5b82525081516020918201929091019080838360005b838110156100ad578181015183820152602001610095565b50505050905090810190601f1680156100da5780820380516001836020036101000a031916815260200191505b50604052508491508290506100ee826101bf565b8051156101a6576000826001600160a01b0316826040518082805190602001908083835b602083106101315780518252601f199092019160209182019101610112565b6001836020036101000a038019825116818451168082178552505050505050905001915050600060405180830381855af49150503d8060008114610191576040519150601f19603f3d011682016040523d82523d6000602084013e610196565b606091505b50509050806101a457600080fd5b505b506101ae9050565b6101b782610231565b50505061025b565b6101d28161025560201b6103b21760201c565b61020d5760405162461bcd60e51b81526004018080602001828103825260368152602001806108a46036913960400191505060405180910390fd5b7f360894a13ba1a3210667c828492db98dca3e2076cc3735a920a3ca505d382bbc55565b7fb53127684a568b3173ae13b9f8a6016e243e63b6e8ee1178d6a717850b5d610355565b3b151590565b61063a8061026a6000396000f3fe60806040526004361061004e5760003560e01c80633659cfe6146100655780634f1ef286146100985780635c60da1b146101165780638f28397014610147578063f851a4401461017a5761005d565b3661005d5761005b61018f565b005b61005b61018f565b34801561007157600080fd5b5061005b6004803603602081101561008857600080fd5b50356001600160a01b03166101a9565b61005b600480360360408110156100ae57600080fd5b6001600160a01b038235169190810190604081016020820135600160201b8111156100d857600080fd5b8201836020820111156100ea57600080fd5b803590602001918460018302840111600160201b8311171561010b57600080fd5b5090925090506101e3565b34801561012257600080fd5b5061012b610290565b604080516001600160a01b039092168252519081900360200190f35b34801561015357600080fd5b5061005b6004803603602081101561016a57600080fd5b50356001600160a01b03166102cd565b34801561018657600080fd5b5061012b610387565b6101976103b8565b6101a76101a2610418565b61043d565b565b6101b1610461565b6001600160a01b0316336001600160a01b031614156101d8576101d381610486565b6101e0565b6101e061018f565b50565b6101eb610461565b6001600160a01b0316336001600160a01b031614156102835761020d83610486565b6000836001600160a01b031683836040518083838082843760405192019450600093509091505080830381855af49150503d806000811461026a576040519150601f19603f3d011682016040523d82523d6000602084013e61026f565b606091505b505090508061027d57600080fd5b5061028b565b61028b61018f565b505050565b600061029a610461565b6001600160a01b0316336001600160a01b031614156102c2576102bb610418565b90506102ca565b6102ca61018f565b90565b6102d5610461565b6001600160a01b0316336001600160a01b031614156101d8576001600160a01b0381166103335760405162461bcd60e51b815260040180806020018281038252603a815260200180610553603a913960400191505060405180910390fd5b7f7e644d79422f17c01e4894b5f4f588d331ebfa28653d42ae832dc59e38c9798f61035c610461565b604080516001600160a01b03928316815291841660208301528051918290030190a16101d3816104c6565b6000610391610461565b6001600160a01b0316336001600160a01b031614156102c2576102bb610461565b3b151590565b6103c0610461565b6001600160a01b0316336001600160a01b031614156104105760405162461bcd60e51b81526004018080602001828103825260428152602001806105c36042913960600191505060405180910390fd5b6101a76101a7565b7f360894a13ba1a3210667c828492db98dca3e2076cc3735a920a3ca505d382bbc5490565b3660008037600080366000845af43d6000803e80801561045c573d6000f35b3d6000fd5b7fb53127684a568b3173ae13b9f8a6016e243e63b6e8ee1178d6a717850b5d61035490565b61048f816104ea565b6040516001600160a01b038216907fbc7cd75a20ee27fd9adebab32041f755214dbc6bffa90cc0225b39da2e5c2d3b90600090a250565b7fb53127684a568b3173ae13b9f8a6016e243e63b6e8ee1178d6a717850b5d610355565b6104f3816103b2565b61052e5760405162461bcd60e51b815260040180806020018281038252603681526020018061058d6036913960400191505060405180910390fd5b7f360894a13ba1a3210667c828492db98dca3e2076cc3735a920a3ca505d382bbc5556fe5472616e73706172656e745570677261646561626c6550726f78793a206e65772061646d696e20697320746865207a65726f20616464726573735570677261646561626c6550726f78793a206e657720696d706c656d656e746174696f6e206973206e6f74206120636f6e74726163745472616e73706172656e745570677261646561626c6550726f78793a2061646d696e2063616e6e6f742066616c6c6261636b20746f2070726f787920746172676574a2646970667358221220bc9e83ced1154891d7111a7898501d4459698ef4bf8e5598d4a92b36c267d9a164736f6c634300070600335570677261646561626c6550726f78793a206e657720696d706c656d656e746174696f6e206973206e6f74206120636f6e7472616374496e697469616c697a61626c653a20636f6e747261637420697320616c726561647920696e697469616c697a65648be0079c531659141344cd1fd0a4f28419497f9722a3daafe3b4186f6b6457e05a65726f20616464726573732070726f76696465640000000000000000000000a264697066735822122062b28b040c309538f7069071456204f9b2742d26e5d0109f8096b3ccf5da2e0364736f6c63430007060033496e697469616c697a61626c653a20636f6e747261637420697320616c726561647920696e697469616c697a6564",
  "linkReferences": {},
  "deployedLinkReferences": {}
}