{
  "_format": "hh-sol-artifact-1",
  "contractName": "Strategy",
  "sourceName": "contracts/Strategy.sol",
  "abi": [
    {
      "inputs": [],
      "stateMutability": "nonpayable",
      "type": "constructor"
    },
    {
      "anonymous": false,
      "inputs": [
        {
          "indexed": true,
          "internalType": "address",
          "name": "owner",
          "type": "address"
        },
        {
          "indexed": true,
          "internalType": "address",
          "name": "spender",
          "type": "address"
        },
        {
          "indexed": false,
          "internalType": "uint256",
          "name": "value",
          "type": "uint256"
        }
      ],
      "name": "Approval",
      "type": "event"
    },
    {
      "anonymous": false,
      "inputs": [
        {
          "indexed": false,
          "internalType": "address",
          "name": "account",
          "type": "address"
        },
        {
          "indexed": false,
          "internalType": "uint256",
          "name": "amount",
          "type": "uint256"
        }
      ],
      "name": "PerformanceFee",
      "type": "event"
    },
    {
      "anonymous": false,
      "inputs": [
        {
          "indexed": false,
          "internalType": "uint256",
          "name": "amount",
          "type": "uint256"
        }
      ],
      "name": "StreamingFee",
      "type": "event"
    },
    {
      "anonymous": false,
      "inputs": [
        {
          "indexed": true,
          "internalType": "address",
          "name": "from",
          "type": "address"
        },
        {
          "indexed": true,
          "internalType": "address",
          "name": "to",
          "type": "address"
        },
        {
          "indexed": false,
          "internalType": "uint256",
          "name": "value",
          "type": "uint256"
        }
      ],
      "name": "Transfer",
      "type": "event"
    },
    {
      "anonymous": false,
      "inputs": [
        {
          "indexed": false,
          "internalType": "address",
          "name": "manager",
          "type": "address"
        }
      ],
      "name": "UpdateManager",
      "type": "event"
    },
    {
      "anonymous": false,
      "inputs": [
        {
          "indexed": false,
          "internalType": "address",
          "name": "signer",
          "type": "address"
        },
        {
          "indexed": false,
          "internalType": "bool",
          "name": "added",
          "type": "bool"
        }
      ],
      "name": "UpdateSigner",
      "type": "event"
    },
    {
      "anonymous": false,
      "inputs": [
        {
          "indexed": false,
          "internalType": "uint256",
          "name": "amount",
          "type": "uint256"
        },
        {
          "indexed": false,
          "internalType": "uint256[]",
          "name": "amounts",
          "type": "uint256[]"
        }
      ],
      "name": "Withdraw",
      "type": "event"
    },
    {
      "anonymous": false,
      "inputs": [
        {
          "indexed": false,
          "internalType": "address",
          "name": "account",
          "type": "address"
        },
        {
          "indexed": false,
          "internalType": "uint256",
          "name": "amount",
          "type": "uint256"
        }
      ],
      "name": "WithdrawalFee",
      "type": "event"
    },
    {
      "inputs": [],
      "name": "BALANCE_LOW",
      "outputs": [
        {
          "internalType": "string",
          "name": "",
          "type": "string"
        }
      ],
      "stateMutability": "view",
      "type": "function"
    },
    {
      "inputs": [],
      "name": "DOMAIN_SEPARATOR",
      "outputs": [
        {
          "internalType": "bytes32",
          "name": "",
          "type": "bytes32"
        }
      ],
      "stateMutability": "view",
      "type": "function"
    },
    {
      "inputs": [],
      "name": "PERMIT_TYPEHASH",
      "outputs": [
        {
          "internalType": "bytes32",
          "name": "",
          "type": "bytes32"
        }
      ],
      "stateMutability": "view",
      "type": "function"
    },
    {
      "inputs": [],
      "name": "STREAM_FEE",
      "outputs": [
        {
          "internalType": "uint256",
          "name": "",
          "type": "uint256"
        }
      ],
      "stateMutability": "view",
      "type": "function"
    },
    {
      "inputs": [],
      "name": "WITHDRAWAL_FEE",
      "outputs": [
        {
          "internalType": "uint256",
          "name": "",
          "type": "uint256"
        }
      ],
      "stateMutability": "view",
      "type": "function"
    },
    {
      "inputs": [
        {
          "internalType": "address",
          "name": "owner",
          "type": "address"
        },
        {
          "internalType": "address",
          "name": "spender",
          "type": "address"
        }
      ],
      "name": "allowance",
      "outputs": [
        {
          "internalType": "uint256",
          "name": "",
          "type": "uint256"
        }
      ],
      "stateMutability": "view",
      "type": "function"
    },
    {
      "inputs": [
        {
          "internalType": "address",
          "name": "spender",
          "type": "address"
        },
        {
          "internalType": "uint256",
          "name": "amount",
          "type": "uint256"
        }
      ],
      "name": "approve",
      "outputs": [
        {
          "internalType": "bool",
          "name": "",
          "type": "bool"
        }
      ],
      "stateMutability": "nonpayable",
      "type": "function"
    },
    {
      "inputs": [
        {
          "internalType": "address",
          "name": "token",
          "type": "address"
        },
        {
          "internalType": "address",
          "name": "account",
          "type": "address"
        },
        {
          "internalType": "uint256",
          "name": "amount",
          "type": "uint256"
        }
      ],
      "name": "approveDebt",
      "outputs": [],
      "stateMutability": "nonpayable",
      "type": "function"
    },
    {
      "inputs": [
        {
          "internalType": "address",
          "name": "account",
          "type": "address"
        },
        {
          "internalType": "uint256",
          "name": "amount",
          "type": "uint256"
        }
      ],
      "name": "approveSynths",
      "outputs": [],
      "stateMutability": "nonpayable",
      "type": "function"
    },
    {
      "inputs": [
        {
          "internalType": "address",
          "name": "token",
          "type": "address"
        },
        {
          "internalType": "address",
          "name": "account",
          "type": "address"
        },
        {
          "internalType": "uint256",
          "name": "amount",
          "type": "uint256"
        }
      ],
      "name": "approveToken",
      "outputs": [],
      "stateMutability": "nonpayable",
      "type": "function"
    },
    {
      "inputs": [
        {
          "internalType": "address",
          "name": "account",
          "type": "address"
        }
      ],
      "name": "balanceOf",
      "outputs": [
        {
          "internalType": "uint256",
          "name": "",
          "type": "uint256"
        }
      ],
      "stateMutability": "view",
      "type": "function"
    },
    {
      "inputs": [
        {
          "internalType": "address",
          "name": "account",
          "type": "address"
        },
        {
          "internalType": "uint256",
          "name": "amount",
          "type": "uint256"
        }
      ],
      "name": "burn",
      "outputs": [
        {
          "internalType": "uint256",
          "name": "",
          "type": "uint256"
        }
      ],
      "stateMutability": "nonpayable",
      "type": "function"
    },
    {
      "inputs": [],
      "name": "chainId",
      "outputs": [
        {
          "internalType": "uint256",
          "name": "id",
          "type": "uint256"
        }
      ],
      "stateMutability": "pure",
      "type": "function"
    },
    {
      "inputs": [],
      "name": "controller",
      "outputs": [
        {
          "internalType": "address",
          "name": "",
          "type": "address"
        }
      ],
      "stateMutability": "view",
      "type": "function"
    },
    {
      "inputs": [],
      "name": "debt",
      "outputs": [
        {
          "internalType": "address[]",
          "name": "",
          "type": "address[]"
        }
      ],
      "stateMutability": "view",
      "type": "function"
    },
    {
      "inputs": [],
      "name": "decimals",
      "outputs": [
        {
          "internalType": "uint8",
          "name": "",
          "type": "uint8"
        }
      ],
      "stateMutability": "view",
      "type": "function"
    },
    {
      "inputs": [
        {
          "internalType": "address",
          "name": "spender",
          "type": "address"
        },
        {
          "internalType": "uint256",
          "name": "subtractedValue",
          "type": "uint256"
        }
      ],
      "name": "decreaseAllowance",
      "outputs": [
        {
          "internalType": "bool",
          "name": "",
          "type": "bool"
        }
      ],
      "stateMutability": "nonpayable",
      "type": "function"
    },
    {
      "inputs": [
        {
          "internalType": "address",
          "name": "adapter",
          "type": "address"
        },
        {
          "internalType": "address",
          "name": "token",
          "type": "address"
        }
      ],
      "name": "delegateClaimRewards",
      "outputs": [],
      "stateMutability": "nonpayable",
      "type": "function"
    },
    {
      "inputs": [
        {
          "internalType": "address",
          "name": "adapter",
          "type": "address"
        },
        {
          "internalType": "uint256",
          "name": "amount",
          "type": "uint256"
        },
        {
          "internalType": "address",
          "name": "tokenIn",
          "type": "address"
        },
        {
          "internalType": "address",
          "name": "tokenOut",
          "type": "address"
        }
      ],
      "name": "delegateSwap",
      "outputs": [],
      "stateMutability": "nonpayable",
      "type": "function"
    },
    {
      "inputs": [
        {
          "internalType": "address",
          "name": "item",
          "type": "address"
        }
      ],
      "name": "getPercentage",
      "outputs": [
        {
          "internalType": "int256",
          "name": "",
          "type": "int256"
        }
      ],
      "stateMutability": "view",
      "type": "function"
    },
    {
      "inputs": [
        {
          "internalType": "address",
          "name": "account",
          "type": "address"
        }
      ],
      "name": "getPerformanceFeeOwed",
      "outputs": [
        {
          "internalType": "uint256",
          "name": "",
          "type": "uint256"
        }
      ],
      "stateMutability": "view",
      "type": "function"
    },
    {
      "inputs": [
        {
          "internalType": "address",
          "name": "item",
          "type": "address"
        }
      ],
      "name": "getTradeData",
      "outputs": [
        {
          "components": [
            {
              "internalType": "address[]",
              "name": "adapters",
              "type": "address[]"
            },
            {
              "internalType": "address[]",
              "name": "path",
              "type": "address[]"
            },
            {
              "internalType": "bytes",
              "name": "cache",
              "type": "bytes"
            }
          ],
          "internalType": "struct StrategyTypes.TradeData",
          "name": "",
          "type": "tuple"
        }
      ],
      "stateMutability": "view",
      "type": "function"
    },
    {
      "inputs": [
        {
          "internalType": "address",
          "name": "spender",
          "type": "address"
        },
        {
          "internalType": "uint256",
          "name": "addedValue",
          "type": "uint256"
        }
      ],
      "name": "increaseAllowance",
      "outputs": [
        {
          "internalType": "bool",
          "name": "",
          "type": "bool"
        }
      ],
      "stateMutability": "nonpayable",
      "type": "function"
    },
    {
      "inputs": [
        {
          "internalType": "string",
          "name": "name_",
          "type": "string"
        },
        {
          "internalType": "string",
          "name": "symbol_",
          "type": "string"
        },
        {
          "internalType": "string",
          "name": "version_",
          "type": "string"
        },
        {
          "internalType": "address",
          "name": "controller_",
          "type": "address"
        },
        {
          "internalType": "address",
          "name": "manager_",
          "type": "address"
        },
        {
          "components": [
            {
              "internalType": "address",
              "name": "item",
              "type": "address"
            },
            {
              "internalType": "int256",
              "name": "percentage",
              "type": "int256"
            },
            {
              "components": [
                {
                  "internalType": "address[]",
                  "name": "adapters",
                  "type": "address[]"
                },
                {
                  "internalType": "address[]",
                  "name": "path",
                  "type": "address[]"
                },
                {
                  "internalType": "bytes",
                  "name": "cache",
                  "type": "bytes"
                }
              ],
              "internalType": "struct StrategyTypes.TradeData",
              "name": "data",
              "type": "tuple"
            }
          ],
          "internalType": "struct StrategyTypes.StrategyItem[]",
          "name": "strategyItems_",
          "type": "tuple[]"
        }
      ],
      "name": "initialize",
      "outputs": [
        {
          "internalType": "bool",
          "name": "",
          "type": "bool"
        }
      ],
      "stateMutability": "nonpayable",
      "type": "function"
    },
    {
      "inputs": [
        {
          "internalType": "bytes32",
          "name": "_hash",
          "type": "bytes32"
        },
        {
          "internalType": "bytes",
          "name": "_signature",
          "type": "bytes"
        }
      ],
      "name": "isValidSignature",
      "outputs": [
        {
          "internalType": "bytes4",
          "name": "magicValue",
          "type": "bytes4"
        }
      ],
      "stateMutability": "view",
      "type": "function"
    },
    {
      "inputs": [
        {
          "internalType": "bytes",
          "name": "_message",
          "type": "bytes"
        },
        {
          "internalType": "bytes",
          "name": "_signature",
          "type": "bytes"
        }
      ],
      "name": "isValidSignature",
      "outputs": [
        {
          "internalType": "bytes4",
          "name": "magicValue",
          "type": "bytes4"
        }
      ],
      "stateMutability": "view",
      "type": "function"
    },
    {
      "inputs": [],
      "name": "items",
      "outputs": [
        {
          "internalType": "address[]",
          "name": "",
          "type": "address[]"
        }
      ],
      "stateMutability": "view",
      "type": "function"
    },
    {
      "inputs": [],
      "name": "lastTokenValue",
      "outputs": [
        {
          "internalType": "uint256",
          "name": "",
          "type": "uint256"
        }
      ],
      "stateMutability": "view",
      "type": "function"
    },
    {
      "inputs": [],
      "name": "lock",
      "outputs": [],
      "stateMutability": "nonpayable",
      "type": "function"
    },
    {
      "inputs": [],
      "name": "locked",
      "outputs": [
        {
          "internalType": "bool",
          "name": "",
          "type": "bool"
        }
      ],
      "stateMutability": "view",
      "type": "function"
    },
    {
      "inputs": [],
      "name": "manager",
      "outputs": [
        {
          "internalType": "address",
          "name": "",
          "type": "address"
        }
      ],
      "stateMutability": "view",
      "type": "function"
    },
    {
      "inputs": [
        {
          "internalType": "address",
          "name": "account",
          "type": "address"
        },
        {
          "internalType": "uint256",
          "name": "amount",
          "type": "uint256"
        }
      ],
      "name": "mint",
      "outputs": [],
      "stateMutability": "nonpayable",
      "type": "function"
    },
    {
      "inputs": [],
      "name": "name",
      "outputs": [
        {
          "internalType": "string",
          "name": "",
          "type": "string"
        }
      ],
      "stateMutability": "view",
      "type": "function"
    },
    {
      "inputs": [
        {
          "internalType": "address",
          "name": "owner",
          "type": "address"
        }
      ],
      "name": "nonces",
      "outputs": [
        {
          "internalType": "uint256",
          "name": "",
          "type": "uint256"
        }
      ],
      "stateMutability": "view",
      "type": "function"
    },
    {
      "inputs": [],
      "name": "oracle",
      "outputs": [
        {
          "internalType": "contract IOracle",
          "name": "",
          "type": "address"
        }
      ],
      "stateMutability": "view",
      "type": "function"
    },
    {
      "inputs": [
        {
          "internalType": "address",
          "name": "account",
          "type": "address"
        }
      ],
      "name": "paidTokenValue",
      "outputs": [
        {
          "internalType": "uint256",
          "name": "",
          "type": "uint256"
        }
      ],
      "stateMutability": "view",
      "type": "function"
    },
    {
      "inputs": [
        {
          "internalType": "address",
          "name": "owner",
          "type": "address"
        },
        {
          "internalType": "address",
          "name": "spender",
          "type": "address"
        },
        {
          "internalType": "uint256",
          "name": "value",
          "type": "uint256"
        },
        {
          "internalType": "uint256",
          "name": "deadline",
          "type": "uint256"
        },
        {
          "internalType": "uint8",
          "name": "v",
          "type": "uint8"
        },
        {
          "internalType": "bytes32",
          "name": "r",
          "type": "bytes32"
        },
        {
          "internalType": "bytes32",
          "name": "s",
          "type": "bytes32"
        }
      ],
      "name": "permit",
      "outputs": [],
      "stateMutability": "nonpayable",
      "type": "function"
    },
    {
      "inputs": [
        {
          "internalType": "address",
          "name": "token",
          "type": "address"
        }
      ],
      "name": "setCollateral",
      "outputs": [],
      "stateMutability": "nonpayable",
      "type": "function"
    },
    {
      "inputs": [
        {
          "components": [
            {
              "internalType": "address",
              "name": "item",
              "type": "address"
            },
            {
              "internalType": "int256",
              "name": "percentage",
              "type": "int256"
            },
            {
              "components": [
                {
                  "internalType": "address[]",
                  "name": "adapters",
                  "type": "address[]"
                },
                {
                  "internalType": "address[]",
                  "name": "path",
                  "type": "address[]"
                },
                {
                  "internalType": "bytes",
                  "name": "cache",
                  "type": "bytes"
                }
              ],
              "internalType": "struct StrategyTypes.TradeData",
              "name": "data",
              "type": "tuple"
            }
          ],
          "internalType": "struct StrategyTypes.StrategyItem[]",
          "name": "newItems",
          "type": "tuple[]"
        }
      ],
      "name": "setStructure",
      "outputs": [],
      "stateMutability": "nonpayable",
      "type": "function"
    },
    {
      "inputs": [],
      "name": "settleSynths",
      "outputs": [],
      "stateMutability": "nonpayable",
      "type": "function"
    },
    {
      "inputs": [],
      "name": "supportsSynths",
      "outputs": [
        {
          "internalType": "bool",
          "name": "",
          "type": "bool"
        }
      ],
      "stateMutability": "view",
      "type": "function"
    },
    {
      "inputs": [],
      "name": "symbol",
      "outputs": [
        {
          "internalType": "string",
          "name": "",
          "type": "string"
        }
      ],
      "stateMutability": "view",
      "type": "function"
    },
    {
      "inputs": [],
      "name": "synths",
      "outputs": [
        {
          "internalType": "address[]",
          "name": "",
          "type": "address[]"
        }
      ],
      "stateMutability": "view",
      "type": "function"
    },
    {
      "inputs": [],
      "name": "totalSupply",
      "outputs": [
        {
          "internalType": "uint256",
          "name": "",
          "type": "uint256"
        }
      ],
      "stateMutability": "view",
      "type": "function"
    },
    {
      "inputs": [
        {
          "internalType": "address",
          "name": "recipient",
          "type": "address"
        },
        {
          "internalType": "uint256",
          "name": "amount",
          "type": "uint256"
        }
      ],
      "name": "transfer",
      "outputs": [
        {
          "internalType": "bool",
          "name": "",
          "type": "bool"
        }
      ],
      "stateMutability": "nonpayable",
      "type": "function"
    },
    {
      "inputs": [
        {
          "internalType": "address",
          "name": "sender",
          "type": "address"
        },
        {
          "internalType": "address",
          "name": "recipient",
          "type": "address"
        },
        {
          "internalType": "uint256",
          "name": "amount",
          "type": "uint256"
        }
      ],
      "name": "transferFrom",
      "outputs": [
        {
          "internalType": "bool",
          "name": "",
          "type": "bool"
        }
      ],
      "stateMutability": "nonpayable",
      "type": "function"
    },
    {
      "inputs": [],
      "name": "unlock",
      "outputs": [],
      "stateMutability": "nonpayable",
      "type": "function"
    },
    {
      "inputs": [
        {
          "internalType": "address",
          "name": "newManager",
          "type": "address"
        }
      ],
      "name": "updateManager",
      "outputs": [],
      "stateMutability": "nonpayable",
      "type": "function"
    },
    {
      "inputs": [
        {
          "internalType": "address",
          "name": "signer",
          "type": "address"
        },
        {
          "internalType": "bool",
          "name": "add",
          "type": "bool"
        }
      ],
      "name": "updateSigner",
      "outputs": [],
      "stateMutability": "nonpayable",
      "type": "function"
    },
    {
      "inputs": [],
      "name": "updateTokenValue",
      "outputs": [],
      "stateMutability": "nonpayable",
      "type": "function"
    },
    {
      "inputs": [
        {
          "internalType": "uint256",
          "name": "total",
          "type": "uint256"
        },
        {
          "internalType": "uint256",
          "name": "supply",
          "type": "uint256"
        }
      ],
      "name": "updateTokenValue",
      "outputs": [],
      "stateMutability": "nonpayable",
      "type": "function"
    },
    {
      "inputs": [
        {
          "internalType": "address",
          "name": "item",
          "type": "address"
        },
        {
          "components": [
            {
              "internalType": "address[]",
              "name": "adapters",
              "type": "address[]"
            },
            {
              "internalType": "address[]",
              "name": "path",
              "type": "address[]"
            },
            {
              "internalType": "bytes",
              "name": "cache",
              "type": "bytes"
            }
          ],
          "internalType": "struct StrategyTypes.TradeData",
          "name": "data",
          "type": "tuple"
        }
      ],
      "name": "updateTradeData",
      "outputs": [],
      "stateMutability": "nonpayable",
      "type": "function"
    },
    {
      "inputs": [
        {
          "internalType": "string",
          "name": "newVersion",
          "type": "string"
        }
      ],
      "name": "updateVersion",
      "outputs": [],
      "stateMutability": "nonpayable",
      "type": "function"
    },
    {
      "inputs": [],
      "name": "version",
      "outputs": [
        {
          "internalType": "string",
          "name": "",
          "type": "string"
        }
      ],
      "stateMutability": "view",
      "type": "function"
    },
    {
      "inputs": [],
      "name": "whitelist",
      "outputs": [
        {
          "internalType": "contract IWhitelist",
          "name": "",
          "type": "address"
        }
      ],
      "stateMutability": "view",
      "type": "function"
    },
    {
      "inputs": [
        {
          "internalType": "uint256",
          "name": "amount",
          "type": "uint256"
        }
      ],
      "name": "withdrawAll",
      "outputs": [],
      "stateMutability": "nonpayable",
      "type": "function"
    },
    {
      "inputs": [
        {
          "internalType": "address[]",
          "name": "holders",
          "type": "address[]"
        }
      ],
      "name": "withdrawPerformanceFee",
      "outputs": [],
      "stateMutability": "nonpayable",
      "type": "function"
    },
    {
      "inputs": [],
      "name": "withdrawStreamingFee",
      "outputs": [],
      "stateMutability": "nonpayable",
      "type": "function"
    }
  ],
  "bytecode": "0x60806040523480156200001157600080fd5b50601854610100900460ff16806200002e57506200002e620000ab565b806200003d575060185460ff16155b620000655760405162461bcd60e51b81526004016200005c90620000b1565b60405180910390fd5b601854610100900460ff1615801562000091576018805460ff1961ff0019909116610100171660011790555b8015620000a4576018805461ff00191690555b50620000ff565b303b1590565b6020808252602e908201527f496e697469616c697a61626c653a20636f6e747261637420697320616c72656160408201526d191e481a5b9a5d1a585b1a5e995960921b606082015260800190565b6153dd806200010f6000396000f3fe608060405234801561001057600080fd5b50600436106102ae5760003560e01c80637ff171171161016e5780637ff17117146104b3578063803c8890146104c6578063886abef5146104ce5780638aac766b146104e15780638db16ff3146104e957806393e59dc1146104fc578063958e2d311461050457806395d89b41146105175780639a8a05921461051f5780639dc29fac146105275780639f1470501461053a578063a457c2d714610542578063a5d33ed514610555578063a69df4b51461055d578063a9059cbb14610565578063aa7f9bae14610578578063bfba81411461058b578063c06fad061461059e578063cf309012146105a6578063d505accf146105ae578063d81076a3146105c1578063d95a24b3146105d4578063da3e3397146105e7578063dbbc5aca146105fa578063dd62ed3e1461060d578063df3568d914610620578063f460590b14610633578063f77c479114610646578063f83d08ba1461064e576102ae565b806306fdde03146102b3578063095ea7b3146102d15780630b4be188146102f15780630dca59c1146103065780631434ffac1461031b5780631626ba7e146103305780631649741c1461035057806318160ddd1461035857806320c13b0b1461036057806323b872dd1461037357806330adf81f14610386578063313ce5671461038e578063336685fc146103a35780633644e515146103c357806339509351146103cb5780633ebbc9c4146103de57806340c10f19146103f1578063481c6a751461040457806349408949146104195780634a2f38a51461042157806354fd4d501461042957806358aba00f146104315780635a8c22bc146104445780636ee26c4e1461045757806370a082311461046a5780637240f9af1461047d5780637a1bb162146104905780637dc0d1d0146104985780637ecebe00146104a0575b600080fd5b6102bb610656565b6040516102c89190614cb6565b60405180910390f35b6102e46102df366004614581565b6106ec565b6040516102c89190614c0f565b6102f9610703565b6040516102c89190614c1a565b61030e610709565b6040516102c89190614bfc565b61032e6103293660046145ac565b61076a565b005b61034361033e366004614696565b610854565b6040516102c89190614ca1565b6102bb61088f565b6102f96108b6565b61034361036e3660046146d0565b6108bc565b6102e4610381366004614452565b6108ff565b6102f9610982565b610396610988565b6040516102c891906152c5565b6103b66103b13660046143e2565b610991565b6040516102c8919061522c565b6102f9610b12565b6102e46103d9366004614581565b610b18565b6102f96103ec3660046143e2565b610b4e565b61032e6103ff366004614581565b610b69565b61040c610ceb565b6040516102c89190614ae6565b6102e4610cfa565b61032e610d02565b6102bb611050565b61032e61043f3660046143e2565b6110b1565b6102e4610452366004614758565b61110f565b61032e61046536600461441a565b6112f3565b6102f96104783660046143e2565b6113b5565b61032e61048b366004614726565b6113e7565b6102f9611430565b61040c61143b565b6102f96104ae3660046143e2565b6114bd565b6102f96104c13660046143e2565b6114d8565b61030e6114f3565b61032e6104dc3660046143e2565b611553565b61032e61163f565b61032e6104f73660046145fe565b6116c2565b61040c611860565b61032e610512366004614821565b6118a5565b6102bb611f73565b6102f9611fd4565b6102f9610535366004614581565b611fd8565b61032e61200f565b6102e4610550366004614581565b6120a7565b6102f96120fa565b61032e612105565b6102e4610573366004614581565b612137565b6102f96105863660046143e2565b612144565b61032e610599366004614581565b61214f565b61030e612354565b6102e46123b4565b61032e6105bc366004614492565b6123bc565b61032e6105cf366004614630565b61251e565b61032e6105e2366004614452565b612551565b61032e6105f5366004614452565b6125a9565b61032e6106083660046148d4565b6125e7565b6102f961061b36600461441a565b61261f565b61032e61062e366004614534565b61264a565b61032e610641366004614507565b6126b6565b61040c61272c565b61032e61273b565b60068054604080516020601f60026000196101006001881615020190951694909404938401819004810282018101909252828152606093909290918301828280156106e25780601f106106b7576101008083540402835291602001916106e2565b820191906000526020600020905b8154815290600101906020018083116106c557829003601f168201915b5050505050905090565b60006106f933848461276d565b5060015b92915050565b600c5490565b606060158054806020026020016040519081016040528092919081815260200182805480156106e257602002820191906000526020600020905b81546001600160a01b03168152600190910190602001808311610743575050505050905090565b600f546001600160a01b0316331461079d5760405162461bcd60e51b815260040161079490614ddd565b60405180910390fd5b6107a6846127e7565b60607f230f11c7cc54d258ee9bfebf8292225b43b26633217971638b4a8364be584e17846001858530306040516024016107e59695949392919061528c565b60408051601f198184030181529190526020810180516001600160e01b03166001600160e01b031990931692909217909152905060005a905060008060008451602086018a86f490508061084b5760405162461bcd60e51b815260040161079490614d8a565b50505050505050565b6000806108618484612886565b905061086c816129a6565b61087e576001600160e01b0319610887565b630b135d3f60e11b5b949350505050565b6040518060400160405280601d815260200160008051602061536883398151915281525081565b60055490565b6000806108d2836108cc866129e5565b90612886565b90506108dd816129a6565b6108ef576001600160e01b0319610887565b6320c13b0b60e01b949350505050565b600061090c848484612a20565b604080518082018252601881527745524332303a20616c6c6f77616e636520746f6f206c6f7760401b6020808301919091526001600160a01b03871660009081526002825283812033808352925292909220546109779287929091610972918790612b07565b61276d565b5060015b9392505050565b60015481565b60095460ff1690565b610999614065565b6001600160a01b03821660009081526017602090815260409182902082518154608093810282018401909452606081018481529093919284928491840182828015610a0d57602002820191906000526020600020905b81546001600160a01b031681526001909101906020018083116109ef575b5050505050815260200160018201805480602002602001604051908101604052809291908181526020018280548015610a6f57602002820191906000526020600020905b81546001600160a01b03168152600190910190602001808311610a51575b5050509183525050600282810180546040805160206001841615610100026000190190931694909404601f81018390048302850183019091528084529381019390830182828015610b015780601f10610ad657610100808354040283529160200191610b01565b820191906000526020600020905b815481529060010190602001808311610ae457829003601f168201915b50505050508152505090505b919050565b60005481565b3360008181526002602090815260408083206001600160a01b038716845290915281205490916106f99185906109729086612b33565b6001600160a01b031660009081526016602052604090205490565b600f546001600160a01b03163314610b935760405162461bcd60e51b815260040161079490614ddd565b601054604080516316f0115b60e01b815290516000926001600160a01b0316916316f0115b916004808301926020929190829003018186803b158015610bd857600080fd5b505afa158015610bec573d6000803e3d6000fd5b505050506040513d601f19601f82011682018060405250810190610c1091906143fe565b600f54604051631d5f24ef60e11b8152919250600091610ca191869185916001600160a01b031690633abe49de90610c4c903090600401614ae6565b60206040518083038186803b158015610c6457600080fd5b505afa158015610c78573d6000803e3d6000fd5b505050506040513d601f19601f82011682018060405250810190610c9c919061467e565b612b58565b90508015610cb357610cb38282612cc2565b610cbd8484612d7d565b610cc682612e02565b5050600c546001600160a01b039092166000908152600d602052604090209190915550565b6011546001600160a01b031690565b601454151590565b610d0a610cfa565b1561104e576040516321f8a72160e01b815260009073823be81bbf96bec0e25ca13170f5aacb5b79ba83906321f8a72190610d4790600401615007565b602060405180830381600087803b158015610d6157600080fd5b505af1158015610d75573d6000803e3d6000fd5b505050506040513d601f19601f82011682018060405250810190610d9991906143fe565b6040516321f8a72160e01b815290915060009073823be81bbf96bec0e25ca13170f5aacb5b79ba83906321f8a72190610dd490600401615068565b602060405180830381600087803b158015610dee57600080fd5b505af1158015610e02573d6000803e3d6000fd5b505050506040513d601f19601f82011682018060405250810190610e2691906143fe565b6040516306c5a00b60e21b81529091506001600160a01b03831690631b16802c90610e55903090600401614bdb565b606060405180830381600087803b158015610e6f57600080fd5b505af1158015610e83573d6000803e3d6000fd5b505050506040513d601f19601f82011682018060405250810190610ea791906148f5565b50505060005b60145481101561104a57826001600160a01b0316631b16802c30846001600160a01b03166316b2213f60148681548110610ee357fe5b6000918252602091829020015460408051636a5c1cc960e11b815290516001600160a01b039092169263d4b8399292600480840193829003018186803b158015610f2c57600080fd5b505afa158015610f40573d6000803e3d6000fd5b505050506040513d601f19601f82011682018060405250810190610f6491906143fe565b6040518263ffffffff1660e01b8152600401610f809190614ae6565b60206040518083038186803b158015610f9857600080fd5b505afa158015610fac573d6000803e3d6000fd5b505050506040513d601f19601f82011682018060405250810190610fd0919061467e565b6040518363ffffffff1660e01b8152600401610fed929190614bc2565b606060405180830381600087803b15801561100757600080fd5b505af115801561101b573d6000803e3d6000fd5b505050506040513d601f19601f8201168201806040525081019061103f91906148f5565b505050600101610ead565b5050505b565b60088054604080516020601f60026000196101006001881615020190951694909404938401819004810282018101909252828152606093909290918301828280156106e25780601f106106b7576101008083540402835291602001916106e2565b6110b9612e40565b601180546001600160a01b0319166001600160a01b0383161790556040517f5c18ab5c697b63d102fc7e14c77bfaef0f1013206eca139920fd389277814e0990611104908390614ae6565b60405180910390a150565b601854600090610100900460ff168061112b575061112b612e6a565b80611139575060185460ff16155b6111555760405162461bcd60e51b815260040161079490614f0f565b601854610100900460ff16158015611180576018805460ff1961ff0019909116610100171660011790555b600f80546001600160a01b038088166001600160a01b03199283161790925560108054821633179055601180549287169290911691909117905587516111cd9060069060208b0190614086565b5086516111e19060079060208a0190614086565b506009805460ff191660121790558551611202906008906020890190614086565b50670de0b6b3a7640000600c5542600b557f6e71edae12b1b97f4d1f60370fef10105fa2faae0126114a169c64845d6126c960015561123f612e70565b8251156112d257600f54604051636aa8278160e11b81526001600160a01b039091169063d5504f02906112789030908790600401614b14565b60206040518083038186803b15801561129057600080fd5b505afa1580156112a4573d6000803e3d6000fd5b505050506040513d601f19601f820116820180604052508101906112c89190614662565b506112d283612ef9565b6001915080156112e8576018805461ff00191690555b509695505050505050565b6112fb613565565b611303612e40565b61130c826127e7565b60607f1e83409a4600994e83773c811443f8c040c23a89ea11e24724996a8b477016a1826040516024016113409190614ae6565b60408051601f198184030181529190526020810180516001600160e01b03166001600160e01b031990931692909217909152905060005a905060008060008451602086018886f49050806113a65760405162461bcd60e51b81526004016107949061514e565b6113ae61358c565b5050505050565b6000806113c183613593565b6001600160a01b03841660009081526003602052604090205490915061097b9082613739565b6010546001600160a01b031633146114115760405162461bcd60e51b815260040161079490614d20565b8051611424906008906020840190614086565b5061142d612e70565b50565b6623e2d0aef17eb581565b601054604080516307dc0d1d60e41b815290516000926001600160a01b031691637dc0d1d0916004808301926020929190829003018186803b15801561148057600080fd5b505afa158015611494573d6000803e3d6000fd5b505050506040513d601f19601f820116820180604052508101906114b891906143fe565b905090565b6001600160a01b031660009081526004602052604090205490565b6001600160a01b03166000908152600d602052604090205490565b606060148054806020026020016040519081016040528092919081815260200182805480156106e2576020028201919060005260206000209081546001600160a01b03168152600190910190602001808311610743575050505050905090565b61155c336127e7565b73b53c1a33016b2dc2ff3653530bff1848a515c8c56001600160a01b0316630261bf8b6040518163ffffffff1660e01b8152600401602060405180830381600087803b1580156115ab57600080fd5b505af11580156115bf573d6000803e3d6000fd5b505050506040513d601f19601f820116820180604052508101906115e391906143fe565b6001600160a01b0316635a3b74b98260016040518363ffffffff1660e01b8152600401611611929190614ba7565b600060405180830381600087803b15801561162b57600080fd5b505af11580156113ae573d6000803e3d6000fd5b601054604080516316f0115b60e01b8152905161104e926001600160a01b0316916316f0115b916004808301926020929190829003018186803b15801561168557600080fd5b505afa158015611699573d6000803e3d6000fd5b505050506040513d601f19601f820116820180604052508101906116bd91906143fe565b61377b565b6116ca613565565b6116d2612e40565b6116da61200f565b601054604080516316f0115b60e01b815290516000926001600160a01b0316916316f0115b916004808301926020929190829003018186803b15801561171f57600080fd5b505afa158015611733573d6000803e3d6000fd5b505050506040513d601f19601f8201168201806040525081019061175791906143fe565b600f54604051631d5f24ef60e11b81529192506000916001600160a01b0390911690633abe49de9061178d903090600401614ae6565b60206040518083038186803b1580156117a557600080fd5b505afa1580156117b9573d6000803e3d6000fd5b505050506040513d601f19601f820116820180604052508101906117dd919061467e565b90506000805b845181101561181e5761181461180d8683815181106117fe57fe5b60200260200101518686612b58565b8390612b33565b91506001016117e3565b506000811161183f5760405162461bcd60e51b8152600401610794906150df565b6118498382612cc2565b61185283612e02565b61185a61358c565b50505050565b601054604080516393e59dc160e01b815290516000926001600160a01b0316916393e59dc1916004808301926020929190829003018186803b15801561148057600080fd5b6118ad613565565b601554156118cd5760405162461bcd60e51b815260040161079490614daf565b600081116118ed5760405162461bcd60e51b815260040161079490615046565b6118f5610d02565b6005546000906119053384613812565b92506119238161191d85670de0b6b3a76400006138c5565b906138ff565b915050600061193061143b565b9050600061193c610cfa565b61194b57601354600101611956565b601454601354016002015b90506060816001600160401b038111801561197057600080fd5b5060405190808252806020026020018201604052801561199a578160200160208202803683370190505b5090506060826001600160401b03811180156119b557600080fd5b506040519080825280602002602001820160405280156119df578160200160208202803683370190505b50905060005b601354811015611ae8576000601382815481106119fe57fe5b60009182526020822001546040516370a0823160e01b81526001600160a01b03909116925082906370a0823190611a39903090600401614ae6565b60206040518083038186803b158015611a5157600080fd5b505afa158015611a65573d6000803e3d6000fd5b505050506040513d601f19601f82011682018060405250810190611a89919061467e565b9050611aa1670de0b6b3a764000061191d838b6138c5565b848481518110611aad57fe5b60200260200101818152505081858481518110611ac657fe5b6001600160a01b039092166020928302919091019091015250506001016119e5565b50611af1610cfa565b15611d5e576013545b60028403811015611c0457601354601480546000928403908110611b1a57fe5b60009182526020822001546040516370a0823160e01b81526001600160a01b03909116925082906370a0823190611b55903090600401614ae6565b60206040518083038186803b158015611b6d57600080fd5b505afa158015611b81573d6000803e3d6000fd5b505050506040513d601f19601f82011682018060405250810190611ba5919061467e565b9050611bbd670de0b6b3a764000061191d838b6138c5565b848481518110611bc957fe5b60200260200101818152505081858481518110611be257fe5b6001600160a01b03909216602092830291909101909101525050600101611afa565b506000846001600160a01b031663c92577756040518163ffffffff1660e01b815260040160206040518083038186803b158015611c4057600080fd5b505afa158015611c54573d6000803e3d6000fd5b505050506040513d601f19601f82011682018060405250810190611c7891906143fe565b90506000816001600160a01b03166370a08231306040518263ffffffff1660e01b8152600401611ca89190614ae6565b60206040518083038186803b158015611cc057600080fd5b505afa158015611cd4573d6000803e3d6000fd5b505050506040513d601f19601f82011682018060405250810190611cf8919061467e565b9050611d10670de0b6b3a764000061191d838a6138c5565b836002870381518110611d1f57fe5b60200260200101818152505081846002870381518110611d3b57fe5b60200260200101906001600160a01b031690816001600160a01b03168152505050505b6000846001600160a01b0316633fc8cef36040518163ffffffff1660e01b815260040160206040518083038186803b158015611d9957600080fd5b505afa158015611dad573d6000803e3d6000fd5b505050506040513d601f19601f82011682018060405250810190611dd191906143fe565b90506000816001600160a01b03166370a08231306040518263ffffffff1660e01b8152600401611e019190614ae6565b60206040518083038186803b158015611e1957600080fd5b505afa158015611e2d573d6000803e3d6000fd5b505050506040513d601f19601f82011682018060405250810190611e51919061467e565b9050611e69670de0b6b3a764000061191d838a6138c5565b836001870381518110611e7857fe5b60200260200101818152505081846001870381518110611e9457fe5b60200260200101906001600160a01b031690816001600160a01b03168152505060005b85811015611f27576000848281518110611ecd57fe5b60200260200101511115611f1f57611f1f33858381518110611eeb57fe5b6020026020010151878481518110611eff57fe5b60200260200101516001600160a01b031661393e9092919063ffffffff16565b600101611eb7565b507f2fa8cfbc30115842727e3ab1cbfce604f39b46189bddaceb816bc5d04352992b8884604051611f5992919061523f565b60405180910390a1611f6961358c565b5050505050505050565b60078054604080516020601f60026000196101006001881615020190951694909404938401819004810282018101909252828152606093909290918301828280156106e25780601f106106b7576101008083540402835291602001916106e2565b4690565b600f546000906001600160a01b031633146120055760405162461bcd60e51b815260040161079490614ddd565b61097b8383613812565b600061201961143b565b6001600160a01b031663ff4a1902306040518263ffffffff1660e01b81526004016120449190614ae6565b60006040518083038186803b15801561205c57600080fd5b505afa158015612070573d6000803e3d6000fd5b505050506040513d6000823e601f3d908101601f191682016040526120989190810190614839565b50905061142d81600554613994565b3360009081526002602090815260408083206001600160a01b0386168452909152812054828110156120eb5760405162461bcd60e51b8152600401610794906151ca565b61097733856109728487613739565b66071afd498d000081565b600f546001600160a01b0316331461212f5760405162461bcd60e51b815260040161079490614ddd565b61104e61358c565b60006106f9338484612a20565b60006106fd82613593565b600f546001600160a01b031633146121795760405162461bcd60e51b815260040161079490614ddd565b612206828261218661143b565b6001600160a01b031663c92577756040518163ffffffff1660e01b815260040160206040518083038186803b1580156121be57600080fd5b505afa1580156121d2573d6000803e3d6000fd5b505050506040513d601f19601f820116820180604052508101906121f691906143fe565b6001600160a01b031691906139b7565b6040516321f8a72160e01b815260009073823be81bbf96bec0e25ca13170f5aacb5b79ba83906321f8a7219061223e9060040161520f565b602060405180830381600087803b15801561225857600080fd5b505af115801561226c573d6000803e3d6000fd5b505050506040513d601f19601f8201168201806040525081019061229091906143fe565b9050816122fa57604051635c8ab77d60e11b81526001600160a01b0382169063b9156efa906122c3908690600401614ae6565b600060405180830381600087803b1580156122dd57600080fd5b505af11580156122f1573d6000803e3d6000fd5b5050505061104a565b60405163447fbc6360e01b81526001600160a01b0382169063447fbc6390612326908690600401614ae6565b600060405180830381600087803b15801561234057600080fd5b505af115801561084b573d6000803e3d6000fd5b606060138054806020026020016040519081016040528092919081815260200182805480156106e2576020028201919060005260206000209081546001600160a01b03168152600190910190602001808311610743575050505050905090565b600e54151590565b834211156123dc5760405162461bcd60e51b81526004016107949061501c565b600080546001546001600160a01b038a16835260046020908152604080852054905161241193928d928d928d928d9101614c23565b60405160208183030381529060405280519060200120604051602001612438929190614a72565b6040516020818303038152906040528051906020012090506000600182868686604051600081526020016040526040516124759493929190614c83565b6020604051602081039080840390855afa158015612497573d6000803e3d6000fd5b5050604051601f1901519150506001600160a01b038116158015906124cd5750886001600160a01b0316816001600160a01b0316145b6124e95760405162461bcd60e51b815260040161079490614e7c565b6001600160a01b03891660009081526004602052604090208054600101905561251389898961276d565b505050505050505050565b600f546001600160a01b031633146125485760405162461bcd60e51b815260040161079490614ddd565b61142d81612ef9565b600f546001600160a01b0316331461257b5760405162461bcd60e51b815260040161079490614ddd565b604051630c04a8a160e41b81526001600160a01b0384169063c04a8a10906123269085908590600401614bc2565b600f546001600160a01b031633146125d35760405162461bcd60e51b815260040161079490614ddd565b61104a6001600160a01b03841683836139b7565b600f546001600160a01b031633146126115760405162461bcd60e51b815260040161079490614ddd565b61261b8282613994565b5050565b6001600160a01b03918216600090815260026020908152604080832093909416825291909152205490565b612652612e40565b6001600160a01b0382166000908152601760209081526040909120825180518493612681928492910190614104565b50602082810151805161269a9260018501920190614104565b50604082015180516113ae916002840191602090910190614086565b6126be612e40565b806126ca5760006126cd565b60015b6001600160a01b0383166000908152601260205260409081902060ff92909216909155517f863d338cad74814b108a06288ad5e0e80d56495e0332238b1d2cdcfa0ca8e5ce906127209084908490614ba7565b60405180910390a15050565b600f546001600160a01b031690565b600f546001600160a01b031633146127655760405162461bcd60e51b815260040161079490614ddd565b61104e613565565b61277683613a7a565b61277f82613a7a565b6001600160a01b0380841660008181526002602090815260408083209487168084529490915290819020849055517f8c5be1e5ebec7d5bd14f71427d1e84f3dd0314c0f7b2291e5b200ac8c7c3b925906127da908590614c1a565b60405180910390a3505050565b6127ef611860565b6001600160a01b031663d8b964e6826040518263ffffffff1660e01b815260040161281a9190614ae6565b60206040518083038186803b15801561283257600080fd5b505afa158015612846573d6000803e3d6000fd5b505050506040513d601f19601f8201168201806040525081019061286a9190614662565b61142d5760405162461bcd60e51b815260040161079490614ee9565b600081516041146128a95760405162461bcd60e51b815260040161079490614d53565b60208201516040830151606084015160001a6fa2a8918ca85bafe22016d0b997e4df60600160ff1b038211156128f15760405162461bcd60e51b815260040161079490614ea7565b8060ff16601b148061290657508060ff16601c145b6129225760405162461bcd60e51b815260040161079490614f5d565b6000600187838686604051600081526020016040526040516129479493929190614c83565b6020604051602081039080840390855afa158015612969573d6000803e3d6000fd5b5050604051601f1901519150506001600160a01b03811661299c5760405162461bcd60e51b815260040161079490614cc9565b9695505050505050565b6011546000906001600160a01b03838116911614156129c757506001610b0d565b506001600160a01b0316600090815260126020526040902054151590565b60006129f18251613aa0565b82604051602001612a03929190614a8d565b604051602081830303815290604052805190602001209050919050565b612a2983613a7a565b612a3282613a7a565b612a3c8383613b79565b604080518082018252601d81526000805160206153688339815191526020808301919091526001600160a01b038616600090815260039091529190912054612a85918390612b07565b6001600160a01b038085166000908152600360205260408082209390935590841681522054612ab49082612b33565b6001600160a01b038316600090815260036020526040902055612ad683613cc3565b816001600160a01b0316836001600160a01b0316600080516020615388833981519152836040516127da9190614c1a565b60008184841115612b2b5760405162461bcd60e51b81526004016107949190614cb6565b505050900390565b60008282018381101561097b5760405162461bcd60e51b815260040161079490614e06565b6000826001600160a01b0316846001600160a01b03161415612b7c5750600061097b565b6001600160a01b0384166000908152600d602052604090205480612bc0575050600c546001600160a01b0384166000908152600d602052604081209190915561097b565b80600c541115612cb7576001600160a01b038516600090815260036020526040812054600c54909190612bf7908390859088613cfa565b90508015612cb457600c546001600160a01b0388166000908152600d6020526040902055612c258282613739565b6001600160a01b0380891660008181526003602052604090819020939093556011549251929091169160008051602061538883398151915290612c69908590614c1a565b60405180910390a37f620154c7367c3805aa5a57be3421bcd8ae0de705b07bb7880c7ebdd1eff842378782604051612ca2929190614bc2565b60405180910390a1925061097b915050565b50505b506000949350505050565b6000612cd66103e861191d8461012c6138c5565b9050612d06612ce58383613739565b6011546001600160a01b031660009081526003602052604090205490612b33565b6011546001600160a01b039081166000908152600360205260408082209390935590851681522054612d389082612b33565b6001600160a01b0380851660008181526003602052604090819020939093556011549251909290911690600080516020615388833981519152906127da908590614c1a565b612d8682613a7a565b600554612d939082612b33565b6005556001600160a01b038216600090815260036020526040902054612db99082612b33565b6001600160a01b03831660008181526003602052604080822093909355915190919060008051602061538883398151915290612df6908590614c1a565b60405180910390a35050565b6001600160a01b038116600090815260036020526040902054600554612e3a916623e2d0aef17eb591612e3491613739565b906138c5565b600a5550565b6011546001600160a01b0316331461104e5760405162461bcd60e51b815260040161079490614cfb565b303b1590565b7f8b73c3c69bb8fe3d512ecc4cf759cc79239f7b179b0ffacaa9a75d522b39400f6006604051612ea09190614a02565b60405180910390206008604051612eb79190614a02565b6040518091039020612ec7611fd4565b30604051602001612edc959493929190614c57565b60408051601f198184030181529190528051602090910120600055565b6000612f0361143b565b90506000816001600160a01b0316639d23c4c76040518163ffffffff1660e01b815260040160206040518083038186803b158015612f4057600080fd5b505afa158015612f54573d6000803e3d6000fd5b505050506040513d601f19601f82011682018060405250810190612f7891906143fe565b90506000826001600160a01b0316633fc8cef36040518163ffffffff1660e01b815260040160206040518083038186803b158015612fb557600080fd5b505afa158015612fc9573d6000803e3d6000fd5b505050506040513d601f19601f82011682018060405250810190612fed91906143fe565b90506000836001600160a01b031663c92577756040518163ffffffff1660e01b815260040160206040518083038186803b15801561302a57600080fd5b505afa15801561303e573d6000803e3d6000fd5b505050506040513d601f19601f8201168201806040525081019061306291906143fe565b6001600160a01b03808416600090815260166020526040808220829055828416825281208190559081527ff539118ee66ce55186c75e0ea7f139afe1c3fc67a370a26ada03d20328ba5fea8190559091505b6013548110156130fc5760166000601383815481106130cf57fe5b60009182526020808320909101546001600160a01b031683528201929092526040018120556001016130b4565b5060005b60155481101561314857601660006015838154811061311b57fe5b60009182526020808320909101546001600160a01b03168352820192909252604001812055600101613100565b5060005b60145481101561319457601660006014838154811061316757fe5b60009182526020808320909101546001600160a01b0316835282019290925260400181205560010161314c565b506131a160156000614165565b6131ad60136000614165565b6131b960146000614165565b6000805b86518110156134895760008782815181106131d457fe5b60200260200101516000015190508782815181106131ee57fe5b6020908102919091018101516040908101516001600160a01b03841660009081526017845291909120815180519293919261322c9284920190614104565b5060208281015180516132459260018501920190614104565b5060408201518051613261916002840191602090910190614086565b5090505087828151811061327157fe5b60200260200101516020015160166000836001600160a01b03166001600160a01b03168152602001908152602001600020819055506000866001600160a01b03166397d39de4836040518263ffffffff1660e01b81526004016132d49190614ae6565b60206040518083038186803b1580156132ec57600080fd5b505afa158015613300573d6000803e3d6000fd5b505050506040513d601f19601f82011682018060405250810190613324919061467e565b600381111561332f57fe5b9050600081600381111561333f57fe5b141561339557601380546001810182556000919091527f66de8ffda797e3de9c05e8fc57b3bf0ec28a930d40b0d285d93c06501cf6a0900180546001600160a01b0319166001600160a01b03841617905561347f565b60018160038111156133a357fe5b141561341f576001600160a01b0382166000908152601660205260409020546133cd908590613d1f565b601480546001810182556000919091527fce6d7b5282bd9a3661ae061feed1dbda4e52ab073b1f9285be6e155d9c38d4ec0180546001600160a01b0319166001600160a01b038516179055935061347f565b600281600381111561342d57fe5b141561347f57601580546001810182556000919091527f55f448fdea98c4d29eb340757ef0a66cd03dbb9538908a6a81d96026b71ec4750180546001600160a01b0319166001600160a01b0384161790555b50506001016131bd565b5060008113156134f2576001600160a01b0382166000908152601660205260409020546134b7908290613d1f565b6001600160a01b0360005260166020527ff539118ee66ce55186c75e0ea7f139afe1c3fc67a370a26ada03d20328ba5fea819055905061355d565b6001600160a01b038216600090815260166020526040812054131561355d57601380546001810182556000919091527f66de8ffda797e3de9c05e8fc57b3bf0ec28a930d40b0d285d93c06501cf6a0900180546001600160a01b0319166001600160a01b0384161790555b505050505050565b600e54156135855760405162461bcd60e51b815260040161079490614f9f565b6001600e55565b6000600e55565b6001600160a01b0381166000908152600360205260408120541561373157601060009054906101000a90046001600160a01b03166001600160a01b03166316f0115b6040518163ffffffff1660e01b815260040160206040518083038186803b1580156135ff57600080fd5b505afa158015613613573d6000803e3d6000fd5b505050506040513d601f19601f8201168201806040525081019061363791906143fe565b6001600160a01b0316826001600160a01b0316141561365857506000610b0d565b6001600160a01b0382166000908152600d6020526040902054600c541115613731576001600160a01b03808316600090815260036020908152604080832054600d9092529182902054600c54600f549351631d5f24ef60e11b815261372a9593949293919290911690633abe49de906136d5903090600401614ae6565b60206040518083038186803b1580156136ed57600080fd5b505afa158015613701573d6000803e3d6000fd5b505050506040513d601f19601f82011682018060405250810190613725919061467e565b613cfa565b9050610b0d565b506000919050565b600061097b83836040518060400160405280601e81526020017f536166654d6174683a207375627472616374696f6e206f766572666c6f770000815250612b07565b6000613792600b544261373990919063ffffffff16565b9050801561261b5760006137c5670de0b6b3a764000061191d6301e1338061191d86600a546138c590919063ffffffff16565b90506137d18382612d7d565b42600b556040517f66c77f845ffc734f7250e8a5399169a71b617eedc0063f899cf6c7db19d6b56290613805908390614c1a565b60405180910390a1505050565b600080601060009054906101000a90046001600160a01b03166001600160a01b03166316f0115b6040518163ffffffff1660e01b815260040160206040518083038186803b15801561386357600080fd5b505afa158015613877573d6000803e3d6000fd5b505050506040513d601f19601f8201168201806040525081019061389b91906143fe565b90506138a8848285613d65565b92506138b48484613e00565b6138bd81612e02565b509092915050565b6000826138d4575060006106fd565b828202828482816138e157fe5b041461097b5760405162461bcd60e51b815260040161079490614fc6565b600061097b83836040518060400160405280601a815260200179536166654d6174683a206469766973696f6e206279207a65726f60301b815250613eb6565b61104a8363a9059cbb60e01b848460405160240161395d929190614bc2565b60408051601f198184030181529190526020810180516001600160e01b03166001600160e01b031990931692909217909152613eed565b801561261b576139b08161191d84670de0b6b3a76400006138c5565b600c555050565b801580613a3f5750604051636eb1769f60e11b81526001600160a01b0384169063dd62ed3e906139ed9030908690600401614afa565b60206040518083038186803b158015613a0557600080fd5b505afa158015613a19573d6000803e3d6000fd5b505050506040513d601f19601f82011682018060405250810190613a3d919061467e565b155b613a5b5760405162461bcd60e51b815260040161079490615174565b61104a8363095ea7b360e01b848460405160240161395d929190614bc2565b6001600160a01b03811661142d5760405162461bcd60e51b81526004016107949061507a565b606081613ac557506040805180820190915260018152600360fc1b6020820152610b0d565b818060005b8115613ade57600101600a82049150613aca565b6060816001600160401b0381118015613af657600080fd5b506040519080825280601f01601f191660200182016040528015613b21576020820181803683370190505b50905060001982015b8415613b6f57600a850660300160f81b82828060019003935081518110613b4d57fe5b60200101906001600160f81b031916908160001a905350600a85049450613b2a565b5095945050505050565b601054604080516316f0115b60e01b815290516000926001600160a01b0316916316f0115b916004808301926020929190829003018186803b158015613bbe57600080fd5b505afa158015613bd2573d6000803e3d6000fd5b505050506040513d601f19601f82011682018060405250810190613bf691906143fe565b9050613c018161377b565b600f54604051631d5f24ef60e11b81526000916001600160a01b031690633abe49de90613c32903090600401614ae6565b60206040518083038186803b158015613c4a57600080fd5b505afa158015613c5e573d6000803e3d6000fd5b505050506040513d601f19601f82011682018060405250810190613c82919061467e565b90506000613c91858484612b58565b9050613ca8613ca1858585612b58565b8290612b33565b905080156113ae57613cba8382612cc2565b6113ae83612e02565b6001600160a01b03811660009081526003602052604090205461142d576001600160a01b03166000908152600d6020526040812055565b600080613d078486613739565b905061299c8461191d6103e88187612e348c886138c5565b6000828201818312801590613d345750838112155b80613d495750600083128015613d4957508381125b61097b5760405162461bcd60e51b815260040161079490614e3b565b6000826001600160a01b0316846001600160a01b03161415613d8857508061097b565b6000613da7670de0b6b3a764000061191d8566071afd498d00006138c5565b9050613db4858583612a20565b7fc18340ba98721bcff47f10f30da90ced66f2b96b9afed4cbdf4e0184b4a704698582604051613de5929190614bc2565b60405180910390a1613df78382613739565b95945050505050565b613e0982613a7a565b604080518082018252601d81526000805160206153688339815191526020808301919091526001600160a01b038516600090815260039091529190912054613e52918390612b07565b6001600160a01b038316600090815260036020526040902055600554613e789082613739565b600555613e8482613cc3565b60006001600160a01b0316826001600160a01b031660008051602061538883398151915283604051612df69190614c1a565b60008183613ed75760405162461bcd60e51b81526004016107949190614cb6565b506000838581613ee357fe5b0495945050505050565b6060613f42826040518060400160405280602081526020017f5361666545524332303a206c6f772d6c6576656c2063616c6c206661696c6564815250856001600160a01b0316613f7c9092919063ffffffff16565b80519091501561104a5780806020019051810190613f609190614662565b61104a5760405162461bcd60e51b815260040161079490615104565b6060610887848460008585613f9085614026565b613fac5760405162461bcd60e51b8152600401610794906150a8565b60006060866001600160a01b03168587604051613fc991906149e6565b60006040518083038185875af1925050503d8060008114614006576040519150601f19603f3d011682016040523d82523d6000602084013e61400b565b606091505b509150915061401b82828661402c565b979650505050505050565b3b151590565b6060831561403b57508161097b565b82511561404b5782518084602001fd5b8160405162461bcd60e51b81526004016107949190614cb6565b60405180606001604052806060815260200160608152602001606081525090565b828054600181600116156101000203166002900490600052602060002090601f016020900481019282601f106140c757805160ff19168380011785556140f4565b828001600101855582156140f4579182015b828111156140f45782518255916020019190600101906140d9565b5061410092915061417f565b5090565b828054828255906000526020600020908101928215614159579160200282015b8281111561415957825182546001600160a01b0319166001600160a01b03909116178255602090920191600190910190614124565b50614100929150614194565b508054600082559060005260206000209081019061142d91905b5b808211156141005760008155600101614180565b5b808211156141005780546001600160a01b0319168155600101614195565b80356106fd81615344565b600082601f8301126141ce578081fd5b81356141e16141dc826152f9565b6152d3565b81815291506020808301908481018184028601820187101561420257600080fd5b60005b8481101561422a57813561421881615344565b84529282019290820190600101614205565b505050505092915050565b600082601f830112614245578081fd5b81356142536141dc826152f9565b818152915060208083019084810160005b8481101561422a5781358701606080601f19838c0301121561428557600080fd5b61428e816152d3565b8583013561429b81615344565b81526040838101358783015291830135916001600160401b038311156142c057600080fd5b6142ce8c888587010161434e565b90820152865250509282019290820190600101614264565b600082601f8301126142f6578081fd5b81356001600160401b0381111561430b578182fd5b61431e601f8201601f19166020016152d3565b915080825283602082850101111561433557600080fd5b8060208401602084013760009082016020015292915050565b60006060828403121561435f578081fd5b61436960606152d3565b905081356001600160401b038082111561438257600080fd5b61438e858386016141be565b835260208401359150808211156143a457600080fd5b6143b0858386016141be565b602084015260408401359150808211156143c957600080fd5b506143d6848285016142e6565b60408301525092915050565b6000602082840312156143f3578081fd5b813561097b81615344565b60006020828403121561440f578081fd5b815161097b81615344565b6000806040838503121561442c578081fd5b823561443781615344565b9150602083013561444781615344565b809150509250929050565b600080600060608486031215614466578081fd5b833561447181615344565b9250602084013561448181615344565b929592945050506040919091013590565b600080600080600080600060e0888a0312156144ac578283fd5b87356144b781615344565b965060208801356144c781615344565b95506040880135945060608801359350608088013560ff811681146144ea578384fd5b9699959850939692959460a0840135945060c09093013592915050565b60008060408385031215614519578182fd5b823561452481615344565b9150602083013561444781615359565b60008060408385031215614546578182fd5b823561455181615344565b915060208301356001600160401b0381111561456b578182fd5b6145778582860161434e565b9150509250929050565b60008060408385031215614593578182fd5b823561459e81615344565b946020939093013593505050565b600080600080608085870312156145c1578182fd5b84356145cc81615344565b93506020850135925060408501356145e381615344565b915060608501356145f381615344565b939692955090935050565b60006020828403121561460f578081fd5b81356001600160401b03811115614624578182fd5b610887848285016141be565b600060208284031215614641578081fd5b81356001600160401b03811115614656578182fd5b61088784828501614235565b600060208284031215614673578081fd5b815161097b81615359565b60006020828403121561468f578081fd5b5051919050565b600080604083850312156146a8578182fd5b8235915060208301356001600160401b038111156146c4578182fd5b614577858286016142e6565b600080604083850312156146e2578182fd5b82356001600160401b03808211156146f8578384fd5b614704868387016142e6565b93506020850135915080821115614719578283fd5b50614577858286016142e6565b600060208284031215614737578081fd5b81356001600160401b0381111561474c578182fd5b610887848285016142e6565b60008060008060008060c08789031215614770578384fd5b86356001600160401b0380821115614786578586fd5b6147928a838b016142e6565b975060208901359150808211156147a7578586fd5b6147b38a838b016142e6565b965060408901359150808211156147c8578586fd5b6147d48a838b016142e6565b95506147e38a60608b016141b3565b94506147f28a60808b016141b3565b935060a0890135915080821115614807578283fd5b5061481489828a01614235565b9150509295509295509295565b600060208284031215614832578081fd5b5035919050565b6000806040838503121561484b578182fd5b825191506020808401516001600160401b03811115614868578283fd5b8401601f81018613614878578283fd5b80516148866141dc826152f9565b81815283810190838501858402850186018a10156148a2578687fd5b8694505b838510156148c45780518352600194909401939185019185016148a6565b5080955050505050509250929050565b600080604083850312156148e6578182fd5b50508035926020909101359150565b600080600060608486031215614909578081fd5b8351925060208401519150604084015190509250925092565b6001600160a01b03169052565b6000815180845260208085019450808401835b838110156149675781516001600160a01b031687529582019590820190600101614942565b509495945050505050565b6000815180845261498a816020860160208601615318565b601f01601f19169290920160200192915050565b60008151606084526149b3606085018261492f565b9050602083015184820360208601526149cc828261492f565b91505060408301518482036040860152613df78282614972565b600082516149f8818460208701615318565b9190910192915050565b6000808354600180821660008114614a215760018114614a3857614a67565b60ff198316865260028304607f1686019350614a67565b600283048786526020808720875b83811015614a5f5781548a820152908501908201614a46565b505050860193505b509195945050505050565b61190160f01b81526002810192909252602282015260420190565b790ca2ba3432b932bab69029b4b3b732b21026b2b9b9b0b3b29d0560311b81528251600090614ac381601a850160208801615318565b835190830190614ada81601a840160208801615318565b01601a01949350505050565b6001600160a01b0391909116815260200190565b6001600160a01b0392831681529116602082015260400190565b6001600160a01b0383168152604060208083018290528351838301819052600092916060918286019080830287018401888401875b83811015614b9757605f198a84030185528151614b67848251614922565b8087015184880152880151888401889052614b848885018261499e565b9587019593505090850190600101614b49565b50909a9950505050505050505050565b6001600160a01b039290921682521515602082015260400190565b6001600160a01b03929092168252602082015260400190565b6001600160a01b03919091168152631cd554d160e21b602082015260400190565b60006020825261097b602083018461492f565b901515815260200190565b90815260200190565b9586526001600160a01b0394851660208701529290931660408501526060840152608083019190915260a082015260c00190565b9485526020850193909352604084019190915260608301526001600160a01b0316608082015260a00190565b93845260ff9290921660208401526040830152606082015260800190565b6001600160e01b031991909116815260200190565b60006020825261097b6020830184614972565b60208082526018908201527745434453413a20696e76616c6964207369676e617475726560401b604082015260600190565b6020808252600b908201526a2737ba1036b0b730b3b2b960a91b604082015260600190565b6020808252601990820152784f6e6c7920537472617465677950726f7879466163746f727960381b604082015260600190565b6020808252601f908201527f45434453413a20696e76616c6964207369676e6174757265206c656e67746800604082015260600190565b6020808252600b908201526a14ddd85c0819985a5b195960aa1b604082015260600190565b60208082526014908201527310d85b9b9bdd081dda5d1a191c985dc81919589d60621b604082015260600190565b6020808252600f908201526e436f6e74726f6c6c6572206f6e6c7960881b604082015260600190565b6020808252601b908201527a536166654d6174683a206164646974696f6e206f766572666c6f7760281b604082015260600190565b60208082526021908201527f5369676e6564536166654d6174683a206164646974696f6e206f766572666c6f6040820152607760f81b606082015260800190565b602080825260119082015270496e76616c6964207369676e617475726560781b604082015260600190565b60208082526022908201527f45434453413a20696e76616c6964207369676e6174757265202773272076616c604082015261756560f01b606082015260800190565b6020808252600c908201526b139bdd08185c1c1c9bdd995960a21b604082015260600190565b6020808252602e908201527f496e697469616c697a61626c653a20636f6e747261637420697320616c72656160408201526d191e481a5b9a5d1a585b1a5e995960921b606082015260800190565b60208082526022908201527f45434453413a20696e76616c6964207369676e6174757265202776272076616c604082015261756560f01b606082015260800190565b6020808252600d908201526c4e6f205265656e7472616e637960981b604082015260600190565b60208082526021908201527f536166654d6174683a206d756c7469706c69636174696f6e206f766572666c6f6040820152607760f81b606082015260800190565b6822bc31b430b733b2b960b91b815260200190565b60208082526010908201526f4578706972656420646561646c696e6560801b604082015260600190565b6020808252600890820152670c08185b5bdd5b9d60c21b604082015260600190565b6524b9b9bab2b960d11b815260200190565b60208082526014908201527345524332303a204e6f206164647265737328302960601b604082015260600190565b6020808252601d908201527f416464726573733a2063616c6c20746f206e6f6e2d636f6e7472616374000000604082015260600190565b6020808252600b908201526a4e6f206561726e696e677360a81b604082015260600190565b6020808252602a908201527f5361666545524332303a204552433230206f7065726174696f6e20646964206e6040820152691bdd081cdd58d8d9595960b21b606082015260800190565b6020808252600c908201526b10db185a5b4819985a5b195960a21b604082015260600190565b60208082526036908201527f5361666545524332303a20617070726f76652066726f6d206e6f6e2d7a65726f60408201527520746f206e6f6e2d7a65726f20616c6c6f77616e636560501b606082015260800190565b60208082526025908201527f45524332303a2064656372656173656420616c6c6f77616e63652062656c6f77604082015264207a65726f60d81b606082015260800190565b7044656c6567617465417070726f76616c7360781b815260200190565b60006020825261097b602083018461499e565b60006040820184835260206040818501528185518084526060860191508287019350845b8181101561527f57845183529383019391830191600101615263565b5090979650505050505050565b95865260ff9490941660208601526001600160a01b0392831660408601529082166060850152811660808401521660a082015260c00190565b60ff91909116815260200190565b6040518181016001600160401b03811182821017156152f157600080fd5b604052919050565b60006001600160401b0382111561530e578081fd5b5060209081020190565b60005b8381101561533357818101518382015260200161531b565b8381111561185a5750506000910152565b6001600160a01b038116811461142d57600080fd5b801515811461142d57600080fdfe45524332303a20416d6f756e7420657863656564732062616c616e6365000000ddf252ad1be2c89b69c2b068fc378daa952ba7f163c4a11628f55a4df523b3efa26469706673582212207a3c0070933bf379e5e113af0ac1182b45f7605b3aeda2ea1e106af19f069c3064736f6c634300060c0033",
  "linkReferences": {},
  "deployedLinkReferences": {}
}