{
  "_format": "hh-sol-artifact-1",
  "contractName": "Tournament",
  "sourceName": "contracts/Tournament.sol",
  "abi": [
    {
      "inputs": [
        {
          "internalType": "uint256",
          "name": "startTime",
          "type": "uint256"
        },
        {
          "internalType": "uint256",
          "name": "endTime",
          "type": "uint256"
        },
        {
          "internalType": "contract IOracle",
          "name": "ensoOracle",
          "type": "address"
        },
        {
          "internalType": "contract AggregatorV3Interface",
          "name": "chainlinkOracle",
          "type": "address"
        },
        {
          "internalType": "contract IStrategyController",
          "name": "strategyController",
          "type": "address"
        }
      ],
      "stateMutability": "nonpayable",
      "type": "constructor"
    },
    {
      "anonymous": false,
      "inputs": [
        {
          "indexed": false,
          "internalType": "uint256",
          "name": "tournamentId",
          "type": "uint256"
        },
        {
          "indexed": false,
          "internalType": "uint256",
          "name": "startTime",
          "type": "uint256"
        },
        {
          "indexed": false,
          "internalType": "uint256",
          "name": "endTime",
          "type": "uint256"
        }
      ],
      "name": "NewTournament",
      "type": "event"
    },
    {
      "anonymous": false,
      "inputs": [
        {
          "indexed": true,
          "internalType": "address",
          "name": "previousOwner",
          "type": "address"
        },
        {
          "indexed": true,
          "internalType": "address",
          "name": "newOwner",
          "type": "address"
        }
      ],
      "name": "OwnershipTransferred",
      "type": "event"
    },
    {
      "anonymous": false,
      "inputs": [
        {
          "indexed": false,
          "internalType": "uint256",
          "name": "tournamentId",
          "type": "uint256"
        },
        {
          "indexed": false,
          "internalType": "address",
          "name": "participant",
          "type": "address"
        },
        {
          "indexed": false,
          "internalType": "address",
          "name": "strategy",
          "type": "address"
        }
      ],
      "name": "Registered",
      "type": "event"
    },
    {
      "anonymous": false,
      "inputs": [
        {
          "indexed": false,
          "internalType": "uint256",
          "name": "tournamentId",
          "type": "uint256"
        },
        {
          "indexed": false,
          "internalType": "address",
          "name": "participant",
          "type": "address"
        },
        {
          "indexed": false,
          "internalType": "address",
          "name": "strategy",
          "type": "address"
        }
      ],
      "name": "Unregistered",
      "type": "event"
    },
    {
      "inputs": [],
      "name": "USD_MIN",
      "outputs": [
        {
          "internalType": "uint256",
          "name": "",
          "type": "uint256"
        }
      ],
      "stateMutability": "view",
      "type": "function"
    },
    {
      "inputs": [
        {
          "internalType": "contract IStrategy[]",
          "name": "strategies",
          "type": "address[]"
        }
      ],
      "name": "batchRegister",
      "outputs": [],
      "stateMutability": "nonpayable",
      "type": "function"
    },
    {
      "inputs": [],
      "name": "end",
      "outputs": [
        {
          "internalType": "uint256",
          "name": "",
          "type": "uint256"
        }
      ],
      "stateMutability": "view",
      "type": "function"
    },
    {
      "inputs": [],
      "name": "owner",
      "outputs": [
        {
          "internalType": "address",
          "name": "",
          "type": "address"
        }
      ],
      "stateMutability": "view",
      "type": "function"
    },
    {
      "inputs": [
        {
          "internalType": "address",
          "name": "",
          "type": "address"
        },
        {
          "internalType": "address",
          "name": "",
          "type": "address"
        }
      ],
      "name": "participants",
      "outputs": [
        {
          "internalType": "bool",
          "name": "",
          "type": "bool"
        }
      ],
      "stateMutability": "view",
      "type": "function"
    },
    {
      "inputs": [
        {
          "internalType": "contract IStrategy",
          "name": "strategy",
          "type": "address"
        }
      ],
      "name": "register",
      "outputs": [],
      "stateMutability": "nonpayable",
      "type": "function"
    },
    {
      "inputs": [],
      "name": "renounceOwnership",
      "outputs": [],
      "stateMutability": "nonpayable",
      "type": "function"
    },
    {
      "inputs": [],
      "name": "start",
      "outputs": [
        {
          "internalType": "uint256",
          "name": "",
          "type": "uint256"
        }
      ],
      "stateMutability": "view",
      "type": "function"
    },
    {
      "inputs": [
        {
          "internalType": "address",
          "name": "newOwner",
          "type": "address"
        }
      ],
      "name": "transferOwnership",
      "outputs": [],
      "stateMutability": "nonpayable",
      "type": "function"
    },
    {
      "inputs": [
        {
          "internalType": "address",
          "name": "strategy",
          "type": "address"
        }
      ],
      "name": "unregister",
      "outputs": [],
      "stateMutability": "nonpayable",
      "type": "function"
    },
    {
      "inputs": [
        {
          "internalType": "address",
          "name": "participant",
          "type": "address"
        },
        {
          "internalType": "address",
          "name": "strategy",
          "type": "address"
        }
      ],
      "name": "unregister",
      "outputs": [],
      "stateMutability": "nonpayable",
      "type": "function"
    }
  ],
  "bytecode": "0x60806040523480156200001157600080fd5b50604051620022d6380380620022d68339818101604052810190620000379190620002f1565b6000620000496200028d60201b60201c565b9050806000806101000a81548173ffffffffffffffffffffffffffffffffffffffff021916908373ffffffffffffffffffffffffffffffffffffffff1602179055508073ffffffffffffffffffffffffffffffffffffffff16600073ffffffffffffffffffffffffffffffffffffffff167f8be0079c531659141344cd1fd0a4f28419497f9722a3daafe3b4186f6b6457e060405160405180910390a3504285116200012c576040517f08c379a00000000000000000000000000000000000000000000000000000000081526004016200012390620004c4565b60405180910390fd5b600154841162000173576040517f08c379a00000000000000000000000000000000000000000000000000000000081526004016200016a90620004a2565b60405180910390fd5b846001819055508360028190555082600360006101000a81548173ffffffffffffffffffffffffffffffffffffffff021916908373ffffffffffffffffffffffffffffffffffffffff16021790555081600460006101000a81548173ffffffffffffffffffffffffffffffffffffffff021916908373ffffffffffffffffffffffffffffffffffffffff16021790555080600560006101000a81548173ffffffffffffffffffffffffffffffffffffffff021916908373ffffffffffffffffffffffffffffffffffffffff1602179055507f6b41194bfbdaee5c0a8b40bac713294009d260e2ab8c206e72a6c7ee1432e541600086866040516200027a9392919062000465565b60405180910390a15050505050620005ed565b600033905090565b600081519050620002a68162000585565b92915050565b600081519050620002bd816200059f565b92915050565b600081519050620002d481620005b9565b92915050565b600081519050620002eb81620005d3565b92915050565b600080600080600060a086880312156200030a57600080fd5b60006200031a88828901620002da565b95505060206200032d88828901620002da565b94505060406200034088828901620002ac565b9350506060620003538882890162000295565b92505060806200036688828901620002c3565b9150509295509295909350565b6200037e8162000571565b82525050565b600062000393603b83620004e6565b91507f546f75726e616d656e7423436f6e7374727563746f723a20456e64206461746560008301527f2073686f756c64206265206166746572207374617274206461746500000000006020830152604082019050919050565b6000620003fb603683620004e6565b91507f546f75726e616d656e7423436f6e7374727563746f723a20537461727420646160008301527f74652073686f756c6420626520696e20667574757265000000000000000000006020830152604082019050919050565b6200045f8162000567565b82525050565b60006060820190506200047c600083018662000373565b6200048b602083018562000454565b6200049a604083018462000454565b949350505050565b60006020820190508181036000830152620004bd8162000384565b9050919050565b60006020820190508181036000830152620004df81620003ec565b9050919050565b600082825260208201905092915050565b6000620005048262000547565b9050919050565b60006200051882620004f7565b9050919050565b60006200052c82620004f7565b9050919050565b60006200054082620004f7565b9050919050565b600073ffffffffffffffffffffffffffffffffffffffff82169050919050565b6000819050919050565b60006200057e8262000567565b9050919050565b62000590816200050b565b81146200059c57600080fd5b50565b620005aa816200051f565b8114620005b657600080fd5b50565b620005c48162000533565b8114620005d057600080fd5b50565b620005de8162000567565b8114620005ea57600080fd5b50565b611cd980620005fd6000396000f3fe608060405234801561001057600080fd5b50600436106100a95760003560e01c80638d546447116100715780638d5464471461012a5780638da5cb5b1461015a578063b5e5d89b14610178578063be9a655514610194578063efbe1c1c146101b2578063f2fde38b146101d0576100a9565b80630b77f570146100ae5780632ec2c246146100cc5780634420e486146100e85780634a45b60b14610104578063715018a614610120575b600080fd5b6100b66101ec565b6040516100c39190611770565b60405180910390f35b6100e660048036038101906100e19190611038565b6101f8565b005b61010260048036038101906100fd9190611171565b610205565b005b61011e6004803603810190610119919061108a565b610544565b005b6101286105ce565b005b610144600480360381019061013f919061108a565b610708565b604051610151919061163e565b60405180910390f35b610162610737565b60405161016f91906115f3565b60405180910390f35b610192600480360381019061018d9190611107565b610760565b005b61019c6107cc565b6040516101a99190611770565b60405180910390f35b6101ba6107d2565b6040516101c79190611770565b60405180910390f35b6101ea60048036038101906101e59190611038565b6107d8565b005b67016345785d8a000081565b6102023382610981565b50565b6001544210610249576040517f08c379a0000000000000000000000000000000000000000000000000000000008152600401610240906116f0565b60405180910390fd5b3373ffffffffffffffffffffffffffffffffffffffff168173ffffffffffffffffffffffffffffffffffffffff1663481c6a756040518163ffffffff1660e01b815260040160206040518083038186803b1580156102a657600080fd5b505afa1580156102ba573d6000803e3d6000fd5b505050506040513d601f19601f820116820180604052508101906102de9190611061565b73ffffffffffffffffffffffffffffffffffffffff1614610334576040517f08c379a000000000000000000000000000000000000000000000000000000000815260040161032b90611750565b60405180910390fd5b600560009054906101000a900473ffffffffffffffffffffffffffffffffffffffff1673ffffffffffffffffffffffffffffffffffffffff1663cbca47db826040518263ffffffff1660e01b815260040161038f91906115f3565b60206040518083038186803b1580156103a757600080fd5b505afa1580156103bb573d6000803e3d6000fd5b505050506040513d601f19601f820116820180604052508101906103df9190611148565b61041e576040517f08c379a0000000000000000000000000000000000000000000000000000000008152600401610415906116b0565b60405180910390fd5b67016345785d8a000061043082610b16565b11610470576040517f08c379a0000000000000000000000000000000000000000000000000000000008152600401610467906116d0565b60405180910390fd5b6001600660003373ffffffffffffffffffffffffffffffffffffffff1673ffffffffffffffffffffffffffffffffffffffff16815260200190815260200160002060008373ffffffffffffffffffffffffffffffffffffffff1673ffffffffffffffffffffffffffffffffffffffff16815260200190815260200160002060006101000a81548160ff0219169083151502179055507f788958aa857942c9f2768aebea88551cdec06f067e1ba154fc572385b7cce2dd6000338360405161053993929190611659565b60405180910390a150565b61054c610dc6565b73ffffffffffffffffffffffffffffffffffffffff1661056a610737565b73ffffffffffffffffffffffffffffffffffffffff16146105c0576040517f08c379a00000000000000000000000000000000000000000000000000000000081526004016105b790611710565b60405180910390fd5b6105ca8282610981565b5050565b6105d6610dc6565b73ffffffffffffffffffffffffffffffffffffffff166105f4610737565b73ffffffffffffffffffffffffffffffffffffffff161461064a576040517f08c379a000000000000000000000000000000000000000000000000000000000815260040161064190611710565b60405180910390fd5b600073ffffffffffffffffffffffffffffffffffffffff1660008054906101000a900473ffffffffffffffffffffffffffffffffffffffff1673ffffffffffffffffffffffffffffffffffffffff167f8be0079c531659141344cd1fd0a4f28419497f9722a3daafe3b4186f6b6457e060405160405180910390a360008060006101000a81548173ffffffffffffffffffffffffffffffffffffffff021916908373ffffffffffffffffffffffffffffffffffffffff160217905550565b60066020528160005260406000206020528060005260406000206000915091509054906101000a900460ff1681565b60008060009054906101000a900473ffffffffffffffffffffffffffffffffffffffff16905090565b60005b81518110156107c8576107b58282815181106107a8577f4e487b7100000000000000000000000000000000000000000000000000000000600052603260045260246000fd5b6020026020010151610205565b80806107c090611b1f565b915050610763565b5050565b60015481565b60025481565b6107e0610dc6565b73ffffffffffffffffffffffffffffffffffffffff166107fe610737565b73ffffffffffffffffffffffffffffffffffffffff1614610854576040517f08c379a000000000000000000000000000000000000000000000000000000000815260040161084b90611710565b60405180910390fd5b600073ffffffffffffffffffffffffffffffffffffffff168173ffffffffffffffffffffffffffffffffffffffff1614156108c4576040517f08c379a00000000000000000000000000000000000000000000000000000000081526004016108bb90611690565b60405180910390fd5b8073ffffffffffffffffffffffffffffffffffffffff1660008054906101000a900473ffffffffffffffffffffffffffffffffffffffff1673ffffffffffffffffffffffffffffffffffffffff167f8be0079c531659141344cd1fd0a4f28419497f9722a3daafe3b4186f6b6457e060405160405180910390a3806000806101000a81548173ffffffffffffffffffffffffffffffffffffffff021916908373ffffffffffffffffffffffffffffffffffffffff16021790555050565b600660008373ffffffffffffffffffffffffffffffffffffffff1673ffffffffffffffffffffffffffffffffffffffff16815260200190815260200160002060008273ffffffffffffffffffffffffffffffffffffffff1673ffffffffffffffffffffffffffffffffffffffff16815260200190815260200160002060009054906101000a900460ff16610a4a576040517f08c379a0000000000000000000000000000000000000000000000000000000008152600401610a4190611730565b60405180910390fd5b600660008373ffffffffffffffffffffffffffffffffffffffff1673ffffffffffffffffffffffffffffffffffffffff16815260200190815260200160002060008273ffffffffffffffffffffffffffffffffffffffff1673ffffffffffffffffffffffffffffffffffffffff16815260200190815260200160002060006101000a81549060ff02191690557fd2a25ee4059acd96aedef96359e117eaa465d5fb5774b3b133cbdb6138ac10f160008383604051610b0a93929190611659565b60405180910390a15050565b600080600360009054906101000a900473ffffffffffffffffffffffffffffffffffffffff1673ffffffffffffffffffffffffffffffffffffffff1663d077bf32848573ffffffffffffffffffffffffffffffffffffffff1663c06fad066040518163ffffffff1660e01b815260040160006040518083038186803b158015610b9e57600080fd5b505afa158015610bb2573d6000803e3d6000fd5b505050506040513d6000823e3d601f19601f82011682018060405250810190610bdb91906110c6565b6040518363ffffffff1660e01b8152600401610bf892919061160e565b60006040518083038186803b158015610c1057600080fd5b505afa158015610c24573d6000803e3d6000fd5b505050506040513d6000823e3d601f19601f82011682018060405250810190610c4d919061119a565b5090506000600460009054906101000a900473ffffffffffffffffffffffffffffffffffffffff1673ffffffffffffffffffffffffffffffffffffffff1663feaf968c6040518163ffffffff1660e01b815260040160a06040518083038186803b158015610cba57600080fd5b505afa158015610cce573d6000803e3d6000fd5b505050506040513d601f19601f82011682018060405250810190610cf291906111ee565b505050915050600460009054906101000a900473ffffffffffffffffffffffffffffffffffffffff1673ffffffffffffffffffffffffffffffffffffffff1663313ce5676040518163ffffffff1660e01b815260040160206040518083038186803b158015610d6057600080fd5b505afa158015610d74573d6000803e3d6000fd5b505050506040513d601f19601f82011682018060405250810190610d989190611265565b60ff16600a610da7919061190e565b8282610db39190611a2c565b610dbd919061188a565b92505050919050565b600033905090565b6000610de1610ddc846117bc565b61178b565b90508083825260208201905082856020860282011115610e0057600080fd5b60005b85811015610e305781610e168882610f27565b845260208401935060208301925050600181019050610e03565b5050509392505050565b6000610e4d610e48846117e8565b61178b565b90508083825260208201905082856020860282011115610e6c57600080fd5b60005b85811015610e9c5781610e828882610fcf565b845260208401935060208301925050600181019050610e6f565b5050509392505050565b6000610eb9610eb484611814565b61178b565b90508083825260208201905082856020860282011115610ed857600080fd5b60005b85811015610f085781610eee8882610ff9565b845260208401935060208301925050600181019050610edb565b5050509392505050565b600081359050610f2181611c02565b92915050565b600081519050610f3681611c02565b92915050565b600082601f830112610f4d57600080fd5b8151610f5d848260208601610dce565b91505092915050565b600082601f830112610f7757600080fd5b8135610f87848260208601610e3a565b91505092915050565b600082601f830112610fa157600080fd5b8151610fb1848260208601610ea6565b91505092915050565b600081519050610fc981611c19565b92915050565b600081359050610fde81611c30565b92915050565b600081519050610ff381611c47565b92915050565b60008151905061100881611c5e565b92915050565b60008151905061101d81611c8c565b92915050565b60008151905061103281611c75565b92915050565b60006020828403121561104a57600080fd5b600061105884828501610f12565b91505092915050565b60006020828403121561107357600080fd5b600061108184828501610f27565b91505092915050565b6000806040838503121561109d57600080fd5b60006110ab85828601610f12565b92505060206110bc85828601610f12565b9150509250929050565b6000602082840312156110d857600080fd5b600082015167ffffffffffffffff8111156110f257600080fd5b6110fe84828501610f3c565b91505092915050565b60006020828403121561111957600080fd5b600082013567ffffffffffffffff81111561113357600080fd5b61113f84828501610f66565b91505092915050565b60006020828403121561115a57600080fd5b600061116884828501610fba565b91505092915050565b60006020828403121561118357600080fd5b600061119184828501610fcf565b91505092915050565b600080604083850312156111ad57600080fd5b60006111bb85828601610ff9565b925050602083015167ffffffffffffffff8111156111d857600080fd5b6111e485828601610f90565b9150509250929050565b600080600080600060a0868803121561120657600080fd5b60006112148882890161100e565b955050602061122588828901610fe4565b945050604061123688828901610ff9565b935050606061124788828901610ff9565b92505060806112588882890161100e565b9150509295509295909350565b60006020828403121561127757600080fd5b600061128584828501611023565b91505092915050565b600061129a83836112a6565b60208301905092915050565b6112af81611a86565b82525050565b6112be81611a86565b82525050565b60006112cf82611850565b6112d98185611868565b93506112e483611840565b8060005b838110156113155781516112fc888261128e565b97506113078361185b565b9250506001810190506112e8565b5085935050505092915050565b61132b81611a98565b82525050565b61133a81611b0d565b82525050565b600061134d602683611879565b91507f4f776e61626c653a206e6577206f776e657220697320746865207a65726f206160008301527f64647265737300000000000000000000000000000000000000000000000000006020830152604082019050919050565b60006113b3602d83611879565b91507f546f75726e616d656e742372656769737465723a205374726174656779206e6f60008301527f7420696e697469616c697a6564000000000000000000000000000000000000006020830152604082019050919050565b6000611419603a83611879565b91507f546f75726e616d656e742372656769737465723a205374726174656779206d7560008301527f737420686f6c642061206d696e696d756d206f662066756e64730000000000006020830152604082019050919050565b600061147f603583611879565b91507f546f75726e616d656e742372656769737465723a2043616e6e6f74207265676960008301527f73746572206166746572207374617274206461746500000000000000000000006020830152604082019050919050565b60006114e5602083611879565b91507f4f776e61626c653a2063616c6c6572206973206e6f7420746865206f776e65726000830152602082019050919050565b6000611525602e83611879565b91507f546f75726e616d656e74235f756e72656769737465723a204e6f74207265676960008301527f737465726564206561726c6965720000000000000000000000000000000000006020830152604082019050919050565b600061158b603283611879565b91507f546f75726e616d656e742372656769737465723a204f6e6c7920746865206d6160008301527f6e616765722063616e20726567697374657200000000000000000000000000006020830152604082019050919050565b6115ed81611ae0565b82525050565b600060208201905061160860008301846112b5565b92915050565b600060408201905061162360008301856112b5565b818103602083015261163581846112c4565b90509392505050565b60006020820190506116536000830184611322565b92915050565b600060608201905061166e6000830186611331565b61167b60208301856112b5565b61168860408301846112b5565b949350505050565b600060208201905081810360008301526116a981611340565b9050919050565b600060208201905081810360008301526116c9816113a6565b9050919050565b600060208201905081810360008301526116e98161140c565b9050919050565b6000602082019050818103600083015261170981611472565b9050919050565b60006020820190508181036000830152611729816114d8565b9050919050565b6000602082019050818103600083015261174981611518565b9050919050565b600060208201905081810360008301526117698161157e565b9050919050565b600060208201905061178560008301846115e4565b92915050565b6000604051905081810181811067ffffffffffffffff821117156117b2576117b1611bc6565b5b8060405250919050565b600067ffffffffffffffff8211156117d7576117d6611bc6565b5b602082029050602081019050919050565b600067ffffffffffffffff82111561180357611802611bc6565b5b602082029050602081019050919050565b600067ffffffffffffffff82111561182f5761182e611bc6565b5b602082029050602081019050919050565b6000819050602082019050919050565b600081519050919050565b6000602082019050919050565b600082825260208201905092915050565b600082825260208201905092915050565b600061189582611ae0565b91506118a083611ae0565b9250826118b0576118af611b97565b5b828204905092915050565b6000808291508390505b6001851115611905578086048111156118e1576118e0611b68565b5b60018516156118f05780820291505b80810290506118fe85611bf5565b94506118c5565b94509492505050565b600061191982611ae0565b915061192483611ae0565b92506119517fffffffffffffffffffffffffffffffffffffffffffffffffffffffffffffffff8484611959565b905092915050565b6000826119695760019050611a25565b816119775760009050611a25565b816001811461198d5760028114611997576119c6565b6001915050611a25565b60ff8411156119a9576119a8611b68565b5b8360020a9150848211156119c0576119bf611b68565b5b50611a25565b5060208310610133831016604e8410600b84101617156119fb5782820a9050838111156119f6576119f5611b68565b5b611a25565b611a0884848460016118bb565b92509050818404811115611a1f57611a1e611b68565b5b81810290505b9392505050565b6000611a3782611ae0565b9150611a4283611ae0565b9250817fffffffffffffffffffffffffffffffffffffffffffffffffffffffffffffffff0483118215151615611a7b57611a7a611b68565b5b828202905092915050565b6000611a9182611ac0565b9050919050565b60008115159050919050565b6000611aaf82611a86565b9050919050565b6000819050919050565b600073ffffffffffffffffffffffffffffffffffffffff82169050919050565b6000819050919050565b600060ff82169050919050565b600069ffffffffffffffffffff82169050919050565b6000611b1882611ae0565b9050919050565b6000611b2a82611ae0565b91507fffffffffffffffffffffffffffffffffffffffffffffffffffffffffffffffff821415611b5d57611b5c611b68565b5b600182019050919050565b7f4e487b7100000000000000000000000000000000000000000000000000000000600052601160045260246000fd5b7f4e487b7100000000000000000000000000000000000000000000000000000000600052601260045260246000fd5b7f4e487b7100000000000000000000000000000000000000000000000000000000600052604160045260246000fd5b60008160011c9050919050565b611c0b81611a86565b8114611c1657600080fd5b50565b611c2281611a98565b8114611c2d57600080fd5b50565b611c3981611aa4565b8114611c4457600080fd5b50565b611c5081611ab6565b8114611c5b57600080fd5b50565b611c6781611ae0565b8114611c7257600080fd5b50565b611c7e81611aea565b8114611c8957600080fd5b50565b611c9581611af7565b8114611ca057600080fd5b5056fea2646970667358221220a49f2728b961c22a712a8b9c75e2c56a15754c5edb29991268688a21c53fece464736f6c63430008000033",
  "linkReferences": {},
  "deployedLinkReferences": {}
}